{
	"hell0.sol": {
		"ContactManager": {
			"abi": [
				{
					"inputs": [],
					"stateMutability": "nonpayable",
					"type": "constructor"
				},
				{
					"anonymous": false,
					"inputs": [
						{
							"indexed": false,
							"internalType": "string",
							"name": "name",
							"type": "string"
						},
						{
							"indexed": false,
							"internalType": "address",
							"name": "contactAddress",
							"type": "address"
						}
					],
					"name": "NewContactAdded",
					"type": "event"
				},
				{
					"inputs": [
						{
							"internalType": "string",
							"name": "_name",
							"type": "string"
						},
						{
							"internalType": "address",
							"name": "_contactAddress",
							"type": "address"
						}
					],
					"name": "addContact",
					"outputs": [],
					"stateMutability": "nonpayable",
					"type": "function"
				},
				{
					"inputs": [],
					"name": "contactCount",
					"outputs": [
						{
							"internalType": "uint256",
							"name": "",
							"type": "uint256"
						}
					],
					"stateMutability": "view",
					"type": "function"
				},
				{
					"inputs": [
						{
							"internalType": "address",
							"name": "",
							"type": "address"
						}
					],
					"name": "contactsByAddress",
					"outputs": [
						{
							"internalType": "string",
							"name": "name",
							"type": "string"
						},
						{
							"internalType": "address",
							"name": "contactAddress",
							"type": "address"
						}
					],
					"stateMutability": "view",
					"type": "function"
				},
				{
					"inputs": [
						{
							"internalType": "uint256",
							"name": "",
							"type": "uint256"
						}
					],
					"name": "contactsByNumber",
					"outputs": [
						{
							"internalType": "address",
							"name": "",
							"type": "address"
						}
					],
					"stateMutability": "view",
					"type": "function"
				},
				{
					"inputs": [
						{
							"internalType": "address",
							"name": "contactAddress",
							"type": "address"
						}
					],
					"name": "getContactByAddress",
					"outputs": [
						{
							"internalType": "string",
							"name": "",
							"type": "string"
						},
						{
							"internalType": "uint256",
							"name": "",
							"type": "uint256"
						}
					],
					"stateMutability": "view",
					"type": "function"
				},
				{
					"inputs": [
						{
							"internalType": "uint256",
							"name": "contactNumber",
							"type": "uint256"
						}
					],
					"name": "getContactByNumber",
					"outputs": [
						{
							"internalType": "string",
							"name": "",
							"type": "string"
						},
						{
							"internalType": "address",
							"name": "",
							"type": "address"
						}
					],
					"stateMutability": "view",
					"type": "function"
				},
				{
					"inputs": [],
					"name": "owner",
					"outputs": [
						{
							"internalType": "address",
							"name": "",
							"type": "address"
						}
					],
					"stateMutability": "view",
					"type": "function"
				}
			],
			"devdoc": {
				"kind": "dev",
				"methods": {},
				"version": 1
			},
			"evm": {
				"assembly": "    /* \"hell0.sol\":60:1923  contract ContactManager {\r... */\n  mstore(0x40, 0x80)\n    /* \"hell0.sol\":426:477  constructor() {\r... */\n  callvalue\n  dup1\n  iszero\n  tag_1\n  jumpi\n  0x00\n  dup1\n  revert\ntag_1:\n  pop\n    /* \"hell0.sol\":459:469  msg.sender */\n  caller\n    /* \"hell0.sol\":451:456  owner */\n  0x00\n  dup1\n    /* \"hell0.sol\":451:469  owner = msg.sender */\n  0x0100\n  exp\n  dup2\n  sload\n  dup2\n  0xffffffffffffffffffffffffffffffffffffffff\n  mul\n  not\n  and\n  swap1\n  dup4\n  0xffffffffffffffffffffffffffffffffffffffff\n  and\n  mul\n  or\n  swap1\n  sstore\n  pop\n    /* \"hell0.sol\":60:1923  contract ContactManager {\r... */\n  dataSize(sub_0)\n  dup1\n  dataOffset(sub_0)\n  0x00\n  codecopy\n  0x00\n  return\nstop\n\nsub_0: assembly {\n        /* \"hell0.sol\":60:1923  contract ContactManager {\r... */\n      mstore(0x40, 0x80)\n      callvalue\n      dup1\n      iszero\n      tag_1\n      jumpi\n      0x00\n      dup1\n      revert\n    tag_1:\n      pop\n      jumpi(tag_2, lt(calldatasize, 0x04))\n      shr(0xe0, calldataload(0x00))\n      dup1\n      0x8da5cb5b\n      gt\n      tag_10\n      jumpi\n      dup1\n      0x8da5cb5b\n      eq\n      tag_6\n      jumpi\n      dup1\n      0xa7ca9615\n      eq\n      tag_7\n      jumpi\n      dup1\n      0xdf3c2631\n      eq\n      tag_8\n      jumpi\n      dup1\n      0xf0e5b0e0\n      eq\n      tag_9\n      jumpi\n      jump(tag_2)\n    tag_10:\n      dup1\n      0x9dcb10\n      eq\n      tag_3\n      jumpi\n      dup1\n      0x6f24b093\n      eq\n      tag_4\n      jumpi\n      dup1\n      0x708adcd5\n      eq\n      tag_5\n      jumpi\n    tag_2:\n      0x00\n      dup1\n      revert\n        /* \"hell0.sol\":206:258  mapping(address => Contact) public contactsByAddress */\n    tag_3:\n      tag_11\n      0x04\n      dup1\n      calldatasize\n      sub\n      dup2\n      add\n      swap1\n      tag_12\n      swap2\n      swap1\n      tag_13\n      jump\t// in\n    tag_12:\n      tag_14\n      jump\t// in\n    tag_11:\n      mload(0x40)\n      tag_15\n      swap3\n      swap2\n      swap1\n      tag_16\n      jump\t// in\n    tag_15:\n      mload(0x40)\n      dup1\n      swap2\n      sub\n      swap1\n      return\n        /* \"hell0.sol\":1020:1318  function getContactByNumber(uint256 contactNumber) external view returns (string memory, address) {\r... */\n    tag_4:\n      tag_17\n      0x04\n      dup1\n      calldatasize\n      sub\n      dup2\n      add\n      swap1\n      tag_18\n      swap2\n      swap1\n      tag_19\n      jump\t// in\n    tag_18:\n      tag_20\n      jump\t// in\n    tag_17:\n      mload(0x40)\n      tag_21\n      swap3\n      swap2\n      swap1\n      tag_16\n      jump\t// in\n    tag_21:\n      mload(0x40)\n      dup1\n      swap2\n      sub\n      swap1\n      return\n        /* \"hell0.sol\":614:1012  function addContact(string memory _name, address _contactAddress) external onlyOwner {\r... */\n    tag_5:\n      tag_22\n      0x04\n      dup1\n      calldatasize\n      sub\n      dup2\n      add\n      swap1\n      tag_23\n      swap2\n      swap1\n      tag_24\n      jump\t// in\n    tag_23:\n      tag_25\n      jump\t// in\n    tag_22:\n      stop\n        /* \"hell0.sol\":91:111  address public owner */\n    tag_6:\n      tag_26\n      tag_27\n      jump\t// in\n    tag_26:\n      mload(0x40)\n      tag_28\n      swap2\n      swap1\n      tag_29\n      jump\t// in\n    tag_28:\n      mload(0x40)\n      dup1\n      swap2\n      sub\n      swap1\n      return\n        /* \"hell0.sol\":1326:1618  function getContactByAddress(address contactAddress) external view returns (string memory, uint256) {\r... */\n    tag_7:\n      tag_30\n      0x04\n      dup1\n      calldatasize\n      sub\n      dup2\n      add\n      swap1\n      tag_31\n      swap2\n      swap1\n      tag_13\n      jump\t// in\n    tag_31:\n      tag_32\n      jump\t// in\n    tag_30:\n      mload(0x40)\n      tag_33\n      swap3\n      swap2\n      swap1\n      tag_34\n      jump\t// in\n    tag_33:\n      mload(0x40)\n      dup1\n      swap2\n      sub\n      swap1\n      return\n        /* \"hell0.sol\":265:316  mapping(uint256 => address) public contactsByNumber */\n    tag_8:\n      tag_35\n      0x04\n      dup1\n      calldatasize\n      sub\n      dup2\n      add\n      swap1\n      tag_36\n      swap2\n      swap1\n      tag_19\n      jump\t// in\n    tag_36:\n      tag_37\n      jump\t// in\n    tag_35:\n      mload(0x40)\n      tag_38\n      swap2\n      swap1\n      tag_29\n      jump\t// in\n    tag_38:\n      mload(0x40)\n      dup1\n      swap2\n      sub\n      swap1\n      return\n        /* \"hell0.sol\":323:350  uint256 public contactCount */\n    tag_9:\n      tag_39\n      tag_40\n      jump\t// in\n    tag_39:\n      mload(0x40)\n      tag_41\n      swap2\n      swap1\n      tag_42\n      jump\t// in\n    tag_41:\n      mload(0x40)\n      dup1\n      swap2\n      sub\n      swap1\n      return\n        /* \"hell0.sol\":206:258  mapping(address => Contact) public contactsByAddress */\n    tag_14:\n      mstore(0x20, 0x01)\n      dup1\n      0x00\n      mstore\n      keccak256(0x00, 0x40)\n      0x00\n      swap2\n      pop\n      swap1\n      pop\n      dup1\n      0x00\n      add\n      dup1\n      sload\n      tag_43\n      swap1\n      tag_44\n      jump\t// in\n    tag_43:\n      dup1\n      0x1f\n      add\n      0x20\n      dup1\n      swap2\n      div\n      mul\n      0x20\n      add\n      mload(0x40)\n      swap1\n      dup2\n      add\n      0x40\n      mstore\n      dup1\n      swap3\n      swap2\n      swap1\n      dup2\n      dup2\n      mstore\n      0x20\n      add\n      dup3\n      dup1\n      sload\n      tag_45\n      swap1\n      tag_44\n      jump\t// in\n    tag_45:\n      dup1\n      iszero\n      tag_46\n      jumpi\n      dup1\n      0x1f\n      lt\n      tag_47\n      jumpi\n      0x0100\n      dup1\n      dup4\n      sload\n      div\n      mul\n      dup4\n      mstore\n      swap2\n      0x20\n      add\n      swap2\n      jump(tag_46)\n    tag_47:\n      dup3\n      add\n      swap2\n      swap1\n      0x00\n      mstore\n      keccak256(0x00, 0x20)\n      swap1\n    tag_48:\n      dup2\n      sload\n      dup2\n      mstore\n      swap1\n      0x01\n      add\n      swap1\n      0x20\n      add\n      dup1\n      dup4\n      gt\n      tag_48\n      jumpi\n      dup3\n      swap1\n      sub\n      0x1f\n      and\n      dup3\n      add\n      swap2\n    tag_46:\n      pop\n      pop\n      pop\n      pop\n      pop\n      swap1\n      dup1\n      0x01\n      add\n      0x00\n      swap1\n      sload\n      swap1\n      0x0100\n      exp\n      swap1\n      div\n      0xffffffffffffffffffffffffffffffffffffffff\n      and\n      swap1\n      pop\n      dup3\n      jump\t// out\n        /* \"hell0.sol\":1020:1318  function getContactByNumber(uint256 contactNumber) external view returns (string memory, address) {\r... */\n    tag_20:\n        /* \"hell0.sol\":1094:1107  string memory */\n      0x60\n        /* \"hell0.sol\":1109:1116  address */\n      0x00\n        /* \"hell0.sol\":1129:1151  address contactAddress */\n      dup1\n        /* \"hell0.sol\":1154:1170  contactsByNumber */\n      0x02\n        /* \"hell0.sol\":1154:1185  contactsByNumber[contactNumber] */\n      0x00\n        /* \"hell0.sol\":1171:1184  contactNumber */\n      dup6\n        /* \"hell0.sol\":1154:1185  contactsByNumber[contactNumber] */\n      dup2\n      mstore\n      0x20\n      add\n      swap1\n      dup2\n      mstore\n      0x20\n      add\n      0x00\n      keccak256\n      0x00\n      swap1\n      sload\n      swap1\n      0x0100\n      exp\n      swap1\n      div\n      0xffffffffffffffffffffffffffffffffffffffff\n      and\n        /* \"hell0.sol\":1129:1185  address contactAddress = contactsByNumber[contactNumber] */\n      swap1\n      pop\n        /* \"hell0.sol\":1196:1218  Contact memory contact */\n      0x00\n        /* \"hell0.sol\":1221:1238  contactsByAddress */\n      0x01\n        /* \"hell0.sol\":1221:1254  contactsByAddress[contactAddress] */\n      0x00\n        /* \"hell0.sol\":1239:1253  contactAddress */\n      dup4\n        /* \"hell0.sol\":1221:1254  contactsByAddress[contactAddress] */\n      0xffffffffffffffffffffffffffffffffffffffff\n      and\n      0xffffffffffffffffffffffffffffffffffffffff\n      and\n      dup2\n      mstore\n      0x20\n      add\n      swap1\n      dup2\n      mstore\n      0x20\n      add\n      0x00\n      keccak256\n        /* \"hell0.sol\":1196:1254  Contact memory contact = contactsByAddress[contactAddress] */\n      mload(0x40)\n      dup1\n      0x40\n      add\n      0x40\n      mstore\n      swap1\n      dup2\n      0x00\n      dup3\n      add\n      dup1\n      sload\n      tag_50\n      swap1\n      tag_44\n      jump\t// in\n    tag_50:\n      dup1\n      0x1f\n      add\n      0x20\n      dup1\n      swap2\n      div\n      mul\n      0x20\n      add\n      mload(0x40)\n      swap1\n      dup2\n      add\n      0x40\n      mstore\n      dup1\n      swap3\n      swap2\n      swap1\n      dup2\n      dup2\n      mstore\n      0x20\n      add\n      dup3\n      dup1\n      sload\n      tag_51\n      swap1\n      tag_44\n      jump\t// in\n    tag_51:\n      dup1\n      iszero\n      tag_52\n      jumpi\n      dup1\n      0x1f\n      lt\n      tag_53\n      jumpi\n      0x0100\n      dup1\n      dup4\n      sload\n      div\n      mul\n      dup4\n      mstore\n      swap2\n      0x20\n      add\n      swap2\n      jump(tag_52)\n    tag_53:\n      dup3\n      add\n      swap2\n      swap1\n      0x00\n      mstore\n      keccak256(0x00, 0x20)\n      swap1\n    tag_54:\n      dup2\n      sload\n      dup2\n      mstore\n      swap1\n      0x01\n      add\n      swap1\n      0x20\n      add\n      dup1\n      dup4\n      gt\n      tag_54\n      jumpi\n      dup3\n      swap1\n      sub\n      0x1f\n      and\n      dup3\n      add\n      swap2\n    tag_52:\n      pop\n      pop\n      pop\n      pop\n      pop\n      dup2\n      mstore\n      0x20\n      add\n      0x01\n      dup3\n      add\n      0x00\n      swap1\n      sload\n      swap1\n      0x0100\n      exp\n      swap1\n      div\n      0xffffffffffffffffffffffffffffffffffffffff\n      and\n      0xffffffffffffffffffffffffffffffffffffffff\n      and\n      0xffffffffffffffffffffffffffffffffffffffff\n      and\n      dup2\n      mstore\n      pop\n      pop\n      swap1\n      pop\n        /* \"hell0.sol\":1273:1280  contact */\n      dup1\n        /* \"hell0.sol\":1273:1285  contact.name */\n      0x00\n      add\n      mload\n        /* \"hell0.sol\":1287:1294  contact */\n      dup2\n        /* \"hell0.sol\":1287:1309  contact.contactAddress */\n      0x20\n      add\n      mload\n        /* \"hell0.sol\":1265:1310  return (contact.name, contact.contactAddress) */\n      swap4\n      pop\n      swap4\n      pop\n      pop\n      pop\n        /* \"hell0.sol\":1020:1318  function getContactByNumber(uint256 contactNumber) external view returns (string memory, address) {\r... */\n      swap2\n      pop\n      swap2\n      jump\t// out\n        /* \"hell0.sol\":614:1012  function addContact(string memory _name, address _contactAddress) external onlyOwner {\r... */\n    tag_25:\n        /* \"hell0.sol\":539:544  owner */\n      0x00\n      dup1\n      sload\n      swap1\n      0x0100\n      exp\n      swap1\n      div\n      0xffffffffffffffffffffffffffffffffffffffff\n      and\n        /* \"hell0.sol\":525:544  msg.sender == owner */\n      0xffffffffffffffffffffffffffffffffffffffff\n      and\n        /* \"hell0.sol\":525:535  msg.sender */\n      caller\n        /* \"hell0.sol\":525:544  msg.sender == owner */\n      0xffffffffffffffffffffffffffffffffffffffff\n      and\n      eq\n        /* \"hell0.sol\":517:586  require(msg.sender == owner, \"Only the owner can call this function\") */\n      tag_56\n      jumpi\n      mload(0x40)\n      0x08c379a000000000000000000000000000000000000000000000000000000000\n      dup2\n      mstore\n      0x04\n      add\n      tag_57\n      swap1\n      tag_58\n      jump\t// in\n    tag_57:\n      mload(0x40)\n      dup1\n      swap2\n      sub\n      swap1\n      revert\n    tag_56:\n        /* \"hell0.sol\":710:736  Contact storage newContact */\n      0x00\n        /* \"hell0.sol\":739:756  contactsByAddress */\n      0x01\n        /* \"hell0.sol\":739:773  contactsByAddress[_contactAddress] */\n      0x00\n        /* \"hell0.sol\":757:772  _contactAddress */\n      dup4\n        /* \"hell0.sol\":739:773  contactsByAddress[_contactAddress] */\n      0xffffffffffffffffffffffffffffffffffffffff\n      and\n      0xffffffffffffffffffffffffffffffffffffffff\n      and\n      dup2\n      mstore\n      0x20\n      add\n      swap1\n      dup2\n      mstore\n      0x20\n      add\n      0x00\n      keccak256\n        /* \"hell0.sol\":710:773  Contact storage newContact = contactsByAddress[_contactAddress] */\n      swap1\n      pop\n        /* \"hell0.sol\":802:807  _name */\n      dup3\n        /* \"hell0.sol\":784:794  newContact */\n      dup2\n        /* \"hell0.sol\":784:799  newContact.name */\n      0x00\n      add\n        /* \"hell0.sol\":784:807  newContact.name = _name */\n      swap1\n      dup1\n      mload\n      swap1\n      0x20\n      add\n      swap1\n      tag_60\n      swap3\n      swap2\n      swap1\n      tag_61\n      jump\t// in\n    tag_60:\n      pop\n        /* \"hell0.sol\":846:861  _contactAddress */\n      dup2\n        /* \"hell0.sol\":818:828  newContact */\n      dup2\n        /* \"hell0.sol\":818:843  newContact.contactAddress */\n      0x01\n      add\n      0x00\n        /* \"hell0.sol\":818:861  newContact.contactAddress = _contactAddress */\n      0x0100\n      exp\n      dup2\n      sload\n      dup2\n      0xffffffffffffffffffffffffffffffffffffffff\n      mul\n      not\n      and\n      swap1\n      dup4\n      0xffffffffffffffffffffffffffffffffffffffff\n      and\n      mul\n      or\n      swap1\n      sstore\n      pop\n        /* \"hell0.sol\":907:922  _contactAddress */\n      dup2\n        /* \"hell0.sol\":874:890  contactsByNumber */\n      0x02\n        /* \"hell0.sol\":874:904  contactsByNumber[contactCount] */\n      0x00\n        /* \"hell0.sol\":891:903  contactCount */\n      sload(0x03)\n        /* \"hell0.sol\":874:904  contactsByNumber[contactCount] */\n      dup2\n      mstore\n      0x20\n      add\n      swap1\n      dup2\n      mstore\n      0x20\n      add\n      0x00\n      keccak256\n      0x00\n        /* \"hell0.sol\":874:922  contactsByNumber[contactCount] = _contactAddress */\n      0x0100\n      exp\n      dup2\n      sload\n      dup2\n      0xffffffffffffffffffffffffffffffffffffffff\n      mul\n      not\n      and\n      swap1\n      dup4\n      0xffffffffffffffffffffffffffffffffffffffff\n      and\n      mul\n      or\n      swap1\n      sstore\n      pop\n        /* \"hell0.sol\":933:945  contactCount */\n      0x03\n      0x00\n        /* \"hell0.sol\":933:947  contactCount++ */\n      dup2\n      sload\n      dup1\n      swap3\n      swap2\n      swap1\n      tag_62\n      swap1\n      tag_63\n      jump\t// in\n    tag_62:\n      swap2\n      swap1\n      pop\n      sstore\n      pop\n        /* \"hell0.sol\":965:1004  NewContactAdded(_name, _contactAddress) */\n      0x41f0f9636a4b31a3645b61eccf358f50026da9fb737ee19926247e1725c4b2c9\n        /* \"hell0.sol\":981:986  _name */\n      dup4\n        /* \"hell0.sol\":988:1003  _contactAddress */\n      dup4\n        /* \"hell0.sol\":965:1004  NewContactAdded(_name, _contactAddress) */\n      mload(0x40)\n      tag_64\n      swap3\n      swap2\n      swap1\n      tag_16\n      jump\t// in\n    tag_64:\n      mload(0x40)\n      dup1\n      swap2\n      sub\n      swap1\n      log1\n        /* \"hell0.sol\":597:598  _ */\n      pop\n        /* \"hell0.sol\":614:1012  function addContact(string memory _name, address _contactAddress) external onlyOwner {\r... */\n      pop\n      pop\n      jump\t// out\n        /* \"hell0.sol\":91:111  address public owner */\n    tag_27:\n      0x00\n      dup1\n      sload\n      swap1\n      0x0100\n      exp\n      swap1\n      div\n      0xffffffffffffffffffffffffffffffffffffffff\n      and\n      dup2\n      jump\t// out\n        /* \"hell0.sol\":1326:1618  function getContactByAddress(address contactAddress) external view returns (string memory, uint256) {\r... */\n    tag_32:\n        /* \"hell0.sol\":1402:1415  string memory */\n      0x60\n        /* \"hell0.sol\":1417:1424  uint256 */\n      0x00\n        /* \"hell0.sol\":1437:1459  Contact memory contact */\n      dup1\n        /* \"hell0.sol\":1462:1479  contactsByAddress */\n      0x01\n        /* \"hell0.sol\":1462:1495  contactsByAddress[contactAddress] */\n      0x00\n        /* \"hell0.sol\":1480:1494  contactAddress */\n      dup6\n        /* \"hell0.sol\":1462:1495  contactsByAddress[contactAddress] */\n      0xffffffffffffffffffffffffffffffffffffffff\n      and\n      0xffffffffffffffffffffffffffffffffffffffff\n      and\n      dup2\n      mstore\n      0x20\n      add\n      swap1\n      dup2\n      mstore\n      0x20\n      add\n      0x00\n      keccak256\n        /* \"hell0.sol\":1437:1495  Contact memory contact = contactsByAddress[contactAddress] */\n      mload(0x40)\n      dup1\n      0x40\n      add\n      0x40\n      mstore\n      swap1\n      dup2\n      0x00\n      dup3\n      add\n      dup1\n      sload\n      tag_66\n      swap1\n      tag_44\n      jump\t// in\n    tag_66:\n      dup1\n      0x1f\n      add\n      0x20\n      dup1\n      swap2\n      div\n      mul\n      0x20\n      add\n      mload(0x40)\n      swap1\n      dup2\n      add\n      0x40\n      mstore\n      dup1\n      swap3\n      swap2\n      swap1\n      dup2\n      dup2\n      mstore\n      0x20\n      add\n      dup3\n      dup1\n      sload\n      tag_67\n      swap1\n      tag_44\n      jump\t// in\n    tag_67:\n      dup1\n      iszero\n      tag_68\n      jumpi\n      dup1\n      0x1f\n      lt\n      tag_69\n      jumpi\n      0x0100\n      dup1\n      dup4\n      sload\n      div\n      mul\n      dup4\n      mstore\n      swap2\n      0x20\n      add\n      swap2\n      jump(tag_68)\n    tag_69:\n      dup3\n      add\n      swap2\n      swap1\n      0x00\n      mstore\n      keccak256(0x00, 0x20)\n      swap1\n    tag_70:\n      dup2\n      sload\n      dup2\n      mstore\n      swap1\n      0x01\n      add\n      swap1\n      0x20\n      add\n      dup1\n      dup4\n      gt\n      tag_70\n      jumpi\n      dup3\n      swap1\n      sub\n      0x1f\n      and\n      dup3\n      add\n      swap2\n    tag_68:\n      pop\n      pop\n      pop\n      pop\n      pop\n      dup2\n      mstore\n      0x20\n      add\n      0x01\n      dup3\n      add\n      0x00\n      swap1\n      sload\n      swap1\n      0x0100\n      exp\n      swap1\n      div\n      0xffffffffffffffffffffffffffffffffffffffff\n      and\n      0xffffffffffffffffffffffffffffffffffffffff\n      and\n      0xffffffffffffffffffffffffffffffffffffffff\n      and\n      dup2\n      mstore\n      pop\n      pop\n      swap1\n      pop\n        /* \"hell0.sol\":1506:1527  uint256 contactNumber */\n      0x00\n        /* \"hell0.sol\":1530:1563  findContactNumber(contactAddress) */\n      tag_71\n        /* \"hell0.sol\":1548:1562  contactAddress */\n      dup6\n        /* \"hell0.sol\":1530:1547  findContactNumber */\n      tag_72\n        /* \"hell0.sol\":1530:1563  findContactNumber(contactAddress) */\n      jump\t// in\n    tag_71:\n        /* \"hell0.sol\":1506:1563  uint256 contactNumber = findContactNumber(contactAddress) */\n      swap1\n      pop\n        /* \"hell0.sol\":1582:1589  contact */\n      dup2\n        /* \"hell0.sol\":1582:1594  contact.name */\n      0x00\n      add\n      mload\n        /* \"hell0.sol\":1596:1609  contactNumber */\n      dup2\n        /* \"hell0.sol\":1574:1610  return (contact.name, contactNumber) */\n      swap4\n      pop\n      swap4\n      pop\n      pop\n      pop\n        /* \"hell0.sol\":1326:1618  function getContactByAddress(address contactAddress) external view returns (string memory, uint256) {\r... */\n      swap2\n      pop\n      swap2\n      jump\t// out\n        /* \"hell0.sol\":265:316  mapping(uint256 => address) public contactsByNumber */\n    tag_37:\n      mstore(0x20, 0x02)\n      dup1\n      0x00\n      mstore\n      keccak256(0x00, 0x40)\n      0x00\n      swap2\n      pop\n      sload\n      swap1\n      0x0100\n      exp\n      swap1\n      div\n      0xffffffffffffffffffffffffffffffffffffffff\n      and\n      dup2\n      jump\t// out\n        /* \"hell0.sol\":323:350  uint256 public contactCount */\n    tag_40:\n      sload(0x03)\n      dup2\n      jump\t// out\n        /* \"hell0.sol\":1626:1920  function findContactNumber(address contactAddress) internal view returns (uint256) {\r... */\n    tag_72:\n        /* \"hell0.sol\":1700:1707  uint256 */\n      0x00\n        /* \"hell0.sol\":1725:1734  uint256 i */\n      dup1\n        /* \"hell0.sol\":1737:1738  0 */\n      0x00\n        /* \"hell0.sol\":1725:1738  uint256 i = 0 */\n      swap1\n      pop\n        /* \"hell0.sol\":1720:1875  for (uint256 i = 0; i < contactCount; i++) {\r... */\n    tag_74:\n        /* \"hell0.sol\":1744:1756  contactCount */\n      sload(0x03)\n        /* \"hell0.sol\":1740:1741  i */\n      dup2\n        /* \"hell0.sol\":1740:1756  i < contactCount */\n      lt\n        /* \"hell0.sol\":1720:1875  for (uint256 i = 0; i < contactCount; i++) {\r... */\n      iszero\n      tag_75\n      jumpi\n        /* \"hell0.sol\":1805:1819  contactAddress */\n      dup3\n        /* \"hell0.sol\":1782:1819  contactsByNumber[i] == contactAddress */\n      0xffffffffffffffffffffffffffffffffffffffff\n      and\n        /* \"hell0.sol\":1782:1798  contactsByNumber */\n      0x02\n        /* \"hell0.sol\":1782:1801  contactsByNumber[i] */\n      0x00\n        /* \"hell0.sol\":1799:1800  i */\n      dup4\n        /* \"hell0.sol\":1782:1801  contactsByNumber[i] */\n      dup2\n      mstore\n      0x20\n      add\n      swap1\n      dup2\n      mstore\n      0x20\n      add\n      0x00\n      keccak256\n      0x00\n      swap1\n      sload\n      swap1\n      0x0100\n      exp\n      swap1\n      div\n      0xffffffffffffffffffffffffffffffffffffffff\n      and\n        /* \"hell0.sol\":1782:1819  contactsByNumber[i] == contactAddress */\n      0xffffffffffffffffffffffffffffffffffffffff\n      and\n      eq\n        /* \"hell0.sol\":1778:1864  if (contactsByNumber[i] == contactAddress) {\r... */\n      iszero\n      tag_77\n      jumpi\n        /* \"hell0.sol\":1847:1848  i */\n      dup1\n        /* \"hell0.sol\":1840:1848  return i */\n      swap2\n      pop\n      pop\n      jump(tag_73)\n        /* \"hell0.sol\":1778:1864  if (contactsByNumber[i] == contactAddress) {\r... */\n    tag_77:\n        /* \"hell0.sol\":1758:1761  i++ */\n      dup1\n      dup1\n      tag_78\n      swap1\n      tag_63\n      jump\t// in\n    tag_78:\n      swap2\n      pop\n      pop\n        /* \"hell0.sol\":1720:1875  for (uint256 i = 0; i < contactCount; i++) {\r... */\n      jump(tag_74)\n    tag_75:\n      pop\n        /* \"hell0.sol\":1885:1912  revert(\"Contact not found\") */\n      mload(0x40)\n      0x08c379a000000000000000000000000000000000000000000000000000000000\n      dup2\n      mstore\n      0x04\n      add\n      tag_79\n      swap1\n      tag_80\n      jump\t// in\n    tag_79:\n      mload(0x40)\n      dup1\n      swap2\n      sub\n      swap1\n      revert\n        /* \"hell0.sol\":1626:1920  function findContactNumber(address contactAddress) internal view returns (uint256) {\r... */\n    tag_73:\n      swap2\n      swap1\n      pop\n      jump\t// out\n    tag_61:\n      dup3\n      dup1\n      sload\n      tag_81\n      swap1\n      tag_44\n      jump\t// in\n    tag_81:\n      swap1\n      0x00\n      mstore\n      keccak256(0x00, 0x20)\n      swap1\n      0x1f\n      add\n      0x20\n      swap1\n      div\n      dup2\n      add\n      swap3\n      dup3\n      tag_83\n      jumpi\n      0x00\n      dup6\n      sstore\n      jump(tag_82)\n    tag_83:\n      dup3\n      0x1f\n      lt\n      tag_84\n      jumpi\n      dup1\n      mload\n      not(0xff)\n      and\n      dup4\n      dup1\n      add\n      or\n      dup6\n      sstore\n      jump(tag_82)\n    tag_84:\n      dup3\n      dup1\n      add\n      0x01\n      add\n      dup6\n      sstore\n      dup3\n      iszero\n      tag_82\n      jumpi\n      swap2\n      dup3\n      add\n    tag_85:\n      dup3\n      dup2\n      gt\n      iszero\n      tag_86\n      jumpi\n      dup3\n      mload\n      dup3\n      sstore\n      swap2\n      0x20\n      add\n      swap2\n      swap1\n      0x01\n      add\n      swap1\n      jump(tag_85)\n    tag_86:\n    tag_82:\n      pop\n      swap1\n      pop\n      tag_87\n      swap2\n      swap1\n      tag_88\n      jump\t// in\n    tag_87:\n      pop\n      swap1\n      jump\t// out\n    tag_88:\n    tag_89:\n      dup1\n      dup3\n      gt\n      iszero\n      tag_90\n      jumpi\n      0x00\n      dup2\n      0x00\n      swap1\n      sstore\n      pop\n      0x01\n      add\n      jump(tag_89)\n    tag_90:\n      pop\n      swap1\n      jump\t// out\n        /* \"#utility.yul\":7:351   */\n    tag_92:\n      0x00\n        /* \"#utility.yul\":110:175   */\n      tag_94\n        /* \"#utility.yul\":125:174   */\n      tag_95\n        /* \"#utility.yul\":167:173   */\n      dup5\n        /* \"#utility.yul\":125:174   */\n      tag_96\n      jump\t// in\n    tag_95:\n        /* \"#utility.yul\":110:175   */\n      tag_97\n      jump\t// in\n    tag_94:\n        /* \"#utility.yul\":101:175   */\n      swap1\n      pop\n        /* \"#utility.yul\":198:204   */\n      dup3\n        /* \"#utility.yul\":191:196   */\n      dup2\n        /* \"#utility.yul\":184:205   */\n      mstore\n        /* \"#utility.yul\":236:240   */\n      0x20\n        /* \"#utility.yul\":229:234   */\n      dup2\n        /* \"#utility.yul\":225:241   */\n      add\n        /* \"#utility.yul\":274:277   */\n      dup5\n        /* \"#utility.yul\":265:271   */\n      dup5\n        /* \"#utility.yul\":260:263   */\n      dup5\n        /* \"#utility.yul\":256:272   */\n      add\n        /* \"#utility.yul\":253:278   */\n      gt\n        /* \"#utility.yul\":250:252   */\n      iszero\n      tag_98\n      jumpi\n        /* \"#utility.yul\":291:292   */\n      0x00\n        /* \"#utility.yul\":288:289   */\n      dup1\n        /* \"#utility.yul\":281:293   */\n      revert\n        /* \"#utility.yul\":250:252   */\n    tag_98:\n        /* \"#utility.yul\":304:345   */\n      tag_99\n        /* \"#utility.yul\":338:344   */\n      dup5\n        /* \"#utility.yul\":333:336   */\n      dup3\n        /* \"#utility.yul\":328:331   */\n      dup6\n        /* \"#utility.yul\":304:345   */\n      tag_100\n      jump\t// in\n    tag_99:\n        /* \"#utility.yul\":91:351   */\n      pop\n      swap4\n      swap3\n      pop\n      pop\n      pop\n      jump\t// out\n        /* \"#utility.yul\":357:496   */\n    tag_101:\n      0x00\n        /* \"#utility.yul\":441:447   */\n      dup2\n        /* \"#utility.yul\":428:448   */\n      calldataload\n        /* \"#utility.yul\":419:448   */\n      swap1\n      pop\n        /* \"#utility.yul\":457:490   */\n      tag_103\n        /* \"#utility.yul\":484:489   */\n      dup2\n        /* \"#utility.yul\":457:490   */\n      tag_104\n      jump\t// in\n    tag_103:\n        /* \"#utility.yul\":409:496   */\n      swap3\n      swap2\n      pop\n      pop\n      jump\t// out\n        /* \"#utility.yul\":516:789   */\n    tag_105:\n      0x00\n        /* \"#utility.yul\":621:624   */\n      dup3\n        /* \"#utility.yul\":614:618   */\n      0x1f\n        /* \"#utility.yul\":606:612   */\n      dup4\n        /* \"#utility.yul\":602:619   */\n      add\n        /* \"#utility.yul\":598:625   */\n      slt\n        /* \"#utility.yul\":588:590   */\n      tag_107\n      jumpi\n        /* \"#utility.yul\":639:640   */\n      0x00\n        /* \"#utility.yul\":636:637   */\n      dup1\n        /* \"#utility.yul\":629:641   */\n      revert\n        /* \"#utility.yul\":588:590   */\n    tag_107:\n        /* \"#utility.yul\":679:685   */\n      dup2\n        /* \"#utility.yul\":666:686   */\n      calldataload\n        /* \"#utility.yul\":704:783   */\n      tag_108\n        /* \"#utility.yul\":779:782   */\n      dup5\n        /* \"#utility.yul\":771:777   */\n      dup3\n        /* \"#utility.yul\":764:768   */\n      0x20\n        /* \"#utility.yul\":756:762   */\n      dup7\n        /* \"#utility.yul\":752:769   */\n      add\n        /* \"#utility.yul\":704:783   */\n      tag_92\n      jump\t// in\n    tag_108:\n        /* \"#utility.yul\":695:783   */\n      swap2\n      pop\n        /* \"#utility.yul\":578:789   */\n      pop\n      swap3\n      swap2\n      pop\n      pop\n      jump\t// out\n        /* \"#utility.yul\":795:934   */\n    tag_109:\n      0x00\n        /* \"#utility.yul\":879:885   */\n      dup2\n        /* \"#utility.yul\":866:886   */\n      calldataload\n        /* \"#utility.yul\":857:886   */\n      swap1\n      pop\n        /* \"#utility.yul\":895:928   */\n      tag_111\n        /* \"#utility.yul\":922:927   */\n      dup2\n        /* \"#utility.yul\":895:928   */\n      tag_112\n      jump\t// in\n    tag_111:\n        /* \"#utility.yul\":847:934   */\n      swap3\n      swap2\n      pop\n      pop\n      jump\t// out\n        /* \"#utility.yul\":940:1202   */\n    tag_13:\n      0x00\n        /* \"#utility.yul\":1048:1050   */\n      0x20\n        /* \"#utility.yul\":1036:1045   */\n      dup3\n        /* \"#utility.yul\":1027:1034   */\n      dup5\n        /* \"#utility.yul\":1023:1046   */\n      sub\n        /* \"#utility.yul\":1019:1051   */\n      slt\n        /* \"#utility.yul\":1016:1018   */\n      iszero\n      tag_114\n      jumpi\n        /* \"#utility.yul\":1064:1065   */\n      0x00\n        /* \"#utility.yul\":1061:1062   */\n      dup1\n        /* \"#utility.yul\":1054:1066   */\n      revert\n        /* \"#utility.yul\":1016:1018   */\n    tag_114:\n        /* \"#utility.yul\":1107:1108   */\n      0x00\n        /* \"#utility.yul\":1132:1185   */\n      tag_115\n        /* \"#utility.yul\":1177:1184   */\n      dup5\n        /* \"#utility.yul\":1168:1174   */\n      dup3\n        /* \"#utility.yul\":1157:1166   */\n      dup6\n        /* \"#utility.yul\":1153:1175   */\n      add\n        /* \"#utility.yul\":1132:1185   */\n      tag_101\n      jump\t// in\n    tag_115:\n        /* \"#utility.yul\":1122:1185   */\n      swap2\n      pop\n        /* \"#utility.yul\":1078:1195   */\n      pop\n        /* \"#utility.yul\":1006:1202   */\n      swap3\n      swap2\n      pop\n      pop\n      jump\t// out\n        /* \"#utility.yul\":1208:1728   */\n    tag_24:\n      0x00\n      dup1\n        /* \"#utility.yul\":1343:1345   */\n      0x40\n        /* \"#utility.yul\":1331:1340   */\n      dup4\n        /* \"#utility.yul\":1322:1329   */\n      dup6\n        /* \"#utility.yul\":1318:1341   */\n      sub\n        /* \"#utility.yul\":1314:1346   */\n      slt\n        /* \"#utility.yul\":1311:1313   */\n      iszero\n      tag_117\n      jumpi\n        /* \"#utility.yul\":1359:1360   */\n      0x00\n        /* \"#utility.yul\":1356:1357   */\n      dup1\n        /* \"#utility.yul\":1349:1361   */\n      revert\n        /* \"#utility.yul\":1311:1313   */\n    tag_117:\n        /* \"#utility.yul\":1430:1431   */\n      0x00\n        /* \"#utility.yul\":1419:1428   */\n      dup4\n        /* \"#utility.yul\":1415:1432   */\n      add\n        /* \"#utility.yul\":1402:1433   */\n      calldataload\n        /* \"#utility.yul\":1460:1478   */\n      0xffffffffffffffff\n        /* \"#utility.yul\":1452:1458   */\n      dup2\n        /* \"#utility.yul\":1449:1479   */\n      gt\n        /* \"#utility.yul\":1446:1448   */\n      iszero\n      tag_118\n      jumpi\n        /* \"#utility.yul\":1492:1493   */\n      0x00\n        /* \"#utility.yul\":1489:1490   */\n      dup1\n        /* \"#utility.yul\":1482:1494   */\n      revert\n        /* \"#utility.yul\":1446:1448   */\n    tag_118:\n        /* \"#utility.yul\":1520:1583   */\n      tag_119\n        /* \"#utility.yul\":1575:1582   */\n      dup6\n        /* \"#utility.yul\":1566:1572   */\n      dup3\n        /* \"#utility.yul\":1555:1564   */\n      dup7\n        /* \"#utility.yul\":1551:1573   */\n      add\n        /* \"#utility.yul\":1520:1583   */\n      tag_105\n      jump\t// in\n    tag_119:\n        /* \"#utility.yul\":1510:1583   */\n      swap3\n      pop\n        /* \"#utility.yul\":1373:1593   */\n      pop\n        /* \"#utility.yul\":1632:1634   */\n      0x20\n        /* \"#utility.yul\":1658:1711   */\n      tag_120\n        /* \"#utility.yul\":1703:1710   */\n      dup6\n        /* \"#utility.yul\":1694:1700   */\n      dup3\n        /* \"#utility.yul\":1683:1692   */\n      dup7\n        /* \"#utility.yul\":1679:1701   */\n      add\n        /* \"#utility.yul\":1658:1711   */\n      tag_101\n      jump\t// in\n    tag_120:\n        /* \"#utility.yul\":1648:1711   */\n      swap2\n      pop\n        /* \"#utility.yul\":1603:1721   */\n      pop\n        /* \"#utility.yul\":1301:1728   */\n      swap3\n      pop\n      swap3\n      swap1\n      pop\n      jump\t// out\n        /* \"#utility.yul\":1734:1996   */\n    tag_19:\n      0x00\n        /* \"#utility.yul\":1842:1844   */\n      0x20\n        /* \"#utility.yul\":1830:1839   */\n      dup3\n        /* \"#utility.yul\":1821:1828   */\n      dup5\n        /* \"#utility.yul\":1817:1840   */\n      sub\n        /* \"#utility.yul\":1813:1845   */\n      slt\n        /* \"#utility.yul\":1810:1812   */\n      iszero\n      tag_122\n      jumpi\n        /* \"#utility.yul\":1858:1859   */\n      0x00\n        /* \"#utility.yul\":1855:1856   */\n      dup1\n        /* \"#utility.yul\":1848:1860   */\n      revert\n        /* \"#utility.yul\":1810:1812   */\n    tag_122:\n        /* \"#utility.yul\":1901:1902   */\n      0x00\n        /* \"#utility.yul\":1926:1979   */\n      tag_123\n        /* \"#utility.yul\":1971:1978   */\n      dup5\n        /* \"#utility.yul\":1962:1968   */\n      dup3\n        /* \"#utility.yul\":1951:1960   */\n      dup6\n        /* \"#utility.yul\":1947:1969   */\n      add\n        /* \"#utility.yul\":1926:1979   */\n      tag_109\n      jump\t// in\n    tag_123:\n        /* \"#utility.yul\":1916:1979   */\n      swap2\n      pop\n        /* \"#utility.yul\":1872:1989   */\n      pop\n        /* \"#utility.yul\":1800:1996   */\n      swap3\n      swap2\n      pop\n      pop\n      jump\t// out\n        /* \"#utility.yul\":2002:2120   */\n    tag_124:\n        /* \"#utility.yul\":2089:2113   */\n      tag_126\n        /* \"#utility.yul\":2107:2112   */\n      dup2\n        /* \"#utility.yul\":2089:2113   */\n      tag_127\n      jump\t// in\n    tag_126:\n        /* \"#utility.yul\":2084:2087   */\n      dup3\n        /* \"#utility.yul\":2077:2114   */\n      mstore\n        /* \"#utility.yul\":2067:2120   */\n      pop\n      pop\n      jump\t// out\n        /* \"#utility.yul\":2126:2490   */\n    tag_128:\n      0x00\n        /* \"#utility.yul\":2242:2281   */\n      tag_130\n        /* \"#utility.yul\":2275:2280   */\n      dup3\n        /* \"#utility.yul\":2242:2281   */\n      tag_131\n      jump\t// in\n    tag_130:\n        /* \"#utility.yul\":2297:2368   */\n      tag_132\n        /* \"#utility.yul\":2361:2367   */\n      dup2\n        /* \"#utility.yul\":2356:2359   */\n      dup6\n        /* \"#utility.yul\":2297:2368   */\n      tag_133\n      jump\t// in\n    tag_132:\n        /* \"#utility.yul\":2290:2368   */\n      swap4\n      pop\n        /* \"#utility.yul\":2377:2429   */\n      tag_134\n        /* \"#utility.yul\":2422:2428   */\n      dup2\n        /* \"#utility.yul\":2417:2420   */\n      dup6\n        /* \"#utility.yul\":2410:2414   */\n      0x20\n        /* \"#utility.yul\":2403:2408   */\n      dup7\n        /* \"#utility.yul\":2399:2415   */\n      add\n        /* \"#utility.yul\":2377:2429   */\n      tag_135\n      jump\t// in\n    tag_134:\n        /* \"#utility.yul\":2454:2483   */\n      tag_136\n        /* \"#utility.yul\":2476:2482   */\n      dup2\n        /* \"#utility.yul\":2454:2483   */\n      tag_137\n      jump\t// in\n    tag_136:\n        /* \"#utility.yul\":2449:2452   */\n      dup5\n        /* \"#utility.yul\":2445:2484   */\n      add\n        /* \"#utility.yul\":2438:2484   */\n      swap2\n      pop\n        /* \"#utility.yul\":2218:2490   */\n      pop\n      swap3\n      swap2\n      pop\n      pop\n      jump\t// out\n        /* \"#utility.yul\":2496:2865   */\n    tag_138:\n      0x00\n        /* \"#utility.yul\":2659:2726   */\n      tag_140\n        /* \"#utility.yul\":2723:2725   */\n      0x25\n        /* \"#utility.yul\":2718:2721   */\n      dup4\n        /* \"#utility.yul\":2659:2726   */\n      tag_133\n      jump\t// in\n    tag_140:\n        /* \"#utility.yul\":2652:2726   */\n      swap2\n      pop\n        /* \"#utility.yul\":2756:2790   */\n      0x4f6e6c7920746865206f776e65722063616e2063616c6c20746869732066756e\n        /* \"#utility.yul\":2752:2753   */\n      0x00\n        /* \"#utility.yul\":2747:2750   */\n      dup4\n        /* \"#utility.yul\":2743:2754   */\n      add\n        /* \"#utility.yul\":2736:2791   */\n      mstore\n        /* \"#utility.yul\":2822:2829   */\n      0x6374696f6e000000000000000000000000000000000000000000000000000000\n        /* \"#utility.yul\":2817:2819   */\n      0x20\n        /* \"#utility.yul\":2812:2815   */\n      dup4\n        /* \"#utility.yul\":2808:2820   */\n      add\n        /* \"#utility.yul\":2801:2830   */\n      mstore\n        /* \"#utility.yul\":2856:2858   */\n      0x40\n        /* \"#utility.yul\":2851:2854   */\n      dup3\n        /* \"#utility.yul\":2847:2859   */\n      add\n        /* \"#utility.yul\":2840:2859   */\n      swap1\n      pop\n        /* \"#utility.yul\":2642:2865   */\n      swap2\n      swap1\n      pop\n      jump\t// out\n        /* \"#utility.yul\":2871:3186   */\n    tag_141:\n      0x00\n        /* \"#utility.yul\":3034:3101   */\n      tag_143\n        /* \"#utility.yul\":3098:3100   */\n      0x11\n        /* \"#utility.yul\":3093:3096   */\n      dup4\n        /* \"#utility.yul\":3034:3101   */\n      tag_133\n      jump\t// in\n    tag_143:\n        /* \"#utility.yul\":3027:3101   */\n      swap2\n      pop\n        /* \"#utility.yul\":3131:3150   */\n      0x436f6e74616374206e6f7420666f756e64000000000000000000000000000000\n        /* \"#utility.yul\":3127:3128   */\n      0x00\n        /* \"#utility.yul\":3122:3125   */\n      dup4\n        /* \"#utility.yul\":3118:3129   */\n      add\n        /* \"#utility.yul\":3111:3151   */\n      mstore\n        /* \"#utility.yul\":3177:3179   */\n      0x20\n        /* \"#utility.yul\":3172:3175   */\n      dup3\n        /* \"#utility.yul\":3168:3180   */\n      add\n        /* \"#utility.yul\":3161:3180   */\n      swap1\n      pop\n        /* \"#utility.yul\":3017:3186   */\n      swap2\n      swap1\n      pop\n      jump\t// out\n        /* \"#utility.yul\":3192:3310   */\n    tag_144:\n        /* \"#utility.yul\":3279:3303   */\n      tag_146\n        /* \"#utility.yul\":3297:3302   */\n      dup2\n        /* \"#utility.yul\":3279:3303   */\n      tag_147\n      jump\t// in\n    tag_146:\n        /* \"#utility.yul\":3274:3277   */\n      dup3\n        /* \"#utility.yul\":3267:3304   */\n      mstore\n        /* \"#utility.yul\":3257:3310   */\n      pop\n      pop\n      jump\t// out\n        /* \"#utility.yul\":3316:3538   */\n    tag_29:\n      0x00\n        /* \"#utility.yul\":3447:3449   */\n      0x20\n        /* \"#utility.yul\":3436:3445   */\n      dup3\n        /* \"#utility.yul\":3432:3450   */\n      add\n        /* \"#utility.yul\":3424:3450   */\n      swap1\n      pop\n        /* \"#utility.yul\":3460:3531   */\n      tag_149\n        /* \"#utility.yul\":3528:3529   */\n      0x00\n        /* \"#utility.yul\":3517:3526   */\n      dup4\n        /* \"#utility.yul\":3513:3530   */\n      add\n        /* \"#utility.yul\":3504:3510   */\n      dup5\n        /* \"#utility.yul\":3460:3531   */\n      tag_124\n      jump\t// in\n    tag_149:\n        /* \"#utility.yul\":3414:3538   */\n      swap3\n      swap2\n      pop\n      pop\n      jump\t// out\n        /* \"#utility.yul\":3544:3967   */\n    tag_16:\n      0x00\n        /* \"#utility.yul\":3723:3725   */\n      0x40\n        /* \"#utility.yul\":3712:3721   */\n      dup3\n        /* \"#utility.yul\":3708:3726   */\n      add\n        /* \"#utility.yul\":3700:3726   */\n      swap1\n      pop\n        /* \"#utility.yul\":3772:3781   */\n      dup2\n        /* \"#utility.yul\":3766:3770   */\n      dup2\n        /* \"#utility.yul\":3762:3782   */\n      sub\n        /* \"#utility.yul\":3758:3759   */\n      0x00\n        /* \"#utility.yul\":3747:3756   */\n      dup4\n        /* \"#utility.yul\":3743:3760   */\n      add\n        /* \"#utility.yul\":3736:3783   */\n      mstore\n        /* \"#utility.yul\":3800:3878   */\n      tag_151\n        /* \"#utility.yul\":3873:3877   */\n      dup2\n        /* \"#utility.yul\":3864:3870   */\n      dup6\n        /* \"#utility.yul\":3800:3878   */\n      tag_128\n      jump\t// in\n    tag_151:\n        /* \"#utility.yul\":3792:3878   */\n      swap1\n      pop\n        /* \"#utility.yul\":3888:3960   */\n      tag_152\n        /* \"#utility.yul\":3956:3958   */\n      0x20\n        /* \"#utility.yul\":3945:3954   */\n      dup4\n        /* \"#utility.yul\":3941:3959   */\n      add\n        /* \"#utility.yul\":3932:3938   */\n      dup5\n        /* \"#utility.yul\":3888:3960   */\n      tag_124\n      jump\t// in\n    tag_152:\n        /* \"#utility.yul\":3690:3967   */\n      swap4\n      swap3\n      pop\n      pop\n      pop\n      jump\t// out\n        /* \"#utility.yul\":3973:4396   */\n    tag_34:\n      0x00\n        /* \"#utility.yul\":4152:4154   */\n      0x40\n        /* \"#utility.yul\":4141:4150   */\n      dup3\n        /* \"#utility.yul\":4137:4155   */\n      add\n        /* \"#utility.yul\":4129:4155   */\n      swap1\n      pop\n        /* \"#utility.yul\":4201:4210   */\n      dup2\n        /* \"#utility.yul\":4195:4199   */\n      dup2\n        /* \"#utility.yul\":4191:4211   */\n      sub\n        /* \"#utility.yul\":4187:4188   */\n      0x00\n        /* \"#utility.yul\":4176:4185   */\n      dup4\n        /* \"#utility.yul\":4172:4189   */\n      add\n        /* \"#utility.yul\":4165:4212   */\n      mstore\n        /* \"#utility.yul\":4229:4307   */\n      tag_154\n        /* \"#utility.yul\":4302:4306   */\n      dup2\n        /* \"#utility.yul\":4293:4299   */\n      dup6\n        /* \"#utility.yul\":4229:4307   */\n      tag_128\n      jump\t// in\n    tag_154:\n        /* \"#utility.yul\":4221:4307   */\n      swap1\n      pop\n        /* \"#utility.yul\":4317:4389   */\n      tag_155\n        /* \"#utility.yul\":4385:4387   */\n      0x20\n        /* \"#utility.yul\":4374:4383   */\n      dup4\n        /* \"#utility.yul\":4370:4388   */\n      add\n        /* \"#utility.yul\":4361:4367   */\n      dup5\n        /* \"#utility.yul\":4317:4389   */\n      tag_144\n      jump\t// in\n    tag_155:\n        /* \"#utility.yul\":4119:4396   */\n      swap4\n      swap3\n      pop\n      pop\n      pop\n      jump\t// out\n        /* \"#utility.yul\":4402:4821   */\n    tag_58:\n      0x00\n        /* \"#utility.yul\":4606:4608   */\n      0x20\n        /* \"#utility.yul\":4595:4604   */\n      dup3\n        /* \"#utility.yul\":4591:4609   */\n      add\n        /* \"#utility.yul\":4583:4609   */\n      swap1\n      pop\n        /* \"#utility.yul\":4655:4664   */\n      dup2\n        /* \"#utility.yul\":4649:4653   */\n      dup2\n        /* \"#utility.yul\":4645:4665   */\n      sub\n        /* \"#utility.yul\":4641:4642   */\n      0x00\n        /* \"#utility.yul\":4630:4639   */\n      dup4\n        /* \"#utility.yul\":4626:4643   */\n      add\n        /* \"#utility.yul\":4619:4666   */\n      mstore\n        /* \"#utility.yul\":4683:4814   */\n      tag_157\n        /* \"#utility.yul\":4809:4813   */\n      dup2\n        /* \"#utility.yul\":4683:4814   */\n      tag_138\n      jump\t// in\n    tag_157:\n        /* \"#utility.yul\":4675:4814   */\n      swap1\n      pop\n        /* \"#utility.yul\":4573:4821   */\n      swap2\n      swap1\n      pop\n      jump\t// out\n        /* \"#utility.yul\":4827:5246   */\n    tag_80:\n      0x00\n        /* \"#utility.yul\":5031:5033   */\n      0x20\n        /* \"#utility.yul\":5020:5029   */\n      dup3\n        /* \"#utility.yul\":5016:5034   */\n      add\n        /* \"#utility.yul\":5008:5034   */\n      swap1\n      pop\n        /* \"#utility.yul\":5080:5089   */\n      dup2\n        /* \"#utility.yul\":5074:5078   */\n      dup2\n        /* \"#utility.yul\":5070:5090   */\n      sub\n        /* \"#utility.yul\":5066:5067   */\n      0x00\n        /* \"#utility.yul\":5055:5064   */\n      dup4\n        /* \"#utility.yul\":5051:5068   */\n      add\n        /* \"#utility.yul\":5044:5091   */\n      mstore\n        /* \"#utility.yul\":5108:5239   */\n      tag_159\n        /* \"#utility.yul\":5234:5238   */\n      dup2\n        /* \"#utility.yul\":5108:5239   */\n      tag_141\n      jump\t// in\n    tag_159:\n        /* \"#utility.yul\":5100:5239   */\n      swap1\n      pop\n        /* \"#utility.yul\":4998:5246   */\n      swap2\n      swap1\n      pop\n      jump\t// out\n        /* \"#utility.yul\":5252:5474   */\n    tag_42:\n      0x00\n        /* \"#utility.yul\":5383:5385   */\n      0x20\n        /* \"#utility.yul\":5372:5381   */\n      dup3\n        /* \"#utility.yul\":5368:5386   */\n      add\n        /* \"#utility.yul\":5360:5386   */\n      swap1\n      pop\n        /* \"#utility.yul\":5396:5467   */\n      tag_161\n        /* \"#utility.yul\":5464:5465   */\n      0x00\n        /* \"#utility.yul\":5453:5462   */\n      dup4\n        /* \"#utility.yul\":5449:5466   */\n      add\n        /* \"#utility.yul\":5440:5446   */\n      dup5\n        /* \"#utility.yul\":5396:5467   */\n      tag_144\n      jump\t// in\n    tag_161:\n        /* \"#utility.yul\":5350:5474   */\n      swap3\n      swap2\n      pop\n      pop\n      jump\t// out\n        /* \"#utility.yul\":5480:5763   */\n    tag_97:\n      0x00\n        /* \"#utility.yul\":5546:5548   */\n      0x40\n        /* \"#utility.yul\":5540:5549   */\n      mload\n        /* \"#utility.yul\":5530:5549   */\n      swap1\n      pop\n        /* \"#utility.yul\":5588:5592   */\n      dup2\n        /* \"#utility.yul\":5580:5586   */\n      dup2\n        /* \"#utility.yul\":5576:5593   */\n      add\n        /* \"#utility.yul\":5695:5701   */\n      dup2\n        /* \"#utility.yul\":5683:5693   */\n      dup2\n        /* \"#utility.yul\":5680:5702   */\n      lt\n        /* \"#utility.yul\":5659:5677   */\n      0xffffffffffffffff\n        /* \"#utility.yul\":5647:5657   */\n      dup3\n        /* \"#utility.yul\":5644:5678   */\n      gt\n        /* \"#utility.yul\":5641:5703   */\n      or\n        /* \"#utility.yul\":5638:5640   */\n      iszero\n      tag_163\n      jumpi\n        /* \"#utility.yul\":5706:5724   */\n      tag_164\n      tag_165\n      jump\t// in\n    tag_164:\n        /* \"#utility.yul\":5638:5640   */\n    tag_163:\n        /* \"#utility.yul\":5746:5756   */\n      dup1\n        /* \"#utility.yul\":5742:5744   */\n      0x40\n        /* \"#utility.yul\":5735:5757   */\n      mstore\n        /* \"#utility.yul\":5520:5763   */\n      pop\n      swap2\n      swap1\n      pop\n      jump\t// out\n        /* \"#utility.yul\":5769:6101   */\n    tag_96:\n      0x00\n        /* \"#utility.yul\":5921:5939   */\n      0xffffffffffffffff\n        /* \"#utility.yul\":5913:5919   */\n      dup3\n        /* \"#utility.yul\":5910:5940   */\n      gt\n        /* \"#utility.yul\":5907:5909   */\n      iszero\n      tag_167\n      jumpi\n        /* \"#utility.yul\":5943:5961   */\n      tag_168\n      tag_165\n      jump\t// in\n    tag_168:\n        /* \"#utility.yul\":5907:5909   */\n    tag_167:\n        /* \"#utility.yul\":6028:6032   */\n      0x1f\n        /* \"#utility.yul\":6024:6033   */\n      not\n        /* \"#utility.yul\":6017:6021   */\n      0x1f\n        /* \"#utility.yul\":6009:6015   */\n      dup4\n        /* \"#utility.yul\":6005:6022   */\n      add\n        /* \"#utility.yul\":6001:6034   */\n      and\n        /* \"#utility.yul\":5993:6034   */\n      swap1\n      pop\n        /* \"#utility.yul\":6089:6093   */\n      0x20\n        /* \"#utility.yul\":6083:6087   */\n      dup2\n        /* \"#utility.yul\":6079:6094   */\n      add\n        /* \"#utility.yul\":6071:6094   */\n      swap1\n      pop\n        /* \"#utility.yul\":5836:6101   */\n      swap2\n      swap1\n      pop\n      jump\t// out\n        /* \"#utility.yul\":6107:6206   */\n    tag_131:\n      0x00\n        /* \"#utility.yul\":6193:6198   */\n      dup2\n        /* \"#utility.yul\":6187:6199   */\n      mload\n        /* \"#utility.yul\":6177:6199   */\n      swap1\n      pop\n        /* \"#utility.yul\":6166:6206   */\n      swap2\n      swap1\n      pop\n      jump\t// out\n        /* \"#utility.yul\":6212:6381   */\n    tag_133:\n      0x00\n        /* \"#utility.yul\":6330:6336   */\n      dup3\n        /* \"#utility.yul\":6325:6328   */\n      dup3\n        /* \"#utility.yul\":6318:6337   */\n      mstore\n        /* \"#utility.yul\":6370:6374   */\n      0x20\n        /* \"#utility.yul\":6365:6368   */\n      dup3\n        /* \"#utility.yul\":6361:6375   */\n      add\n        /* \"#utility.yul\":6346:6375   */\n      swap1\n      pop\n        /* \"#utility.yul\":6308:6381   */\n      swap3\n      swap2\n      pop\n      pop\n      jump\t// out\n        /* \"#utility.yul\":6387:6483   */\n    tag_127:\n      0x00\n        /* \"#utility.yul\":6453:6477   */\n      tag_172\n        /* \"#utility.yul\":6471:6476   */\n      dup3\n        /* \"#utility.yul\":6453:6477   */\n      tag_173\n      jump\t// in\n    tag_172:\n        /* \"#utility.yul\":6442:6477   */\n      swap1\n      pop\n        /* \"#utility.yul\":6432:6483   */\n      swap2\n      swap1\n      pop\n      jump\t// out\n        /* \"#utility.yul\":6489:6615   */\n    tag_173:\n      0x00\n        /* \"#utility.yul\":6566:6608   */\n      0xffffffffffffffffffffffffffffffffffffffff\n        /* \"#utility.yul\":6559:6564   */\n      dup3\n        /* \"#utility.yul\":6555:6609   */\n      and\n        /* \"#utility.yul\":6544:6609   */\n      swap1\n      pop\n        /* \"#utility.yul\":6534:6615   */\n      swap2\n      swap1\n      pop\n      jump\t// out\n        /* \"#utility.yul\":6621:6698   */\n    tag_147:\n      0x00\n        /* \"#utility.yul\":6687:6692   */\n      dup2\n        /* \"#utility.yul\":6676:6692   */\n      swap1\n      pop\n        /* \"#utility.yul\":6666:6698   */\n      swap2\n      swap1\n      pop\n      jump\t// out\n        /* \"#utility.yul\":6704:6858   */\n    tag_100:\n        /* \"#utility.yul\":6788:6794   */\n      dup3\n        /* \"#utility.yul\":6783:6786   */\n      dup2\n        /* \"#utility.yul\":6778:6781   */\n      dup4\n        /* \"#utility.yul\":6765:6795   */\n      calldatacopy\n        /* \"#utility.yul\":6850:6851   */\n      0x00\n        /* \"#utility.yul\":6841:6847   */\n      dup4\n        /* \"#utility.yul\":6836:6839   */\n      dup4\n        /* \"#utility.yul\":6832:6848   */\n      add\n        /* \"#utility.yul\":6825:6852   */\n      mstore\n        /* \"#utility.yul\":6755:6858   */\n      pop\n      pop\n      pop\n      jump\t// out\n        /* \"#utility.yul\":6864:7171   */\n    tag_135:\n        /* \"#utility.yul\":6932:6933   */\n      0x00\n        /* \"#utility.yul\":6942:7055   */\n    tag_178:\n        /* \"#utility.yul\":6956:6962   */\n      dup4\n        /* \"#utility.yul\":6953:6954   */\n      dup2\n        /* \"#utility.yul\":6950:6963   */\n      lt\n        /* \"#utility.yul\":6942:7055   */\n      iszero\n      tag_180\n      jumpi\n        /* \"#utility.yul\":7041:7042   */\n      dup1\n        /* \"#utility.yul\":7036:7039   */\n      dup3\n        /* \"#utility.yul\":7032:7043   */\n      add\n        /* \"#utility.yul\":7026:7044   */\n      mload\n        /* \"#utility.yul\":7022:7023   */\n      dup2\n        /* \"#utility.yul\":7017:7020   */\n      dup5\n        /* \"#utility.yul\":7013:7024   */\n      add\n        /* \"#utility.yul\":7006:7045   */\n      mstore\n        /* \"#utility.yul\":6978:6980   */\n      0x20\n        /* \"#utility.yul\":6975:6976   */\n      dup2\n        /* \"#utility.yul\":6971:6981   */\n      add\n        /* \"#utility.yul\":6966:6981   */\n      swap1\n      pop\n        /* \"#utility.yul\":6942:7055   */\n      jump(tag_178)\n    tag_180:\n        /* \"#utility.yul\":7073:7079   */\n      dup4\n        /* \"#utility.yul\":7070:7071   */\n      dup2\n        /* \"#utility.yul\":7067:7080   */\n      gt\n        /* \"#utility.yul\":7064:7066   */\n      iszero\n      tag_181\n      jumpi\n        /* \"#utility.yul\":7153:7154   */\n      0x00\n        /* \"#utility.yul\":7144:7150   */\n      dup5\n        /* \"#utility.yul\":7139:7142   */\n      dup5\n        /* \"#utility.yul\":7135:7151   */\n      add\n        /* \"#utility.yul\":7128:7155   */\n      mstore\n        /* \"#utility.yul\":7064:7066   */\n    tag_181:\n        /* \"#utility.yul\":6913:7171   */\n      pop\n      pop\n      pop\n      pop\n      jump\t// out\n        /* \"#utility.yul\":7177:7497   */\n    tag_44:\n      0x00\n        /* \"#utility.yul\":7258:7259   */\n      0x02\n        /* \"#utility.yul\":7252:7256   */\n      dup3\n        /* \"#utility.yul\":7248:7260   */\n      div\n        /* \"#utility.yul\":7238:7260   */\n      swap1\n      pop\n        /* \"#utility.yul\":7305:7306   */\n      0x01\n        /* \"#utility.yul\":7299:7303   */\n      dup3\n        /* \"#utility.yul\":7295:7307   */\n      and\n        /* \"#utility.yul\":7326:7344   */\n      dup1\n        /* \"#utility.yul\":7316:7318   */\n      tag_183\n      jumpi\n        /* \"#utility.yul\":7382:7386   */\n      0x7f\n        /* \"#utility.yul\":7374:7380   */\n      dup3\n        /* \"#utility.yul\":7370:7387   */\n      and\n        /* \"#utility.yul\":7360:7387   */\n      swap2\n      pop\n        /* \"#utility.yul\":7316:7318   */\n    tag_183:\n        /* \"#utility.yul\":7444:7446   */\n      0x20\n        /* \"#utility.yul\":7436:7442   */\n      dup3\n        /* \"#utility.yul\":7433:7447   */\n      lt\n        /* \"#utility.yul\":7413:7431   */\n      dup2\n        /* \"#utility.yul\":7410:7448   */\n      eq\n        /* \"#utility.yul\":7407:7409   */\n      iszero\n      tag_184\n      jumpi\n        /* \"#utility.yul\":7463:7481   */\n      tag_185\n      tag_186\n      jump\t// in\n    tag_185:\n        /* \"#utility.yul\":7407:7409   */\n    tag_184:\n        /* \"#utility.yul\":7228:7497   */\n      pop\n      swap2\n      swap1\n      pop\n      jump\t// out\n        /* \"#utility.yul\":7503:7736   */\n    tag_63:\n      0x00\n        /* \"#utility.yul\":7565:7589   */\n      tag_188\n        /* \"#utility.yul\":7583:7588   */\n      dup3\n        /* \"#utility.yul\":7565:7589   */\n      tag_147\n      jump\t// in\n    tag_188:\n        /* \"#utility.yul\":7556:7589   */\n      swap2\n      pop\n        /* \"#utility.yul\":7611:7677   */\n      0xffffffffffffffffffffffffffffffffffffffffffffffffffffffffffffffff\n        /* \"#utility.yul\":7604:7609   */\n      dup3\n        /* \"#utility.yul\":7601:7678   */\n      eq\n        /* \"#utility.yul\":7598:7600   */\n      iszero\n      tag_189\n      jumpi\n        /* \"#utility.yul\":7681:7699   */\n      tag_190\n      tag_191\n      jump\t// in\n    tag_190:\n        /* \"#utility.yul\":7598:7600   */\n    tag_189:\n        /* \"#utility.yul\":7728:7729   */\n      0x01\n        /* \"#utility.yul\":7721:7726   */\n      dup3\n        /* \"#utility.yul\":7717:7730   */\n      add\n        /* \"#utility.yul\":7710:7730   */\n      swap1\n      pop\n        /* \"#utility.yul\":7546:7736   */\n      swap2\n      swap1\n      pop\n      jump\t// out\n        /* \"#utility.yul\":7742:7922   */\n    tag_191:\n        /* \"#utility.yul\":7790:7867   */\n      0x4e487b7100000000000000000000000000000000000000000000000000000000\n        /* \"#utility.yul\":7787:7788   */\n      0x00\n        /* \"#utility.yul\":7780:7868   */\n      mstore\n        /* \"#utility.yul\":7887:7891   */\n      0x11\n        /* \"#utility.yul\":7884:7885   */\n      0x04\n        /* \"#utility.yul\":7877:7892   */\n      mstore\n        /* \"#utility.yul\":7911:7915   */\n      0x24\n        /* \"#utility.yul\":7908:7909   */\n      0x00\n        /* \"#utility.yul\":7901:7916   */\n      revert\n        /* \"#utility.yul\":7928:8108   */\n    tag_186:\n        /* \"#utility.yul\":7976:8053   */\n      0x4e487b7100000000000000000000000000000000000000000000000000000000\n        /* \"#utility.yul\":7973:7974   */\n      0x00\n        /* \"#utility.yul\":7966:8054   */\n      mstore\n        /* \"#utility.yul\":8073:8077   */\n      0x22\n        /* \"#utility.yul\":8070:8071   */\n      0x04\n        /* \"#utility.yul\":8063:8078   */\n      mstore\n        /* \"#utility.yul\":8097:8101   */\n      0x24\n        /* \"#utility.yul\":8094:8095   */\n      0x00\n        /* \"#utility.yul\":8087:8102   */\n      revert\n        /* \"#utility.yul\":8114:8294   */\n    tag_165:\n        /* \"#utility.yul\":8162:8239   */\n      0x4e487b7100000000000000000000000000000000000000000000000000000000\n        /* \"#utility.yul\":8159:8160   */\n      0x00\n        /* \"#utility.yul\":8152:8240   */\n      mstore\n        /* \"#utility.yul\":8259:8263   */\n      0x41\n        /* \"#utility.yul\":8256:8257   */\n      0x04\n        /* \"#utility.yul\":8249:8264   */\n      mstore\n        /* \"#utility.yul\":8283:8287   */\n      0x24\n        /* \"#utility.yul\":8280:8281   */\n      0x00\n        /* \"#utility.yul\":8273:8288   */\n      revert\n        /* \"#utility.yul\":8300:8402   */\n    tag_137:\n      0x00\n        /* \"#utility.yul\":8392:8394   */\n      0x1f\n        /* \"#utility.yul\":8388:8395   */\n      not\n        /* \"#utility.yul\":8383:8385   */\n      0x1f\n        /* \"#utility.yul\":8376:8381   */\n      dup4\n        /* \"#utility.yul\":8372:8386   */\n      add\n        /* \"#utility.yul\":8368:8396   */\n      and\n        /* \"#utility.yul\":8358:8396   */\n      swap1\n      pop\n        /* \"#utility.yul\":8348:8402   */\n      swap2\n      swap1\n      pop\n      jump\t// out\n        /* \"#utility.yul\":8408:8530   */\n    tag_104:\n        /* \"#utility.yul\":8481:8505   */\n      tag_197\n        /* \"#utility.yul\":8499:8504   */\n      dup2\n        /* \"#utility.yul\":8481:8505   */\n      tag_127\n      jump\t// in\n    tag_197:\n        /* \"#utility.yul\":8474:8479   */\n      dup2\n        /* \"#utility.yul\":8471:8506   */\n      eq\n        /* \"#utility.yul\":8461:8463   */\n      tag_198\n      jumpi\n        /* \"#utility.yul\":8520:8521   */\n      0x00\n        /* \"#utility.yul\":8517:8518   */\n      dup1\n        /* \"#utility.yul\":8510:8522   */\n      revert\n        /* \"#utility.yul\":8461:8463   */\n    tag_198:\n        /* \"#utility.yul\":8451:8530   */\n      pop\n      jump\t// out\n        /* \"#utility.yul\":8536:8658   */\n    tag_112:\n        /* \"#utility.yul\":8609:8633   */\n      tag_200\n        /* \"#utility.yul\":8627:8632   */\n      dup2\n        /* \"#utility.yul\":8609:8633   */\n      tag_147\n      jump\t// in\n    tag_200:\n        /* \"#utility.yul\":8602:8607   */\n      dup2\n        /* \"#utility.yul\":8599:8634   */\n      eq\n        /* \"#utility.yul\":8589:8591   */\n      tag_201\n      jumpi\n        /* \"#utility.yul\":8648:8649   */\n      0x00\n        /* \"#utility.yul\":8645:8646   */\n      dup1\n        /* \"#utility.yul\":8638:8650   */\n      revert\n        /* \"#utility.yul\":8589:8591   */\n    tag_201:\n        /* \"#utility.yul\":8579:8658   */\n      pop\n      jump\t// out\n\n    auxdata: 0xa2646970667358221220f2d5590d6be969afa18181359f681a0aa82d5e2a4fa0e26c157d4e96547a505b64736f6c63430008000033\n}\n",
				"bytecode": {
					"linkReferences": {},
					"object": "608060405234801561001057600080fd5b50336000806101000a81548173ffffffffffffffffffffffffffffffffffffffff021916908373ffffffffffffffffffffffffffffffffffffffff160217905550610e75806100606000396000f3fe608060405234801561001057600080fd5b506004361061007c5760003560e01c80638da5cb5b1161005b5780638da5cb5b146100ff578063a7ca96151461011d578063df3c26311461014e578063f0e5b0e01461017e5761007c565b80629dcb10146100815780636f24b093146100b2578063708adcd5146100e3575b600080fd5b61009b60048036038101906100969190610984565b61019c565b6040516100a9929190610b42565b60405180910390f35b6100cc60048036038101906100c79190610a01565b610268565b6040516100da929190610b42565b60405180910390f35b6100fd60048036038101906100f891906109ad565b6103ee565b005b6101076105c5565b6040516101149190610b27565b60405180910390f35b61013760048036038101906101329190610984565b6105e9565b604051610145929190610b72565b60405180910390f35b61016860048036038101906101639190610a01565b610740565b6040516101759190610b27565b60405180910390f35b610186610773565b6040516101939190610be2565b60405180910390f35b60016020528060005260406000206000915090508060000180546101bf90610cf8565b80601f01602080910402602001604051908101604052809291908181526020018280546101eb90610cf8565b80156102385780601f1061020d57610100808354040283529160200191610238565b820191906000526020600020905b81548152906001019060200180831161021b57829003601f168201915b5050505050908060010160009054906101000a900473ffffffffffffffffffffffffffffffffffffffff16905082565b60606000806002600085815260200190815260200160002060009054906101000a900473ffffffffffffffffffffffffffffffffffffffff1690506000600160008373ffffffffffffffffffffffffffffffffffffffff1673ffffffffffffffffffffffffffffffffffffffff1681526020019081526020016000206040518060400160405290816000820180546102ff90610cf8565b80601f016020809104026020016040519081016040528092919081815260200182805461032b90610cf8565b80156103785780601f1061034d57610100808354040283529160200191610378565b820191906000526020600020905b81548152906001019060200180831161035b57829003601f168201915b505050505081526020016001820160009054906101000a900473ffffffffffffffffffffffffffffffffffffffff1673ffffffffffffffffffffffffffffffffffffffff1673ffffffffffffffffffffffffffffffffffffffff1681525050905080600001518160200151935093505050915091565b60008054906101000a900473ffffffffffffffffffffffffffffffffffffffff1673ffffffffffffffffffffffffffffffffffffffff163373ffffffffffffffffffffffffffffffffffffffff161461047c576040517f08c379a000000000000000000000000000000000000000000000000000000000815260040161047390610ba2565b60405180910390fd5b6000600160008373ffffffffffffffffffffffffffffffffffffffff1673ffffffffffffffffffffffffffffffffffffffff1681526020019081526020016000209050828160000190805190602001906104d792919061084f565b50818160010160006101000a81548173ffffffffffffffffffffffffffffffffffffffff021916908373ffffffffffffffffffffffffffffffffffffffff1602179055508160026000600354815260200190815260200160002060006101000a81548173ffffffffffffffffffffffffffffffffffffffff021916908373ffffffffffffffffffffffffffffffffffffffff1602179055506003600081548092919061058290610d2a565b91905055507f41f0f9636a4b31a3645b61eccf358f50026da9fb737ee19926247e1725c4b2c983836040516105b8929190610b42565b60405180910390a1505050565b60008054906101000a900473ffffffffffffffffffffffffffffffffffffffff1681565b6060600080600160008573ffffffffffffffffffffffffffffffffffffffff1673ffffffffffffffffffffffffffffffffffffffff16815260200190815260200160002060405180604001604052908160008201805461064890610cf8565b80601f016020809104026020016040519081016040528092919081815260200182805461067490610cf8565b80156106c15780601f10610696576101008083540402835291602001916106c1565b820191906000526020600020905b8154815290600101906020018083116106a457829003601f168201915b505050505081526020016001820160009054906101000a900473ffffffffffffffffffffffffffffffffffffffff1673ffffffffffffffffffffffffffffffffffffffff1673ffffffffffffffffffffffffffffffffffffffff16815250509050600061072d85610779565b9050816000015181935093505050915091565b60026020528060005260406000206000915054906101000a900473ffffffffffffffffffffffffffffffffffffffff1681565b60035481565b600080600090505b60035481101561080e578273ffffffffffffffffffffffffffffffffffffffff166002600083815260200190815260200160002060009054906101000a900473ffffffffffffffffffffffffffffffffffffffff1673ffffffffffffffffffffffffffffffffffffffff1614156107fb578091505061084a565b808061080690610d2a565b915050610781565b506040517f08c379a000000000000000000000000000000000000000000000000000000000815260040161084190610bc2565b60405180910390fd5b919050565b82805461085b90610cf8565b90600052602060002090601f01602090048101928261087d57600085556108c4565b82601f1061089657805160ff19168380011785556108c4565b828001600101855582156108c4579182015b828111156108c35782518255916020019190600101906108a8565b5b5090506108d191906108d5565b5090565b5b808211156108ee5760008160009055506001016108d6565b5090565b600061090561090084610c2e565b610bfd565b90508281526020810184848401111561091d57600080fd5b610928848285610cb6565b509392505050565b60008135905061093f81610e11565b92915050565b600082601f83011261095657600080fd5b81356109668482602086016108f2565b91505092915050565b60008135905061097e81610e28565b92915050565b60006020828403121561099657600080fd5b60006109a484828501610930565b91505092915050565b600080604083850312156109c057600080fd5b600083013567ffffffffffffffff8111156109da57600080fd5b6109e685828601610945565b92505060206109f785828601610930565b9150509250929050565b600060208284031215610a1357600080fd5b6000610a218482850161096f565b91505092915050565b610a3381610c7a565b82525050565b6000610a4482610c5e565b610a4e8185610c69565b9350610a5e818560208601610cc5565b610a6781610e00565b840191505092915050565b6000610a7f602583610c69565b91507f4f6e6c7920746865206f776e65722063616e2063616c6c20746869732066756e60008301527f6374696f6e0000000000000000000000000000000000000000000000000000006020830152604082019050919050565b6000610ae5601183610c69565b91507f436f6e74616374206e6f7420666f756e640000000000000000000000000000006000830152602082019050919050565b610b2181610cac565b82525050565b6000602082019050610b3c6000830184610a2a565b92915050565b60006040820190508181036000830152610b5c8185610a39565b9050610b6b6020830184610a2a565b9392505050565b60006040820190508181036000830152610b8c8185610a39565b9050610b9b6020830184610b18565b9392505050565b60006020820190508181036000830152610bbb81610a72565b9050919050565b60006020820190508181036000830152610bdb81610ad8565b9050919050565b6000602082019050610bf76000830184610b18565b92915050565b6000604051905081810181811067ffffffffffffffff82111715610c2457610c23610dd1565b5b8060405250919050565b600067ffffffffffffffff821115610c4957610c48610dd1565b5b601f19601f8301169050602081019050919050565b600081519050919050565b600082825260208201905092915050565b6000610c8582610c8c565b9050919050565b600073ffffffffffffffffffffffffffffffffffffffff82169050919050565b6000819050919050565b82818337600083830152505050565b60005b83811015610ce3578082015181840152602081019050610cc8565b83811115610cf2576000848401525b50505050565b60006002820490506001821680610d1057607f821691505b60208210811415610d2457610d23610da2565b5b50919050565b6000610d3582610cac565b91507fffffffffffffffffffffffffffffffffffffffffffffffffffffffffffffffff821415610d6857610d67610d73565b5b600182019050919050565b7f4e487b7100000000000000000000000000000000000000000000000000000000600052601160045260246000fd5b7f4e487b7100000000000000000000000000000000000000000000000000000000600052602260045260246000fd5b7f4e487b7100000000000000000000000000000000000000000000000000000000600052604160045260246000fd5b6000601f19601f8301169050919050565b610e1a81610c7a565b8114610e2557600080fd5b50565b610e3181610cac565b8114610e3c57600080fd5b5056fea2646970667358221220f2d5590d6be969afa18181359f681a0aa82d5e2a4fa0e26c157d4e96547a505b64736f6c63430008000033",
					"opcodes": "PUSH1 0x80 PUSH1 0x40 MSTORE CALLVALUE DUP1 ISZERO PUSH2 0x10 JUMPI PUSH1 0x0 DUP1 REVERT JUMPDEST POP CALLER PUSH1 0x0 DUP1 PUSH2 0x100 EXP DUP2 SLOAD DUP2 PUSH20 0xFFFFFFFFFFFFFFFFFFFFFFFFFFFFFFFFFFFFFFFF MUL NOT AND SWAP1 DUP4 PUSH20 0xFFFFFFFFFFFFFFFFFFFFFFFFFFFFFFFFFFFFFFFF AND MUL OR SWAP1 SSTORE POP PUSH2 0xE75 DUP1 PUSH2 0x60 PUSH1 0x0 CODECOPY PUSH1 0x0 RETURN INVALID PUSH1 0x80 PUSH1 0x40 MSTORE CALLVALUE DUP1 ISZERO PUSH2 0x10 JUMPI PUSH1 0x0 DUP1 REVERT JUMPDEST POP PUSH1 0x4 CALLDATASIZE LT PUSH2 0x7C JUMPI PUSH1 0x0 CALLDATALOAD PUSH1 0xE0 SHR DUP1 PUSH4 0x8DA5CB5B GT PUSH2 0x5B JUMPI DUP1 PUSH4 0x8DA5CB5B EQ PUSH2 0xFF JUMPI DUP1 PUSH4 0xA7CA9615 EQ PUSH2 0x11D JUMPI DUP1 PUSH4 0xDF3C2631 EQ PUSH2 0x14E JUMPI DUP1 PUSH4 0xF0E5B0E0 EQ PUSH2 0x17E JUMPI PUSH2 0x7C JUMP JUMPDEST DUP1 PUSH3 0x9DCB10 EQ PUSH2 0x81 JUMPI DUP1 PUSH4 0x6F24B093 EQ PUSH2 0xB2 JUMPI DUP1 PUSH4 0x708ADCD5 EQ PUSH2 0xE3 JUMPI JUMPDEST PUSH1 0x0 DUP1 REVERT JUMPDEST PUSH2 0x9B PUSH1 0x4 DUP1 CALLDATASIZE SUB DUP2 ADD SWAP1 PUSH2 0x96 SWAP2 SWAP1 PUSH2 0x984 JUMP JUMPDEST PUSH2 0x19C JUMP JUMPDEST PUSH1 0x40 MLOAD PUSH2 0xA9 SWAP3 SWAP2 SWAP1 PUSH2 0xB42 JUMP JUMPDEST PUSH1 0x40 MLOAD DUP1 SWAP2 SUB SWAP1 RETURN JUMPDEST PUSH2 0xCC PUSH1 0x4 DUP1 CALLDATASIZE SUB DUP2 ADD SWAP1 PUSH2 0xC7 SWAP2 SWAP1 PUSH2 0xA01 JUMP JUMPDEST PUSH2 0x268 JUMP JUMPDEST PUSH1 0x40 MLOAD PUSH2 0xDA SWAP3 SWAP2 SWAP1 PUSH2 0xB42 JUMP JUMPDEST PUSH1 0x40 MLOAD DUP1 SWAP2 SUB SWAP1 RETURN JUMPDEST PUSH2 0xFD PUSH1 0x4 DUP1 CALLDATASIZE SUB DUP2 ADD SWAP1 PUSH2 0xF8 SWAP2 SWAP1 PUSH2 0x9AD JUMP JUMPDEST PUSH2 0x3EE JUMP JUMPDEST STOP JUMPDEST PUSH2 0x107 PUSH2 0x5C5 JUMP JUMPDEST PUSH1 0x40 MLOAD PUSH2 0x114 SWAP2 SWAP1 PUSH2 0xB27 JUMP JUMPDEST PUSH1 0x40 MLOAD DUP1 SWAP2 SUB SWAP1 RETURN JUMPDEST PUSH2 0x137 PUSH1 0x4 DUP1 CALLDATASIZE SUB DUP2 ADD SWAP1 PUSH2 0x132 SWAP2 SWAP1 PUSH2 0x984 JUMP JUMPDEST PUSH2 0x5E9 JUMP JUMPDEST PUSH1 0x40 MLOAD PUSH2 0x145 SWAP3 SWAP2 SWAP1 PUSH2 0xB72 JUMP JUMPDEST PUSH1 0x40 MLOAD DUP1 SWAP2 SUB SWAP1 RETURN JUMPDEST PUSH2 0x168 PUSH1 0x4 DUP1 CALLDATASIZE SUB DUP2 ADD SWAP1 PUSH2 0x163 SWAP2 SWAP1 PUSH2 0xA01 JUMP JUMPDEST PUSH2 0x740 JUMP JUMPDEST PUSH1 0x40 MLOAD PUSH2 0x175 SWAP2 SWAP1 PUSH2 0xB27 JUMP JUMPDEST PUSH1 0x40 MLOAD DUP1 SWAP2 SUB SWAP1 RETURN JUMPDEST PUSH2 0x186 PUSH2 0x773 JUMP JUMPDEST PUSH1 0x40 MLOAD PUSH2 0x193 SWAP2 SWAP1 PUSH2 0xBE2 JUMP JUMPDEST PUSH1 0x40 MLOAD DUP1 SWAP2 SUB SWAP1 RETURN JUMPDEST PUSH1 0x1 PUSH1 0x20 MSTORE DUP1 PUSH1 0x0 MSTORE PUSH1 0x40 PUSH1 0x0 KECCAK256 PUSH1 0x0 SWAP2 POP SWAP1 POP DUP1 PUSH1 0x0 ADD DUP1 SLOAD PUSH2 0x1BF SWAP1 PUSH2 0xCF8 JUMP JUMPDEST DUP1 PUSH1 0x1F ADD PUSH1 0x20 DUP1 SWAP2 DIV MUL PUSH1 0x20 ADD PUSH1 0x40 MLOAD SWAP1 DUP2 ADD PUSH1 0x40 MSTORE DUP1 SWAP3 SWAP2 SWAP1 DUP2 DUP2 MSTORE PUSH1 0x20 ADD DUP3 DUP1 SLOAD PUSH2 0x1EB SWAP1 PUSH2 0xCF8 JUMP JUMPDEST DUP1 ISZERO PUSH2 0x238 JUMPI DUP1 PUSH1 0x1F LT PUSH2 0x20D JUMPI PUSH2 0x100 DUP1 DUP4 SLOAD DIV MUL DUP4 MSTORE SWAP2 PUSH1 0x20 ADD SWAP2 PUSH2 0x238 JUMP JUMPDEST DUP3 ADD SWAP2 SWAP1 PUSH1 0x0 MSTORE PUSH1 0x20 PUSH1 0x0 KECCAK256 SWAP1 JUMPDEST DUP2 SLOAD DUP2 MSTORE SWAP1 PUSH1 0x1 ADD SWAP1 PUSH1 0x20 ADD DUP1 DUP4 GT PUSH2 0x21B JUMPI DUP3 SWAP1 SUB PUSH1 0x1F AND DUP3 ADD SWAP2 JUMPDEST POP POP POP POP POP SWAP1 DUP1 PUSH1 0x1 ADD PUSH1 0x0 SWAP1 SLOAD SWAP1 PUSH2 0x100 EXP SWAP1 DIV PUSH20 0xFFFFFFFFFFFFFFFFFFFFFFFFFFFFFFFFFFFFFFFF AND SWAP1 POP DUP3 JUMP JUMPDEST PUSH1 0x60 PUSH1 0x0 DUP1 PUSH1 0x2 PUSH1 0x0 DUP6 DUP2 MSTORE PUSH1 0x20 ADD SWAP1 DUP2 MSTORE PUSH1 0x20 ADD PUSH1 0x0 KECCAK256 PUSH1 0x0 SWAP1 SLOAD SWAP1 PUSH2 0x100 EXP SWAP1 DIV PUSH20 0xFFFFFFFFFFFFFFFFFFFFFFFFFFFFFFFFFFFFFFFF AND SWAP1 POP PUSH1 0x0 PUSH1 0x1 PUSH1 0x0 DUP4 PUSH20 0xFFFFFFFFFFFFFFFFFFFFFFFFFFFFFFFFFFFFFFFF AND PUSH20 0xFFFFFFFFFFFFFFFFFFFFFFFFFFFFFFFFFFFFFFFF AND DUP2 MSTORE PUSH1 0x20 ADD SWAP1 DUP2 MSTORE PUSH1 0x20 ADD PUSH1 0x0 KECCAK256 PUSH1 0x40 MLOAD DUP1 PUSH1 0x40 ADD PUSH1 0x40 MSTORE SWAP1 DUP2 PUSH1 0x0 DUP3 ADD DUP1 SLOAD PUSH2 0x2FF SWAP1 PUSH2 0xCF8 JUMP JUMPDEST DUP1 PUSH1 0x1F ADD PUSH1 0x20 DUP1 SWAP2 DIV MUL PUSH1 0x20 ADD PUSH1 0x40 MLOAD SWAP1 DUP2 ADD PUSH1 0x40 MSTORE DUP1 SWAP3 SWAP2 SWAP1 DUP2 DUP2 MSTORE PUSH1 0x20 ADD DUP3 DUP1 SLOAD PUSH2 0x32B SWAP1 PUSH2 0xCF8 JUMP JUMPDEST DUP1 ISZERO PUSH2 0x378 JUMPI DUP1 PUSH1 0x1F LT PUSH2 0x34D JUMPI PUSH2 0x100 DUP1 DUP4 SLOAD DIV MUL DUP4 MSTORE SWAP2 PUSH1 0x20 ADD SWAP2 PUSH2 0x378 JUMP JUMPDEST DUP3 ADD SWAP2 SWAP1 PUSH1 0x0 MSTORE PUSH1 0x20 PUSH1 0x0 KECCAK256 SWAP1 JUMPDEST DUP2 SLOAD DUP2 MSTORE SWAP1 PUSH1 0x1 ADD SWAP1 PUSH1 0x20 ADD DUP1 DUP4 GT PUSH2 0x35B JUMPI DUP3 SWAP1 SUB PUSH1 0x1F AND DUP3 ADD SWAP2 JUMPDEST POP POP POP POP POP DUP2 MSTORE PUSH1 0x20 ADD PUSH1 0x1 DUP3 ADD PUSH1 0x0 SWAP1 SLOAD SWAP1 PUSH2 0x100 EXP SWAP1 DIV PUSH20 0xFFFFFFFFFFFFFFFFFFFFFFFFFFFFFFFFFFFFFFFF AND PUSH20 0xFFFFFFFFFFFFFFFFFFFFFFFFFFFFFFFFFFFFFFFF AND PUSH20 0xFFFFFFFFFFFFFFFFFFFFFFFFFFFFFFFFFFFFFFFF AND DUP2 MSTORE POP POP SWAP1 POP DUP1 PUSH1 0x0 ADD MLOAD DUP2 PUSH1 0x20 ADD MLOAD SWAP4 POP SWAP4 POP POP POP SWAP2 POP SWAP2 JUMP JUMPDEST PUSH1 0x0 DUP1 SLOAD SWAP1 PUSH2 0x100 EXP SWAP1 DIV PUSH20 0xFFFFFFFFFFFFFFFFFFFFFFFFFFFFFFFFFFFFFFFF AND PUSH20 0xFFFFFFFFFFFFFFFFFFFFFFFFFFFFFFFFFFFFFFFF AND CALLER PUSH20 0xFFFFFFFFFFFFFFFFFFFFFFFFFFFFFFFFFFFFFFFF AND EQ PUSH2 0x47C JUMPI PUSH1 0x40 MLOAD PUSH32 0x8C379A000000000000000000000000000000000000000000000000000000000 DUP2 MSTORE PUSH1 0x4 ADD PUSH2 0x473 SWAP1 PUSH2 0xBA2 JUMP JUMPDEST PUSH1 0x40 MLOAD DUP1 SWAP2 SUB SWAP1 REVERT JUMPDEST PUSH1 0x0 PUSH1 0x1 PUSH1 0x0 DUP4 PUSH20 0xFFFFFFFFFFFFFFFFFFFFFFFFFFFFFFFFFFFFFFFF AND PUSH20 0xFFFFFFFFFFFFFFFFFFFFFFFFFFFFFFFFFFFFFFFF AND DUP2 MSTORE PUSH1 0x20 ADD SWAP1 DUP2 MSTORE PUSH1 0x20 ADD PUSH1 0x0 KECCAK256 SWAP1 POP DUP3 DUP2 PUSH1 0x0 ADD SWAP1 DUP1 MLOAD SWAP1 PUSH1 0x20 ADD SWAP1 PUSH2 0x4D7 SWAP3 SWAP2 SWAP1 PUSH2 0x84F JUMP JUMPDEST POP DUP2 DUP2 PUSH1 0x1 ADD PUSH1 0x0 PUSH2 0x100 EXP DUP2 SLOAD DUP2 PUSH20 0xFFFFFFFFFFFFFFFFFFFFFFFFFFFFFFFFFFFFFFFF MUL NOT AND SWAP1 DUP4 PUSH20 0xFFFFFFFFFFFFFFFFFFFFFFFFFFFFFFFFFFFFFFFF AND MUL OR SWAP1 SSTORE POP DUP2 PUSH1 0x2 PUSH1 0x0 PUSH1 0x3 SLOAD DUP2 MSTORE PUSH1 0x20 ADD SWAP1 DUP2 MSTORE PUSH1 0x20 ADD PUSH1 0x0 KECCAK256 PUSH1 0x0 PUSH2 0x100 EXP DUP2 SLOAD DUP2 PUSH20 0xFFFFFFFFFFFFFFFFFFFFFFFFFFFFFFFFFFFFFFFF MUL NOT AND SWAP1 DUP4 PUSH20 0xFFFFFFFFFFFFFFFFFFFFFFFFFFFFFFFFFFFFFFFF AND MUL OR SWAP1 SSTORE POP PUSH1 0x3 PUSH1 0x0 DUP2 SLOAD DUP1 SWAP3 SWAP2 SWAP1 PUSH2 0x582 SWAP1 PUSH2 0xD2A JUMP JUMPDEST SWAP2 SWAP1 POP SSTORE POP PUSH32 0x41F0F9636A4B31A3645B61ECCF358F50026DA9FB737EE19926247E1725C4B2C9 DUP4 DUP4 PUSH1 0x40 MLOAD PUSH2 0x5B8 SWAP3 SWAP2 SWAP1 PUSH2 0xB42 JUMP JUMPDEST PUSH1 0x40 MLOAD DUP1 SWAP2 SUB SWAP1 LOG1 POP POP POP JUMP JUMPDEST PUSH1 0x0 DUP1 SLOAD SWAP1 PUSH2 0x100 EXP SWAP1 DIV PUSH20 0xFFFFFFFFFFFFFFFFFFFFFFFFFFFFFFFFFFFFFFFF AND DUP2 JUMP JUMPDEST PUSH1 0x60 PUSH1 0x0 DUP1 PUSH1 0x1 PUSH1 0x0 DUP6 PUSH20 0xFFFFFFFFFFFFFFFFFFFFFFFFFFFFFFFFFFFFFFFF AND PUSH20 0xFFFFFFFFFFFFFFFFFFFFFFFFFFFFFFFFFFFFFFFF AND DUP2 MSTORE PUSH1 0x20 ADD SWAP1 DUP2 MSTORE PUSH1 0x20 ADD PUSH1 0x0 KECCAK256 PUSH1 0x40 MLOAD DUP1 PUSH1 0x40 ADD PUSH1 0x40 MSTORE SWAP1 DUP2 PUSH1 0x0 DUP3 ADD DUP1 SLOAD PUSH2 0x648 SWAP1 PUSH2 0xCF8 JUMP JUMPDEST DUP1 PUSH1 0x1F ADD PUSH1 0x20 DUP1 SWAP2 DIV MUL PUSH1 0x20 ADD PUSH1 0x40 MLOAD SWAP1 DUP2 ADD PUSH1 0x40 MSTORE DUP1 SWAP3 SWAP2 SWAP1 DUP2 DUP2 MSTORE PUSH1 0x20 ADD DUP3 DUP1 SLOAD PUSH2 0x674 SWAP1 PUSH2 0xCF8 JUMP JUMPDEST DUP1 ISZERO PUSH2 0x6C1 JUMPI DUP1 PUSH1 0x1F LT PUSH2 0x696 JUMPI PUSH2 0x100 DUP1 DUP4 SLOAD DIV MUL DUP4 MSTORE SWAP2 PUSH1 0x20 ADD SWAP2 PUSH2 0x6C1 JUMP JUMPDEST DUP3 ADD SWAP2 SWAP1 PUSH1 0x0 MSTORE PUSH1 0x20 PUSH1 0x0 KECCAK256 SWAP1 JUMPDEST DUP2 SLOAD DUP2 MSTORE SWAP1 PUSH1 0x1 ADD SWAP1 PUSH1 0x20 ADD DUP1 DUP4 GT PUSH2 0x6A4 JUMPI DUP3 SWAP1 SUB PUSH1 0x1F AND DUP3 ADD SWAP2 JUMPDEST POP POP POP POP POP DUP2 MSTORE PUSH1 0x20 ADD PUSH1 0x1 DUP3 ADD PUSH1 0x0 SWAP1 SLOAD SWAP1 PUSH2 0x100 EXP SWAP1 DIV PUSH20 0xFFFFFFFFFFFFFFFFFFFFFFFFFFFFFFFFFFFFFFFF AND PUSH20 0xFFFFFFFFFFFFFFFFFFFFFFFFFFFFFFFFFFFFFFFF AND PUSH20 0xFFFFFFFFFFFFFFFFFFFFFFFFFFFFFFFFFFFFFFFF AND DUP2 MSTORE POP POP SWAP1 POP PUSH1 0x0 PUSH2 0x72D DUP6 PUSH2 0x779 JUMP JUMPDEST SWAP1 POP DUP2 PUSH1 0x0 ADD MLOAD DUP2 SWAP4 POP SWAP4 POP POP POP SWAP2 POP SWAP2 JUMP JUMPDEST PUSH1 0x2 PUSH1 0x20 MSTORE DUP1 PUSH1 0x0 MSTORE PUSH1 0x40 PUSH1 0x0 KECCAK256 PUSH1 0x0 SWAP2 POP SLOAD SWAP1 PUSH2 0x100 EXP SWAP1 DIV PUSH20 0xFFFFFFFFFFFFFFFFFFFFFFFFFFFFFFFFFFFFFFFF AND DUP2 JUMP JUMPDEST PUSH1 0x3 SLOAD DUP2 JUMP JUMPDEST PUSH1 0x0 DUP1 PUSH1 0x0 SWAP1 POP JUMPDEST PUSH1 0x3 SLOAD DUP2 LT ISZERO PUSH2 0x80E JUMPI DUP3 PUSH20 0xFFFFFFFFFFFFFFFFFFFFFFFFFFFFFFFFFFFFFFFF AND PUSH1 0x2 PUSH1 0x0 DUP4 DUP2 MSTORE PUSH1 0x20 ADD SWAP1 DUP2 MSTORE PUSH1 0x20 ADD PUSH1 0x0 KECCAK256 PUSH1 0x0 SWAP1 SLOAD SWAP1 PUSH2 0x100 EXP SWAP1 DIV PUSH20 0xFFFFFFFFFFFFFFFFFFFFFFFFFFFFFFFFFFFFFFFF AND PUSH20 0xFFFFFFFFFFFFFFFFFFFFFFFFFFFFFFFFFFFFFFFF AND EQ ISZERO PUSH2 0x7FB JUMPI DUP1 SWAP2 POP POP PUSH2 0x84A JUMP JUMPDEST DUP1 DUP1 PUSH2 0x806 SWAP1 PUSH2 0xD2A JUMP JUMPDEST SWAP2 POP POP PUSH2 0x781 JUMP JUMPDEST POP PUSH1 0x40 MLOAD PUSH32 0x8C379A000000000000000000000000000000000000000000000000000000000 DUP2 MSTORE PUSH1 0x4 ADD PUSH2 0x841 SWAP1 PUSH2 0xBC2 JUMP JUMPDEST PUSH1 0x40 MLOAD DUP1 SWAP2 SUB SWAP1 REVERT JUMPDEST SWAP2 SWAP1 POP JUMP JUMPDEST DUP3 DUP1 SLOAD PUSH2 0x85B SWAP1 PUSH2 0xCF8 JUMP JUMPDEST SWAP1 PUSH1 0x0 MSTORE PUSH1 0x20 PUSH1 0x0 KECCAK256 SWAP1 PUSH1 0x1F ADD PUSH1 0x20 SWAP1 DIV DUP2 ADD SWAP3 DUP3 PUSH2 0x87D JUMPI PUSH1 0x0 DUP6 SSTORE PUSH2 0x8C4 JUMP JUMPDEST DUP3 PUSH1 0x1F LT PUSH2 0x896 JUMPI DUP1 MLOAD PUSH1 0xFF NOT AND DUP4 DUP1 ADD OR DUP6 SSTORE PUSH2 0x8C4 JUMP JUMPDEST DUP3 DUP1 ADD PUSH1 0x1 ADD DUP6 SSTORE DUP3 ISZERO PUSH2 0x8C4 JUMPI SWAP2 DUP3 ADD JUMPDEST DUP3 DUP2 GT ISZERO PUSH2 0x8C3 JUMPI DUP3 MLOAD DUP3 SSTORE SWAP2 PUSH1 0x20 ADD SWAP2 SWAP1 PUSH1 0x1 ADD SWAP1 PUSH2 0x8A8 JUMP JUMPDEST JUMPDEST POP SWAP1 POP PUSH2 0x8D1 SWAP2 SWAP1 PUSH2 0x8D5 JUMP JUMPDEST POP SWAP1 JUMP JUMPDEST JUMPDEST DUP1 DUP3 GT ISZERO PUSH2 0x8EE JUMPI PUSH1 0x0 DUP2 PUSH1 0x0 SWAP1 SSTORE POP PUSH1 0x1 ADD PUSH2 0x8D6 JUMP JUMPDEST POP SWAP1 JUMP JUMPDEST PUSH1 0x0 PUSH2 0x905 PUSH2 0x900 DUP5 PUSH2 0xC2E JUMP JUMPDEST PUSH2 0xBFD JUMP JUMPDEST SWAP1 POP DUP3 DUP2 MSTORE PUSH1 0x20 DUP2 ADD DUP5 DUP5 DUP5 ADD GT ISZERO PUSH2 0x91D JUMPI PUSH1 0x0 DUP1 REVERT JUMPDEST PUSH2 0x928 DUP5 DUP3 DUP6 PUSH2 0xCB6 JUMP JUMPDEST POP SWAP4 SWAP3 POP POP POP JUMP JUMPDEST PUSH1 0x0 DUP2 CALLDATALOAD SWAP1 POP PUSH2 0x93F DUP2 PUSH2 0xE11 JUMP JUMPDEST SWAP3 SWAP2 POP POP JUMP JUMPDEST PUSH1 0x0 DUP3 PUSH1 0x1F DUP4 ADD SLT PUSH2 0x956 JUMPI PUSH1 0x0 DUP1 REVERT JUMPDEST DUP2 CALLDATALOAD PUSH2 0x966 DUP5 DUP3 PUSH1 0x20 DUP7 ADD PUSH2 0x8F2 JUMP JUMPDEST SWAP2 POP POP SWAP3 SWAP2 POP POP JUMP JUMPDEST PUSH1 0x0 DUP2 CALLDATALOAD SWAP1 POP PUSH2 0x97E DUP2 PUSH2 0xE28 JUMP JUMPDEST SWAP3 SWAP2 POP POP JUMP JUMPDEST PUSH1 0x0 PUSH1 0x20 DUP3 DUP5 SUB SLT ISZERO PUSH2 0x996 JUMPI PUSH1 0x0 DUP1 REVERT JUMPDEST PUSH1 0x0 PUSH2 0x9A4 DUP5 DUP3 DUP6 ADD PUSH2 0x930 JUMP JUMPDEST SWAP2 POP POP SWAP3 SWAP2 POP POP JUMP JUMPDEST PUSH1 0x0 DUP1 PUSH1 0x40 DUP4 DUP6 SUB SLT ISZERO PUSH2 0x9C0 JUMPI PUSH1 0x0 DUP1 REVERT JUMPDEST PUSH1 0x0 DUP4 ADD CALLDATALOAD PUSH8 0xFFFFFFFFFFFFFFFF DUP2 GT ISZERO PUSH2 0x9DA JUMPI PUSH1 0x0 DUP1 REVERT JUMPDEST PUSH2 0x9E6 DUP6 DUP3 DUP7 ADD PUSH2 0x945 JUMP JUMPDEST SWAP3 POP POP PUSH1 0x20 PUSH2 0x9F7 DUP6 DUP3 DUP7 ADD PUSH2 0x930 JUMP JUMPDEST SWAP2 POP POP SWAP3 POP SWAP3 SWAP1 POP JUMP JUMPDEST PUSH1 0x0 PUSH1 0x20 DUP3 DUP5 SUB SLT ISZERO PUSH2 0xA13 JUMPI PUSH1 0x0 DUP1 REVERT JUMPDEST PUSH1 0x0 PUSH2 0xA21 DUP5 DUP3 DUP6 ADD PUSH2 0x96F JUMP JUMPDEST SWAP2 POP POP SWAP3 SWAP2 POP POP JUMP JUMPDEST PUSH2 0xA33 DUP2 PUSH2 0xC7A JUMP JUMPDEST DUP3 MSTORE POP POP JUMP JUMPDEST PUSH1 0x0 PUSH2 0xA44 DUP3 PUSH2 0xC5E JUMP JUMPDEST PUSH2 0xA4E DUP2 DUP6 PUSH2 0xC69 JUMP JUMPDEST SWAP4 POP PUSH2 0xA5E DUP2 DUP6 PUSH1 0x20 DUP7 ADD PUSH2 0xCC5 JUMP JUMPDEST PUSH2 0xA67 DUP2 PUSH2 0xE00 JUMP JUMPDEST DUP5 ADD SWAP2 POP POP SWAP3 SWAP2 POP POP JUMP JUMPDEST PUSH1 0x0 PUSH2 0xA7F PUSH1 0x25 DUP4 PUSH2 0xC69 JUMP JUMPDEST SWAP2 POP PUSH32 0x4F6E6C7920746865206F776E65722063616E2063616C6C20746869732066756E PUSH1 0x0 DUP4 ADD MSTORE PUSH32 0x6374696F6E000000000000000000000000000000000000000000000000000000 PUSH1 0x20 DUP4 ADD MSTORE PUSH1 0x40 DUP3 ADD SWAP1 POP SWAP2 SWAP1 POP JUMP JUMPDEST PUSH1 0x0 PUSH2 0xAE5 PUSH1 0x11 DUP4 PUSH2 0xC69 JUMP JUMPDEST SWAP2 POP PUSH32 0x436F6E74616374206E6F7420666F756E64000000000000000000000000000000 PUSH1 0x0 DUP4 ADD MSTORE PUSH1 0x20 DUP3 ADD SWAP1 POP SWAP2 SWAP1 POP JUMP JUMPDEST PUSH2 0xB21 DUP2 PUSH2 0xCAC JUMP JUMPDEST DUP3 MSTORE POP POP JUMP JUMPDEST PUSH1 0x0 PUSH1 0x20 DUP3 ADD SWAP1 POP PUSH2 0xB3C PUSH1 0x0 DUP4 ADD DUP5 PUSH2 0xA2A JUMP JUMPDEST SWAP3 SWAP2 POP POP JUMP JUMPDEST PUSH1 0x0 PUSH1 0x40 DUP3 ADD SWAP1 POP DUP2 DUP2 SUB PUSH1 0x0 DUP4 ADD MSTORE PUSH2 0xB5C DUP2 DUP6 PUSH2 0xA39 JUMP JUMPDEST SWAP1 POP PUSH2 0xB6B PUSH1 0x20 DUP4 ADD DUP5 PUSH2 0xA2A JUMP JUMPDEST SWAP4 SWAP3 POP POP POP JUMP JUMPDEST PUSH1 0x0 PUSH1 0x40 DUP3 ADD SWAP1 POP DUP2 DUP2 SUB PUSH1 0x0 DUP4 ADD MSTORE PUSH2 0xB8C DUP2 DUP6 PUSH2 0xA39 JUMP JUMPDEST SWAP1 POP PUSH2 0xB9B PUSH1 0x20 DUP4 ADD DUP5 PUSH2 0xB18 JUMP JUMPDEST SWAP4 SWAP3 POP POP POP JUMP JUMPDEST PUSH1 0x0 PUSH1 0x20 DUP3 ADD SWAP1 POP DUP2 DUP2 SUB PUSH1 0x0 DUP4 ADD MSTORE PUSH2 0xBBB DUP2 PUSH2 0xA72 JUMP JUMPDEST SWAP1 POP SWAP2 SWAP1 POP JUMP JUMPDEST PUSH1 0x0 PUSH1 0x20 DUP3 ADD SWAP1 POP DUP2 DUP2 SUB PUSH1 0x0 DUP4 ADD MSTORE PUSH2 0xBDB DUP2 PUSH2 0xAD8 JUMP JUMPDEST SWAP1 POP SWAP2 SWAP1 POP JUMP JUMPDEST PUSH1 0x0 PUSH1 0x20 DUP3 ADD SWAP1 POP PUSH2 0xBF7 PUSH1 0x0 DUP4 ADD DUP5 PUSH2 0xB18 JUMP JUMPDEST SWAP3 SWAP2 POP POP JUMP JUMPDEST PUSH1 0x0 PUSH1 0x40 MLOAD SWAP1 POP DUP2 DUP2 ADD DUP2 DUP2 LT PUSH8 0xFFFFFFFFFFFFFFFF DUP3 GT OR ISZERO PUSH2 0xC24 JUMPI PUSH2 0xC23 PUSH2 0xDD1 JUMP JUMPDEST JUMPDEST DUP1 PUSH1 0x40 MSTORE POP SWAP2 SWAP1 POP JUMP JUMPDEST PUSH1 0x0 PUSH8 0xFFFFFFFFFFFFFFFF DUP3 GT ISZERO PUSH2 0xC49 JUMPI PUSH2 0xC48 PUSH2 0xDD1 JUMP JUMPDEST JUMPDEST PUSH1 0x1F NOT PUSH1 0x1F DUP4 ADD AND SWAP1 POP PUSH1 0x20 DUP2 ADD SWAP1 POP SWAP2 SWAP1 POP JUMP JUMPDEST PUSH1 0x0 DUP2 MLOAD SWAP1 POP SWAP2 SWAP1 POP JUMP JUMPDEST PUSH1 0x0 DUP3 DUP3 MSTORE PUSH1 0x20 DUP3 ADD SWAP1 POP SWAP3 SWAP2 POP POP JUMP JUMPDEST PUSH1 0x0 PUSH2 0xC85 DUP3 PUSH2 0xC8C JUMP JUMPDEST SWAP1 POP SWAP2 SWAP1 POP JUMP JUMPDEST PUSH1 0x0 PUSH20 0xFFFFFFFFFFFFFFFFFFFFFFFFFFFFFFFFFFFFFFFF DUP3 AND SWAP1 POP SWAP2 SWAP1 POP JUMP JUMPDEST PUSH1 0x0 DUP2 SWAP1 POP SWAP2 SWAP1 POP JUMP JUMPDEST DUP3 DUP2 DUP4 CALLDATACOPY PUSH1 0x0 DUP4 DUP4 ADD MSTORE POP POP POP JUMP JUMPDEST PUSH1 0x0 JUMPDEST DUP4 DUP2 LT ISZERO PUSH2 0xCE3 JUMPI DUP1 DUP3 ADD MLOAD DUP2 DUP5 ADD MSTORE PUSH1 0x20 DUP2 ADD SWAP1 POP PUSH2 0xCC8 JUMP JUMPDEST DUP4 DUP2 GT ISZERO PUSH2 0xCF2 JUMPI PUSH1 0x0 DUP5 DUP5 ADD MSTORE JUMPDEST POP POP POP POP JUMP JUMPDEST PUSH1 0x0 PUSH1 0x2 DUP3 DIV SWAP1 POP PUSH1 0x1 DUP3 AND DUP1 PUSH2 0xD10 JUMPI PUSH1 0x7F DUP3 AND SWAP2 POP JUMPDEST PUSH1 0x20 DUP3 LT DUP2 EQ ISZERO PUSH2 0xD24 JUMPI PUSH2 0xD23 PUSH2 0xDA2 JUMP JUMPDEST JUMPDEST POP SWAP2 SWAP1 POP JUMP JUMPDEST PUSH1 0x0 PUSH2 0xD35 DUP3 PUSH2 0xCAC JUMP JUMPDEST SWAP2 POP PUSH32 0xFFFFFFFFFFFFFFFFFFFFFFFFFFFFFFFFFFFFFFFFFFFFFFFFFFFFFFFFFFFFFFFF DUP3 EQ ISZERO PUSH2 0xD68 JUMPI PUSH2 0xD67 PUSH2 0xD73 JUMP JUMPDEST JUMPDEST PUSH1 0x1 DUP3 ADD SWAP1 POP SWAP2 SWAP1 POP JUMP JUMPDEST PUSH32 0x4E487B7100000000000000000000000000000000000000000000000000000000 PUSH1 0x0 MSTORE PUSH1 0x11 PUSH1 0x4 MSTORE PUSH1 0x24 PUSH1 0x0 REVERT JUMPDEST PUSH32 0x4E487B7100000000000000000000000000000000000000000000000000000000 PUSH1 0x0 MSTORE PUSH1 0x22 PUSH1 0x4 MSTORE PUSH1 0x24 PUSH1 0x0 REVERT JUMPDEST PUSH32 0x4E487B7100000000000000000000000000000000000000000000000000000000 PUSH1 0x0 MSTORE PUSH1 0x41 PUSH1 0x4 MSTORE PUSH1 0x24 PUSH1 0x0 REVERT JUMPDEST PUSH1 0x0 PUSH1 0x1F NOT PUSH1 0x1F DUP4 ADD AND SWAP1 POP SWAP2 SWAP1 POP JUMP JUMPDEST PUSH2 0xE1A DUP2 PUSH2 0xC7A JUMP JUMPDEST DUP2 EQ PUSH2 0xE25 JUMPI PUSH1 0x0 DUP1 REVERT JUMPDEST POP JUMP JUMPDEST PUSH2 0xE31 DUP2 PUSH2 0xCAC JUMP JUMPDEST DUP2 EQ PUSH2 0xE3C JUMPI PUSH1 0x0 DUP1 REVERT JUMPDEST POP JUMP INVALID LOG2 PUSH5 0x6970667358 0x22 SLT KECCAK256 CALLCODE 0xD5 MSIZE 0xD PUSH12 0xE969AFA18181359F681A0AA8 0x2D 0x5E 0x2A 0x4F LOG0 0xE2 PUSH13 0x157D4E96547A505B64736F6C63 NUMBER STOP ADDMOD STOP STOP CALLER "
				},
				"gasEstimates": {
					"creation": {
						"codeDepositCost": "740200",
						"executionCost": "21639",
						"totalCost": "761839"
					},
					"external": {
						"addContact(string,address)": "infinite",
						"contactCount()": "1195",
						"contactsByAddress(address)": "infinite",
						"contactsByNumber(uint256)": "1583",
						"getContactByAddress(address)": "infinite",
						"getContactByNumber(uint256)": "infinite",
						"owner()": "1211"
					},
					"internal": {
						"findContactNumber(address)": "infinite"
					}
				},
				"methodIdentifiers": {
					"addContact(string,address)": "708adcd5",
					"contactCount()": "f0e5b0e0",
					"contactsByAddress(address)": "009dcb10",
					"contactsByNumber(uint256)": "df3c2631",
					"getContactByAddress(address)": "a7ca9615",
					"getContactByNumber(uint256)": "6f24b093",
					"owner()": "8da5cb5b"
				}
			},
			"storageLayout": {
				"storage": [
					{
						"astId": 3,
						"contract": "hell0.sol:ContactManager",
						"label": "owner",
						"offset": 0,
						"slot": "0",
						"type": "t_address"
					},
					{
						"astId": 13,
						"contract": "hell0.sol:ContactManager",
						"label": "contactsByAddress",
						"offset": 0,
						"slot": "1",
						"type": "t_mapping(t_address,t_struct(Contact)8_storage)"
					},
					{
						"astId": 17,
						"contract": "hell0.sol:ContactManager",
						"label": "contactsByNumber",
						"offset": 0,
						"slot": "2",
						"type": "t_mapping(t_uint256,t_address)"
					},
					{
						"astId": 19,
						"contract": "hell0.sol:ContactManager",
						"label": "contactCount",
						"offset": 0,
						"slot": "3",
						"type": "t_uint256"
					}
				],
				"types": {
					"t_address": {
						"encoding": "inplace",
						"label": "address",
						"numberOfBytes": "20"
					},
					"t_mapping(t_address,t_struct(Contact)8_storage)": {
						"encoding": "mapping",
						"key": "t_address",
						"label": "mapping(address => struct ContactManager.Contact)",
						"numberOfBytes": "32",
						"value": "t_struct(Contact)8_storage"
					},
					"t_mapping(t_uint256,t_address)": {
						"encoding": "mapping",
						"key": "t_uint256",
						"label": "mapping(uint256 => address)",
						"numberOfBytes": "32",
						"value": "t_address"
					},
					"t_string_storage": {
						"encoding": "bytes",
						"label": "string",
						"numberOfBytes": "32"
					},
					"t_struct(Contact)8_storage": {
						"encoding": "inplace",
						"label": "struct ContactManager.Contact",
						"members": [
							{
								"astId": 5,
								"contract": "hell0.sol:ContactManager",
								"label": "name",
								"offset": 0,
								"slot": "0",
								"type": "t_string_storage"
							},
							{
								"astId": 7,
								"contract": "hell0.sol:ContactManager",
								"label": "contactAddress",
								"offset": 0,
								"slot": "1",
								"type": "t_address"
							}
						],
						"numberOfBytes": "64"
					},
					"t_uint256": {
						"encoding": "inplace",
						"label": "uint256",
						"numberOfBytes": "32"
					}
				}
			},
			"userdoc": {
				"kind": "user",
				"methods": {},
				"version": 1
			}
		}
	}
}