{
	"data": {
		"bytecode": {
			"linkReferences": {},
			"object": "608060405234801561000f575f80fd5b506139ac8061001d5f395ff3fe608060405234801562000010575f80fd5b506004361062000068575f3560e01c806305aa6e50146200006c5780632901f073146200008c5780632a70c1be14620000ac578063337612db14620000cc578063b9b3832b1462000102578063f55332ab1462000122575b5f80fd5b6200008a6004803603810190620000849190620005df565b62000158565b005b620000aa6004803603810190620000a49190620005df565b620001d0565b005b620000ca6004803603810190620000c49190620005df565b62000248565b005b620000ea6004803603810190620000e491906200068f565b620002c0565b604051620000f9919062000777565b60405180910390f35b6200012060048036038101906200011a9190620005df565b6200034a565b005b6200014060048036038101906200013a919062000799565b620003c2565b6040516200014f919062000777565b60405180910390f35b5f8160405162000168906200043e565b62000174919062000777565b604051809103905ff0801580156200018e573d5f803e3d5ffd5b5090507f8c6cdccdb41f99c9cc76f22bb2eb5d4cab205e66ea40308652d818281ea01b978282604051620001c4929190620007da565b60405180910390a15050565b5f81604051620001e0906200044c565b620001ec919062000777565b604051809103905ff08015801562000206573d5f803e3d5ffd5b5090507f8c6cdccdb41f99c9cc76f22bb2eb5d4cab205e66ea40308652d818281ea01b9782826040516200023c929190620007da565b60405180910390a15050565b5f8160405162000258906200045a565b62000264919062000777565b604051809103905ff0801580156200027e573d5f803e3d5ffd5b5090507f8c6cdccdb41f99c9cc76f22bb2eb5d4cab205e66ea40308652d818281ea01b978282604051620002b4929190620007da565b60405180910390a15050565b60608273ffffffffffffffffffffffffffffffffffffffff1663728d9b74836040518263ffffffff1660e01b8152600401620002fd919062000777565b5f60405180830381865afa15801562000318573d5f803e3d5ffd5b505050506040513d5f823e3d601f19601f8201168201806040525081019062000342919062000888565b905092915050565b5f816040516200035a9062000468565b62000366919062000777565b604051809103905ff08015801562000380573d5f803e3d5ffd5b5090507f8c6cdccdb41f99c9cc76f22bb2eb5d4cab205e66ea40308652d818281ea01b978282604051620003b6929190620007da565b60405180910390a15050565b60608173ffffffffffffffffffffffffffffffffffffffff166350d853156040518163ffffffff1660e01b81526004015f60405180830381865afa1580156200040d573d5f803e3d5ffd5b505050506040513d5f823e3d601f19601f8201168201806040525081019062000437919062000888565b9050919050565b610c0180620008d883390190565b610c0180620014d983390190565b610bb880620020da83390190565b610ce58062002c9283390190565b5f604051905090565b5f80fd5b5f80fd5b5f80fd5b5f80fd5b5f601f19601f8301169050919050565b7f4e487b71000000000000000000000000000000000000000000000000000000005f52604160045260245ffd5b620004d7826200048f565b810181811067ffffffffffffffff82111715620004f957620004f86200049f565b5b80604052505050565b5f6200050d62000476565b90506200051b8282620004cc565b919050565b5f67ffffffffffffffff8211156200053d576200053c6200049f565b5b62000548826200048f565b9050602081019050919050565b828183375f83830152505050565b5f62000579620005738462000520565b62000502565b9050828152602081018484840111156200059857620005976200048b565b5b620005a584828562000555565b509392505050565b5f82601f830112620005c457620005c362000487565b5b8135620005d684826020860162000563565b91505092915050565b5f60208284031215620005f757620005f66200047f565b5b5f82013567ffffffffffffffff81111562000617576200061662000483565b5b6200062584828501620005ad565b91505092915050565b5f73ffffffffffffffffffffffffffffffffffffffff82169050919050565b5f62000659826200062e565b9050919050565b6200066b816200064d565b811462000676575f80fd5b50565b5f81359050620006898162000660565b92915050565b5f8060408385031215620006a857620006a76200047f565b5b5f620006b78582860162000679565b925050602083013567ffffffffffffffff811115620006db57620006da62000483565b5b620006e985828601620005ad565b9150509250929050565b5f81519050919050565b5f82825260208201905092915050565b5f5b838110156200072c5780820151818401526020810190506200070f565b5f8484015250505050565b5f6200074382620006f3565b6200074f8185620006fd565b9350620007618185602086016200070d565b6200076c816200048f565b840191505092915050565b5f6020820190508181035f83015262000791818462000737565b905092915050565b5f60208284031215620007b157620007b06200047f565b5b5f620007c08482850162000679565b91505092915050565b620007d4816200064d565b82525050565b5f6040820190508181035f830152620007f4818562000737565b9050620008056020830184620007c9565b9392505050565b5f620008226200081c8462000520565b62000502565b9050828152602081018484840111156200084157620008406200048b565b5b6200084e8482856200070d565b509392505050565b5f82601f8301126200086d576200086c62000487565b5b81516200087f8482602086016200080c565b91505092915050565b5f60208284031215620008a0576200089f6200047f565b5b5f82015167ffffffffffffffff811115620008c057620008bf62000483565b5b620008ce8482850162000856565b9150509291505056fe608060405234801562000010575f80fd5b5060405162000c0138038062000c018339818101604052810190620000369190620001d5565b80805f90816200004791906200045b565b5050506200053f565b5f604051905090565b5f80fd5b5f80fd5b5f80fd5b5f80fd5b5f601f19601f8301169050919050565b7f4e487b71000000000000000000000000000000000000000000000000000000005f52604160045260245ffd5b620000b18262000069565b810181811067ffffffffffffffff82111715620000d357620000d262000079565b5b80604052505050565b5f620000e762000050565b9050620000f58282620000a6565b919050565b5f67ffffffffffffffff82111562000117576200011662000079565b5b620001228262000069565b9050602081019050919050565b5f5b838110156200014e57808201518184015260208101905062000131565b5f8484015250505050565b5f6200016f6200016984620000fa565b620000dc565b9050828152602081018484840111156200018e576200018d62000065565b5b6200019b8482856200012f565b509392505050565b5f82601f830112620001ba57620001b962000061565b5b8151620001cc84826020860162000159565b91505092915050565b5f60208284031215620001ed57620001ec62000059565b5b5f82015167ffffffffffffffff8111156200020d576200020c6200005d565b5b6200021b84828501620001a3565b91505092915050565b5f81519050919050565b7f4e487b71000000000000000000000000000000000000000000000000000000005f52602260045260245ffd5b5f60028204905060018216806200027357607f821691505b6020821081036200028957620002886200022e565b5b50919050565b5f819050815f5260205f209050919050565b5f6020601f8301049050919050565b5f82821b905092915050565b5f60088302620002ed7fffffffffffffffffffffffffffffffffffffffffffffffffffffffffffffffff82620002b0565b620002f98683620002b0565b95508019841693508086168417925050509392505050565b5f819050919050565b5f819050919050565b5f620003436200033d620003378462000311565b6200031a565b62000311565b9050919050565b5f819050919050565b6200035e8362000323565b620003766200036d826200034a565b848454620002bc565b825550505050565b5f90565b6200038c6200037e565b6200039981848462000353565b505050565b5b81811015620003c057620003b45f8262000382565b6001810190506200039f565b5050565b601f8211156200040f57620003d9816200028f565b620003e484620002a1565b81016020851015620003f4578190505b6200040c6200040385620002a1565b8301826200039e565b50505b505050565b5f82821c905092915050565b5f620004315f198460080262000414565b1980831691505092915050565b5f6200044b838362000420565b9150826002028217905092915050565b620004668262000224565b67ffffffffffffffff81111562000482576200048162000079565b5b6200048e82546200025b565b6200049b828285620003c4565b5f60209050601f831160018114620004d1575f8415620004bc578287015190505b620004c885826200043e565b86555062000537565b601f198416620004e1866200028f565b5f5b828110156200050a57848901518255600182019150602085019450602081019050620004e3565b868310156200052a578489015162000526601f89168262000420565b8355505b6001600288020188555050505b505050505050565b6106b4806200054d5f395ff3fe608060405234801561000f575f80fd5b506004361061004a575f3560e01c8063133a473e1461004e57806350d853151461006c578063728d9b741461008a578063d28d8852146100ba575b5f80fd5b6100566100d8565b604051610063919061037a565b60405180910390f35b610074610115565b604051610081919061037a565b60405180910390f35b6100a4600480360381019061009f91906104d7565b610152565b6040516100b1919061037a565b60405180910390f35b6100c26101e4565b6040516100cf919061037a565b60405180910390f35b60606040518060400160405280600b81526020017f5a2d7a2d7a2d7a2d7a2d7a000000000000000000000000000000000000000000815250905090565b60606040518060400160405280600581526020017f49676f676f000000000000000000000000000000000000000000000000000000815250905090565b606081610194816040518060400160405280600581526020017f706c616e7400000000000000000000000000000000000000000000000000000081525061026f565b6101d3576040517f08c379a00000000000000000000000000000000000000000000000000000000081526004016101ca90610568565b60405180910390fd5b6101dc836102c7565b915050919050565b5f80546101f0906105b3565b80601f016020809104026020016040519081016040528092919081815260200182805461021c906105b3565b80156102675780601f1061023e57610100808354040283529160200191610267565b820191905f5260205f20905b81548152906001019060200180831161024a57829003601f168201915b505050505081565b5f81604051602001610281919061061d565b60405160208183030381529060405280519060200120836040516020016102a8919061061d565b6040516020818303038152906040528051906020012014905092915050565b6060816040516020016102da9190610659565b6040516020818303038152906040529050919050565b5f81519050919050565b5f82825260208201905092915050565b5f5b8381101561032757808201518184015260208101905061030c565b5f8484015250505050565b5f601f19601f8301169050919050565b5f61034c826102f0565b61035681856102fa565b935061036681856020860161030a565b61036f81610332565b840191505092915050565b5f6020820190508181035f8301526103928184610342565b905092915050565b5f604051905090565b5f80fd5b5f80fd5b5f80fd5b5f80fd5b7f4e487b71000000000000000000000000000000000000000000000000000000005f52604160045260245ffd5b6103e982610332565b810181811067ffffffffffffffff82111715610408576104076103b3565b5b80604052505050565b5f61041a61039a565b905061042682826103e0565b919050565b5f67ffffffffffffffff821115610445576104446103b3565b5b61044e82610332565b9050602081019050919050565b828183375f83830152505050565b5f61047b6104768461042b565b610411565b905082815260208101848484011115610497576104966103af565b5b6104a284828561045b565b509392505050565b5f82601f8301126104be576104bd6103ab565b5b81356104ce848260208601610469565b91505092915050565b5f602082840312156104ec576104eb6103a3565b5b5f82013567ffffffffffffffff811115610509576105086103a7565b5b610515848285016104aa565b91505092915050565b7f43616e206f6e6c792065617420706c616e7420666f6f640000000000000000005f82015250565b5f6105526017836102fa565b915061055d8261051e565b602082019050919050565b5f6020820190508181035f83015261057f81610546565b9050919050565b7f4e487b71000000000000000000000000000000000000000000000000000000005f52602260045260245ffd5b5f60028204905060018216806105ca57607f821691505b6020821081036105dd576105dc610586565b5b50919050565b5f81905092915050565b5f6105f7826102f0565b61060181856105e3565b935061061181856020860161030a565b80840191505092915050565b5f61062882846105ed565b915081905092915050565b7f416e696d616c2065617473000000000000000000000000000000000000000000815250565b5f61066382610633565b600b8201915061067382846105ed565b91508190509291505056fea2646970667358221220e9ce47a9b1512ea55327d05a425e71e3fa16a0ae721d8d89d31e3f5994b7f9e164736f6c63430008170033608060405234801562000010575f80fd5b5060405162000c0138038062000c018339818101604052810190620000369190620001d5565b80805f90816200004791906200045b565b5050506200053f565b5f604051905090565b5f80fd5b5f80fd5b5f80fd5b5f80fd5b5f601f19601f8301169050919050565b7f4e487b71000000000000000000000000000000000000000000000000000000005f52604160045260245ffd5b620000b18262000069565b810181811067ffffffffffffffff82111715620000d357620000d262000079565b5b80604052505050565b5f620000e762000050565b9050620000f58282620000a6565b919050565b5f67ffffffffffffffff82111562000117576200011662000079565b5b620001228262000069565b9050602081019050919050565b5f5b838110156200014e57808201518184015260208101905062000131565b5f8484015250505050565b5f6200016f6200016984620000fa565b620000dc565b9050828152602081018484840111156200018e576200018d62000065565b5b6200019b8482856200012f565b509392505050565b5f82601f830112620001ba57620001b962000061565b5b8151620001cc84826020860162000159565b91505092915050565b5f60208284031215620001ed57620001ec62000059565b5b5f82015167ffffffffffffffff8111156200020d576200020c6200005d565b5b6200021b84828501620001a3565b91505092915050565b5f81519050919050565b7f4e487b71000000000000000000000000000000000000000000000000000000005f52602260045260245ffd5b5f60028204905060018216806200027357607f821691505b6020821081036200028957620002886200022e565b5b50919050565b5f819050815f5260205f209050919050565b5f6020601f8301049050919050565b5f82821b905092915050565b5f60088302620002ed7fffffffffffffffffffffffffffffffffffffffffffffffffffffffffffffffff82620002b0565b620002f98683620002b0565b95508019841693508086168417925050509392505050565b5f819050919050565b5f819050919050565b5f620003436200033d620003378462000311565b6200031a565b62000311565b9050919050565b5f819050919050565b6200035e8362000323565b620003766200036d826200034a565b848454620002bc565b825550505050565b5f90565b6200038c6200037e565b6200039981848462000353565b505050565b5b81811015620003c057620003b45f8262000382565b6001810190506200039f565b5050565b601f8211156200040f57620003d9816200028f565b620003e484620002a1565b81016020851015620003f4578190505b6200040c6200040385620002a1565b8301826200039e565b50505b505050565b5f82821c905092915050565b5f620004315f198460080262000414565b1980831691505092915050565b5f6200044b838362000420565b9150826002028217905092915050565b620004668262000224565b67ffffffffffffffff81111562000482576200048162000079565b5b6200048e82546200025b565b6200049b828285620003c4565b5f60209050601f831160018114620004d1575f8415620004bc578287015190505b620004c885826200043e565b86555062000537565b601f198416620004e1866200028f565b5f5b828110156200050a57848901518255600182019150602085019450602081019050620004e3565b868310156200052a578489015162000526601f89168262000420565b8355505b6001600288020188555050505b505050505050565b6106b4806200054d5f395ff3fe608060405234801561000f575f80fd5b506004361061004a575f3560e01c8063133a473e1461004e57806350d853151461006c578063728d9b741461008a578063d28d8852146100ba575b5f80fd5b6100566100d8565b604051610063919061037a565b60405180910390f35b610074610115565b604051610081919061037a565b60405180910390f35b6100a4600480360381019061009f91906104d7565b610152565b6040516100b1919061037a565b60405180910390f35b6100c26101e4565b6040516100cf919061037a565b60405180910390f35b60606040518060400160405280600b81526020017f5a2d7a2d7a2d7a2d7a2d7a000000000000000000000000000000000000000000815250905090565b60606040518060400160405280600681526020017f4d6f6f6f6f6f0000000000000000000000000000000000000000000000000000815250905090565b606081610194816040518060400160405280600581526020017f706c616e7400000000000000000000000000000000000000000000000000000081525061026f565b6101d3576040517f08c379a00000000000000000000000000000000000000000000000000000000081526004016101ca90610568565b60405180910390fd5b6101dc836102c7565b915050919050565b5f80546101f0906105b3565b80601f016020809104026020016040519081016040528092919081815260200182805461021c906105b3565b80156102675780601f1061023e57610100808354040283529160200191610267565b820191905f5260205f20905b81548152906001019060200180831161024a57829003601f168201915b505050505081565b5f81604051602001610281919061061d565b60405160208183030381529060405280519060200120836040516020016102a8919061061d565b6040516020818303038152906040528051906020012014905092915050565b6060816040516020016102da9190610659565b6040516020818303038152906040529050919050565b5f81519050919050565b5f82825260208201905092915050565b5f5b8381101561032757808201518184015260208101905061030c565b5f8484015250505050565b5f601f19601f8301169050919050565b5f61034c826102f0565b61035681856102fa565b935061036681856020860161030a565b61036f81610332565b840191505092915050565b5f6020820190508181035f8301526103928184610342565b905092915050565b5f604051905090565b5f80fd5b5f80fd5b5f80fd5b5f80fd5b7f4e487b71000000000000000000000000000000000000000000000000000000005f52604160045260245ffd5b6103e982610332565b810181811067ffffffffffffffff82111715610408576104076103b3565b5b80604052505050565b5f61041a61039a565b905061042682826103e0565b919050565b5f67ffffffffffffffff821115610445576104446103b3565b5b61044e82610332565b9050602081019050919050565b828183375f83830152505050565b5f61047b6104768461042b565b610411565b905082815260208101848484011115610497576104966103af565b5b6104a284828561045b565b509392505050565b5f82601f8301126104be576104bd6103ab565b5b81356104ce848260208601610469565b91505092915050565b5f602082840312156104ec576104eb6103a3565b5b5f82013567ffffffffffffffff811115610509576105086103a7565b5b610515848285016104aa565b91505092915050565b7f43616e206f6e6c792065617420706c616e7420666f6f640000000000000000005f82015250565b5f6105526017836102fa565b915061055d8261051e565b602082019050919050565b5f6020820190508181035f83015261057f81610546565b9050919050565b7f4e487b71000000000000000000000000000000000000000000000000000000005f52602260045260245ffd5b5f60028204905060018216806105ca57607f821691505b6020821081036105dd576105dc610586565b5b50919050565b5f81905092915050565b5f6105f7826102f0565b61060181856105e3565b935061061181856020860161030a565b80840191505092915050565b5f61062882846105ed565b915081905092915050565b7f416e696d616c2065617473000000000000000000000000000000000000000000815250565b5f61066382610633565b600b8201915061067382846105ed565b91508190509291505056fea2646970667358221220acf7e4c31d028ca2fb837d98e9b7396999fa7523788b6239da2cb1ed7afca0f064736f6c63430008170033608060405234801562000010575f80fd5b5060405162000bb838038062000bb88339818101604052810190620000369190620001d5565b80805f90816200004791906200045b565b5050506200053f565b5f604051905090565b5f80fd5b5f80fd5b5f80fd5b5f80fd5b5f601f19601f8301169050919050565b7f4e487b71000000000000000000000000000000000000000000000000000000005f52604160045260245ffd5b620000b18262000069565b810181811067ffffffffffffffff82111715620000d357620000d262000079565b5b80604052505050565b5f620000e762000050565b9050620000f58282620000a6565b919050565b5f67ffffffffffffffff82111562000117576200011662000079565b5b620001228262000069565b9050602081019050919050565b5f5b838110156200014e57808201518184015260208101905062000131565b5f8484015250505050565b5f6200016f6200016984620000fa565b620000dc565b9050828152602081018484840111156200018e576200018d62000065565b5b6200019b8482856200012f565b509392505050565b5f82601f830112620001ba57620001b962000061565b5b8151620001cc84826020860162000159565b91505092915050565b5f60208284031215620001ed57620001ec62000059565b5b5f82015167ffffffffffffffff8111156200020d576200020c6200005d565b5b6200021b84828501620001a3565b91505092915050565b5f81519050919050565b7f4e487b71000000000000000000000000000000000000000000000000000000005f52602260045260245ffd5b5f60028204905060018216806200027357607f821691505b6020821081036200028957620002886200022e565b5b50919050565b5f819050815f5260205f209050919050565b5f6020601f8301049050919050565b5f82821b905092915050565b5f60088302620002ed7fffffffffffffffffffffffffffffffffffffffffffffffffffffffffffffffff82620002b0565b620002f98683620002b0565b95508019841693508086168417925050509392505050565b5f819050919050565b5f819050919050565b5f620003436200033d620003378462000311565b6200031a565b62000311565b9050919050565b5f819050919050565b6200035e8362000323565b620003766200036d826200034a565b848454620002bc565b825550505050565b5f90565b6200038c6200037e565b6200039981848462000353565b505050565b5b81811015620003c057620003b45f8262000382565b6001810190506200039f565b5050565b601f8211156200040f57620003d9816200028f565b620003e484620002a1565b81016020851015620003f4578190505b6200040c6200040385620002a1565b8301826200039e565b50505b505050565b5f82821c905092915050565b5f620004315f198460080262000414565b1980831691505092915050565b5f6200044b838362000420565b9150826002028217905092915050565b620004668262000224565b67ffffffffffffffff81111562000482576200048162000079565b5b6200048e82546200025b565b6200049b828285620003c4565b5f60209050601f831160018114620004d1575f8415620004bc578287015190505b620004c885826200043e565b86555062000537565b601f198416620004e1866200028f565b5f5b828110156200050a57848901518255600182019150602085019450602081019050620004e3565b868310156200052a578489015162000526601f89168262000420565b8355505b6001600288020188555050505b505050505050565b61066b806200054d5f395ff3fe608060405234801561000f575f80fd5b506004361061004a575f3560e01c8063133a473e1461004e57806350d853151461006c578063728d9b741461008a578063d28d8852146100ba575b5f80fd5b6100566100d8565b604051610063919061037c565b60405180910390f35b610074610115565b604051610081919061037c565b60405180910390f35b6100a4600480360381019061009f91906104d9565b610152565b6040516100b1919061037c565b60405180910390f35b6100c261020f565b6040516100cf919061037c565b60405180910390f35b60606040518060400160405280600b81526020017f5a2d7a2d7a2d7a2d7a2d7a000000000000000000000000000000000000000000815250905090565b60606040518060400160405280600481526020017f41776f6f00000000000000000000000000000000000000000000000000000000815250905090565b6060610193826040518060400160405280600481526020017f6d6561740000000000000000000000000000000000000000000000000000000081525061029a565b6101d2576040517f08c379a00000000000000000000000000000000000000000000000000000000081526004016101c99061056a565b60405180910390fd5b6040518060400160405280600e81526020017f576f6c662065617473206d6561740000000000000000000000000000000000008152509050919050565b5f805461021b906105b5565b80601f0160208091040260200160405190810160405280929190818152602001828054610247906105b5565b80156102925780601f1061026957610100808354040283529160200191610292565b820191905f5260205f20905b81548152906001019060200180831161027557829003601f168201915b505050505081565b5f816040516020016102ac919061061f565b60405160208183030381529060405280519060200120836040516020016102d3919061061f565b6040516020818303038152906040528051906020012014905092915050565b5f81519050919050565b5f82825260208201905092915050565b5f5b8381101561032957808201518184015260208101905061030e565b5f8484015250505050565b5f601f19601f8301169050919050565b5f61034e826102f2565b61035881856102fc565b935061036881856020860161030c565b61037181610334565b840191505092915050565b5f6020820190508181035f8301526103948184610344565b905092915050565b5f604051905090565b5f80fd5b5f80fd5b5f80fd5b5f80fd5b7f4e487b71000000000000000000000000000000000000000000000000000000005f52604160045260245ffd5b6103eb82610334565b810181811067ffffffffffffffff8211171561040a576104096103b5565b5b80604052505050565b5f61041c61039c565b905061042882826103e2565b919050565b5f67ffffffffffffffff821115610447576104466103b5565b5b61045082610334565b9050602081019050919050565b828183375f83830152505050565b5f61047d6104788461042d565b610413565b905082815260208101848484011115610499576104986103b1565b5b6104a484828561045d565b509392505050565b5f82601f8301126104c0576104bf6103ad565b5b81356104d084826020860161046b565b91505092915050565b5f602082840312156104ee576104ed6103a5565b5b5f82013567ffffffffffffffff81111561050b5761050a6103a9565b5b610517848285016104ac565b91505092915050565b7f576f6c7665732063616e206f6e6c7920656174206d65617400000000000000005f82015250565b5f6105546018836102fc565b915061055f82610520565b602082019050919050565b5f6020820190508181035f83015261058181610548565b9050919050565b7f4e487b71000000000000000000000000000000000000000000000000000000005f52602260045260245ffd5b5f60028204905060018216806105cc57607f821691505b6020821081036105df576105de610588565b5b50919050565b5f81905092915050565b5f6105f9826102f2565b61060381856105e5565b935061061381856020860161030c565b80840191505092915050565b5f61062a82846105ef565b91508190509291505056fea26469706673582212208eb0d882ca9749b13d2806f5252552a8ca3fd698d3b0258e03badec7acd48e4364736f6c63430008170033608060405234801562000010575f80fd5b5060405162000ce538038062000ce58339818101604052810190620000369190620001d5565b80805f90816200004791906200045b565b5050506200053f565b5f604051905090565b5f80fd5b5f80fd5b5f80fd5b5f80fd5b5f601f19601f8301169050919050565b7f4e487b71000000000000000000000000000000000000000000000000000000005f52604160045260245ffd5b620000b18262000069565b810181811067ffffffffffffffff82111715620000d357620000d262000079565b5b80604052505050565b5f620000e762000050565b9050620000f58282620000a6565b919050565b5f67ffffffffffffffff82111562000117576200011662000079565b5b620001228262000069565b9050602081019050919050565b5f5b838110156200014e57808201518184015260208101905062000131565b5f8484015250505050565b5f6200016f6200016984620000fa565b620000dc565b9050828152602081018484840111156200018e576200018d62000065565b5b6200019b8482856200012f565b509392505050565b5f82601f830112620001ba57620001b962000061565b5b8151620001cc84826020860162000159565b91505092915050565b5f60208284031215620001ed57620001ec62000059565b5b5f82015167ffffffffffffffff8111156200020d576200020c6200005d565b5b6200021b84828501620001a3565b91505092915050565b5f81519050919050565b7f4e487b71000000000000000000000000000000000000000000000000000000005f52602260045260245ffd5b5f60028204905060018216806200027357607f821691505b6020821081036200028957620002886200022e565b5b50919050565b5f819050815f5260205f209050919050565b5f6020601f8301049050919050565b5f82821b905092915050565b5f60088302620002ed7fffffffffffffffffffffffffffffffffffffffffffffffffffffffffffffffff82620002b0565b620002f98683620002b0565b95508019841693508086168417925050509392505050565b5f819050919050565b5f819050919050565b5f620003436200033d620003378462000311565b6200031a565b62000311565b9050919050565b5f819050919050565b6200035e8362000323565b620003766200036d826200034a565b848454620002bc565b825550505050565b5f90565b6200038c6200037e565b6200039981848462000353565b505050565b5b81811015620003c057620003b45f8262000382565b6001810190506200039f565b5050565b601f8211156200040f57620003d9816200028f565b620003e484620002a1565b81016020851015620003f4578190505b6200040c6200040385620002a1565b8301826200039e565b50505b505050565b5f82821c905092915050565b5f620004315f198460080262000414565b1980831691505092915050565b5f6200044b838362000420565b9150826002028217905092915050565b620004668262000224565b67ffffffffffffffff81111562000482576200048162000079565b5b6200048e82546200025b565b6200049b828285620003c4565b5f60209050601f831160018114620004d1575f8415620004bc578287015190505b620004c885826200043e565b86555062000537565b601f198416620004e1866200028f565b5f5b828110156200050a57848901518255600182019150602085019450602081019050620004e3565b868310156200052a578489015162000526601f89168262000420565b8355505b6001600288020188555050505b505050505050565b610798806200054d5f395ff3fe608060405234801561000f575f80fd5b506004361061004a575f3560e01c8063133a473e1461004e57806350d853151461006c578063728d9b741461008a578063d28d8852146100ba575b5f80fd5b6100566100d8565b6040516100639190610441565b60405180910390f35b610074610115565b6040516100819190610441565b60405180910390f35b6100a4600480360381019061009f919061059e565b610152565b6040516100b19190610441565b60405180910390f35b6100c26102d4565b6040516100cf9190610441565b60405180910390f35b60606040518060400160405280600b81526020017f5a2d7a2d7a2d7a2d7a2d7a000000000000000000000000000000000000000000815250905090565b60606040518060400160405280600481526020017f576f6f6600000000000000000000000000000000000000000000000000000000815250905090565b6060610193826040518060400160405280600481526020017f6d6561740000000000000000000000000000000000000000000000000000000081525061035f565b806101d957506101d8826040518060400160405280600581526020017f706c616e7400000000000000000000000000000000000000000000000000000081525061035f565b5b610218576040517f08c379a000000000000000000000000000000000000000000000000000000000815260040161020f9061062f565b60405180910390fd5b610257826040518060400160405280600981526020017f63686f636f6c617465000000000000000000000000000000000000000000000081525061035f565b15610297576040517f08c379a000000000000000000000000000000000000000000000000000000000815260040161028e90610697565b60405180910390fd5b6040518060400160405280600981526020017f446f6720656174732000000000000000000000000000000000000000000000008152509050919050565b5f80546102e0906106e2565b80601f016020809104026020016040519081016040528092919081815260200182805461030c906106e2565b80156103575780601f1061032e57610100808354040283529160200191610357565b820191905f5260205f20905b81548152906001019060200180831161033a57829003601f168201915b505050505081565b5f81604051602001610371919061074c565b6040516020818303038152906040528051906020012083604051602001610398919061074c565b6040516020818303038152906040528051906020012014905092915050565b5f81519050919050565b5f82825260208201905092915050565b5f5b838110156103ee5780820151818401526020810190506103d3565b5f8484015250505050565b5f601f19601f8301169050919050565b5f610413826103b7565b61041d81856103c1565b935061042d8185602086016103d1565b610436816103f9565b840191505092915050565b5f6020820190508181035f8301526104598184610409565b905092915050565b5f604051905090565b5f80fd5b5f80fd5b5f80fd5b5f80fd5b7f4e487b71000000000000000000000000000000000000000000000000000000005f52604160045260245ffd5b6104b0826103f9565b810181811067ffffffffffffffff821117156104cf576104ce61047a565b5b80604052505050565b5f6104e1610461565b90506104ed82826104a7565b919050565b5f67ffffffffffffffff82111561050c5761050b61047a565b5b610515826103f9565b9050602081019050919050565b828183375f83830152505050565b5f61054261053d846104f2565b6104d8565b90508281526020810184848401111561055e5761055d610476565b5b610569848285610522565b509392505050565b5f82601f83011261058557610584610472565b5b8135610595848260208601610530565b91505092915050565b5f602082840312156105b3576105b261046a565b5b5f82013567ffffffffffffffff8111156105d0576105cf61046e565b5b6105dc84828501610571565b91505092915050565b7f446f67732063616e206f6e6c7920656174206d656174206f7220706c616e74735f82015250565b5f6106196020836103c1565b9150610624826105e5565b602082019050919050565b5f6020820190508181035f8301526106468161060d565b9050919050565b7f43686f636f6c617465206973206861726d66756c20666f7220646f67730000005f82015250565b5f610681601d836103c1565b915061068c8261064d565b602082019050919050565b5f6020820190508181035f8301526106ae81610675565b9050919050565b7f4e487b71000000000000000000000000000000000000000000000000000000005f52602260045260245ffd5b5f60028204905060018216806106f957607f821691505b60208210810361070c5761070b6106b5565b5b50919050565b5f81905092915050565b5f610726826103b7565b6107308185610712565b93506107408185602086016103d1565b80840191505092915050565b5f610757828461071c565b91508190509291505056fea264697066735822122070f0e68e8ccdf86eaf79f59eede522da42903e86c5b2094f2be213ff76a6030664736f6c63430008170033a26469706673582212207b1c7ecb49fb1b0435f0e4cda60b33bc5318664e197e1e6662aec11c84e5fe8364736f6c63430008170033",
			"opcodes": "PUSH1 0x80 PUSH1 0x40 MSTORE CALLVALUE DUP1 ISZERO PUSH2 0xF JUMPI PUSH0 DUP1 REVERT JUMPDEST POP PUSH2 0x39AC DUP1 PUSH2 0x1D PUSH0 CODECOPY PUSH0 RETURN INVALID PUSH1 0x80 PUSH1 0x40 MSTORE CALLVALUE DUP1 ISZERO PUSH3 0x10 JUMPI PUSH0 DUP1 REVERT JUMPDEST POP PUSH1 0x4 CALLDATASIZE LT PUSH3 0x68 JUMPI PUSH0 CALLDATALOAD PUSH1 0xE0 SHR DUP1 PUSH4 0x5AA6E50 EQ PUSH3 0x6C JUMPI DUP1 PUSH4 0x2901F073 EQ PUSH3 0x8C JUMPI DUP1 PUSH4 0x2A70C1BE EQ PUSH3 0xAC JUMPI DUP1 PUSH4 0x337612DB EQ PUSH3 0xCC JUMPI DUP1 PUSH4 0xB9B3832B EQ PUSH3 0x102 JUMPI DUP1 PUSH4 0xF55332AB EQ PUSH3 0x122 JUMPI JUMPDEST PUSH0 DUP1 REVERT JUMPDEST PUSH3 0x8A PUSH1 0x4 DUP1 CALLDATASIZE SUB DUP2 ADD SWAP1 PUSH3 0x84 SWAP2 SWAP1 PUSH3 0x5DF JUMP JUMPDEST PUSH3 0x158 JUMP JUMPDEST STOP JUMPDEST PUSH3 0xAA PUSH1 0x4 DUP1 CALLDATASIZE SUB DUP2 ADD SWAP1 PUSH3 0xA4 SWAP2 SWAP1 PUSH3 0x5DF JUMP JUMPDEST PUSH3 0x1D0 JUMP JUMPDEST STOP JUMPDEST PUSH3 0xCA PUSH1 0x4 DUP1 CALLDATASIZE SUB DUP2 ADD SWAP1 PUSH3 0xC4 SWAP2 SWAP1 PUSH3 0x5DF JUMP JUMPDEST PUSH3 0x248 JUMP JUMPDEST STOP JUMPDEST PUSH3 0xEA PUSH1 0x4 DUP1 CALLDATASIZE SUB DUP2 ADD SWAP1 PUSH3 0xE4 SWAP2 SWAP1 PUSH3 0x68F JUMP JUMPDEST PUSH3 0x2C0 JUMP JUMPDEST PUSH1 0x40 MLOAD PUSH3 0xF9 SWAP2 SWAP1 PUSH3 0x777 JUMP JUMPDEST PUSH1 0x40 MLOAD DUP1 SWAP2 SUB SWAP1 RETURN JUMPDEST PUSH3 0x120 PUSH1 0x4 DUP1 CALLDATASIZE SUB DUP2 ADD SWAP1 PUSH3 0x11A SWAP2 SWAP1 PUSH3 0x5DF JUMP JUMPDEST PUSH3 0x34A JUMP JUMPDEST STOP JUMPDEST PUSH3 0x140 PUSH1 0x4 DUP1 CALLDATASIZE SUB DUP2 ADD SWAP1 PUSH3 0x13A SWAP2 SWAP1 PUSH3 0x799 JUMP JUMPDEST PUSH3 0x3C2 JUMP JUMPDEST PUSH1 0x40 MLOAD PUSH3 0x14F SWAP2 SWAP1 PUSH3 0x777 JUMP JUMPDEST PUSH1 0x40 MLOAD DUP1 SWAP2 SUB SWAP1 RETURN JUMPDEST PUSH0 DUP2 PUSH1 0x40 MLOAD PUSH3 0x168 SWAP1 PUSH3 0x43E JUMP JUMPDEST PUSH3 0x174 SWAP2 SWAP1 PUSH3 0x777 JUMP JUMPDEST PUSH1 0x40 MLOAD DUP1 SWAP2 SUB SWAP1 PUSH0 CREATE DUP1 ISZERO DUP1 ISZERO PUSH3 0x18E JUMPI RETURNDATASIZE PUSH0 DUP1 RETURNDATACOPY RETURNDATASIZE PUSH0 REVERT JUMPDEST POP SWAP1 POP PUSH32 0x8C6CDCCDB41F99C9CC76F22BB2EB5D4CAB205E66EA40308652D818281EA01B97 DUP3 DUP3 PUSH1 0x40 MLOAD PUSH3 0x1C4 SWAP3 SWAP2 SWAP1 PUSH3 0x7DA JUMP JUMPDEST PUSH1 0x40 MLOAD DUP1 SWAP2 SUB SWAP1 LOG1 POP POP JUMP JUMPDEST PUSH0 DUP2 PUSH1 0x40 MLOAD PUSH3 0x1E0 SWAP1 PUSH3 0x44C JUMP JUMPDEST PUSH3 0x1EC SWAP2 SWAP1 PUSH3 0x777 JUMP JUMPDEST PUSH1 0x40 MLOAD DUP1 SWAP2 SUB SWAP1 PUSH0 CREATE DUP1 ISZERO DUP1 ISZERO PUSH3 0x206 JUMPI RETURNDATASIZE PUSH0 DUP1 RETURNDATACOPY RETURNDATASIZE PUSH0 REVERT JUMPDEST POP SWAP1 POP PUSH32 0x8C6CDCCDB41F99C9CC76F22BB2EB5D4CAB205E66EA40308652D818281EA01B97 DUP3 DUP3 PUSH1 0x40 MLOAD PUSH3 0x23C SWAP3 SWAP2 SWAP1 PUSH3 0x7DA JUMP JUMPDEST PUSH1 0x40 MLOAD DUP1 SWAP2 SUB SWAP1 LOG1 POP POP JUMP JUMPDEST PUSH0 DUP2 PUSH1 0x40 MLOAD PUSH3 0x258 SWAP1 PUSH3 0x45A JUMP JUMPDEST PUSH3 0x264 SWAP2 SWAP1 PUSH3 0x777 JUMP JUMPDEST PUSH1 0x40 MLOAD DUP1 SWAP2 SUB SWAP1 PUSH0 CREATE DUP1 ISZERO DUP1 ISZERO PUSH3 0x27E JUMPI RETURNDATASIZE PUSH0 DUP1 RETURNDATACOPY RETURNDATASIZE PUSH0 REVERT JUMPDEST POP SWAP1 POP PUSH32 0x8C6CDCCDB41F99C9CC76F22BB2EB5D4CAB205E66EA40308652D818281EA01B97 DUP3 DUP3 PUSH1 0x40 MLOAD PUSH3 0x2B4 SWAP3 SWAP2 SWAP1 PUSH3 0x7DA JUMP JUMPDEST PUSH1 0x40 MLOAD DUP1 SWAP2 SUB SWAP1 LOG1 POP POP JUMP JUMPDEST PUSH1 0x60 DUP3 PUSH20 0xFFFFFFFFFFFFFFFFFFFFFFFFFFFFFFFFFFFFFFFF AND PUSH4 0x728D9B74 DUP4 PUSH1 0x40 MLOAD DUP3 PUSH4 0xFFFFFFFF AND PUSH1 0xE0 SHL DUP2 MSTORE PUSH1 0x4 ADD PUSH3 0x2FD SWAP2 SWAP1 PUSH3 0x777 JUMP JUMPDEST PUSH0 PUSH1 0x40 MLOAD DUP1 DUP4 SUB DUP2 DUP7 GAS STATICCALL ISZERO DUP1 ISZERO PUSH3 0x318 JUMPI RETURNDATASIZE PUSH0 DUP1 RETURNDATACOPY RETURNDATASIZE PUSH0 REVERT JUMPDEST POP POP POP POP PUSH1 0x40 MLOAD RETURNDATASIZE PUSH0 DUP3 RETURNDATACOPY RETURNDATASIZE PUSH1 0x1F NOT PUSH1 0x1F DUP3 ADD AND DUP3 ADD DUP1 PUSH1 0x40 MSTORE POP DUP2 ADD SWAP1 PUSH3 0x342 SWAP2 SWAP1 PUSH3 0x888 JUMP JUMPDEST SWAP1 POP SWAP3 SWAP2 POP POP JUMP JUMPDEST PUSH0 DUP2 PUSH1 0x40 MLOAD PUSH3 0x35A SWAP1 PUSH3 0x468 JUMP JUMPDEST PUSH3 0x366 SWAP2 SWAP1 PUSH3 0x777 JUMP JUMPDEST PUSH1 0x40 MLOAD DUP1 SWAP2 SUB SWAP1 PUSH0 CREATE DUP1 ISZERO DUP1 ISZERO PUSH3 0x380 JUMPI RETURNDATASIZE PUSH0 DUP1 RETURNDATACOPY RETURNDATASIZE PUSH0 REVERT JUMPDEST POP SWAP1 POP PUSH32 0x8C6CDCCDB41F99C9CC76F22BB2EB5D4CAB205E66EA40308652D818281EA01B97 DUP3 DUP3 PUSH1 0x40 MLOAD PUSH3 0x3B6 SWAP3 SWAP2 SWAP1 PUSH3 0x7DA JUMP JUMPDEST PUSH1 0x40 MLOAD DUP1 SWAP2 SUB SWAP1 LOG1 POP POP JUMP JUMPDEST PUSH1 0x60 DUP2 PUSH20 0xFFFFFFFFFFFFFFFFFFFFFFFFFFFFFFFFFFFFFFFF AND PUSH4 0x50D85315 PUSH1 0x40 MLOAD DUP2 PUSH4 0xFFFFFFFF AND PUSH1 0xE0 SHL DUP2 MSTORE PUSH1 0x4 ADD PUSH0 PUSH1 0x40 MLOAD DUP1 DUP4 SUB DUP2 DUP7 GAS STATICCALL ISZERO DUP1 ISZERO PUSH3 0x40D JUMPI RETURNDATASIZE PUSH0 DUP1 RETURNDATACOPY RETURNDATASIZE PUSH0 REVERT JUMPDEST POP POP POP POP PUSH1 0x40 MLOAD RETURNDATASIZE PUSH0 DUP3 RETURNDATACOPY RETURNDATASIZE PUSH1 0x1F NOT PUSH1 0x1F DUP3 ADD AND DUP3 ADD DUP1 PUSH1 0x40 MSTORE POP DUP2 ADD SWAP1 PUSH3 0x437 SWAP2 SWAP1 PUSH3 0x888 JUMP JUMPDEST SWAP1 POP SWAP2 SWAP1 POP JUMP JUMPDEST PUSH2 0xC01 DUP1 PUSH3 0x8D8 DUP4 CODECOPY ADD SWAP1 JUMP JUMPDEST PUSH2 0xC01 DUP1 PUSH3 0x14D9 DUP4 CODECOPY ADD SWAP1 JUMP JUMPDEST PUSH2 0xBB8 DUP1 PUSH3 0x20DA DUP4 CODECOPY ADD SWAP1 JUMP JUMPDEST PUSH2 0xCE5 DUP1 PUSH3 0x2C92 DUP4 CODECOPY ADD SWAP1 JUMP JUMPDEST PUSH0 PUSH1 0x40 MLOAD SWAP1 POP SWAP1 JUMP JUMPDEST PUSH0 DUP1 REVERT JUMPDEST PUSH0 DUP1 REVERT JUMPDEST PUSH0 DUP1 REVERT JUMPDEST PUSH0 DUP1 REVERT JUMPDEST PUSH0 PUSH1 0x1F NOT PUSH1 0x1F DUP4 ADD AND SWAP1 POP SWAP2 SWAP1 POP JUMP JUMPDEST PUSH32 0x4E487B7100000000000000000000000000000000000000000000000000000000 PUSH0 MSTORE PUSH1 0x41 PUSH1 0x4 MSTORE PUSH1 0x24 PUSH0 REVERT JUMPDEST PUSH3 0x4D7 DUP3 PUSH3 0x48F JUMP JUMPDEST DUP2 ADD DUP2 DUP2 LT PUSH8 0xFFFFFFFFFFFFFFFF DUP3 GT OR ISZERO PUSH3 0x4F9 JUMPI PUSH3 0x4F8 PUSH3 0x49F JUMP JUMPDEST JUMPDEST DUP1 PUSH1 0x40 MSTORE POP POP POP JUMP JUMPDEST PUSH0 PUSH3 0x50D PUSH3 0x476 JUMP JUMPDEST SWAP1 POP PUSH3 0x51B DUP3 DUP3 PUSH3 0x4CC JUMP JUMPDEST SWAP2 SWAP1 POP JUMP JUMPDEST PUSH0 PUSH8 0xFFFFFFFFFFFFFFFF DUP3 GT ISZERO PUSH3 0x53D JUMPI PUSH3 0x53C PUSH3 0x49F JUMP JUMPDEST JUMPDEST PUSH3 0x548 DUP3 PUSH3 0x48F JUMP JUMPDEST SWAP1 POP PUSH1 0x20 DUP2 ADD SWAP1 POP SWAP2 SWAP1 POP JUMP JUMPDEST DUP3 DUP2 DUP4 CALLDATACOPY PUSH0 DUP4 DUP4 ADD MSTORE POP POP POP JUMP JUMPDEST PUSH0 PUSH3 0x579 PUSH3 0x573 DUP5 PUSH3 0x520 JUMP JUMPDEST PUSH3 0x502 JUMP JUMPDEST SWAP1 POP DUP3 DUP2 MSTORE PUSH1 0x20 DUP2 ADD DUP5 DUP5 DUP5 ADD GT ISZERO PUSH3 0x598 JUMPI PUSH3 0x597 PUSH3 0x48B JUMP JUMPDEST JUMPDEST PUSH3 0x5A5 DUP5 DUP3 DUP6 PUSH3 0x555 JUMP JUMPDEST POP SWAP4 SWAP3 POP POP POP JUMP JUMPDEST PUSH0 DUP3 PUSH1 0x1F DUP4 ADD SLT PUSH3 0x5C4 JUMPI PUSH3 0x5C3 PUSH3 0x487 JUMP JUMPDEST JUMPDEST DUP2 CALLDATALOAD PUSH3 0x5D6 DUP5 DUP3 PUSH1 0x20 DUP7 ADD PUSH3 0x563 JUMP JUMPDEST SWAP2 POP POP SWAP3 SWAP2 POP POP JUMP JUMPDEST PUSH0 PUSH1 0x20 DUP3 DUP5 SUB SLT ISZERO PUSH3 0x5F7 JUMPI PUSH3 0x5F6 PUSH3 0x47F JUMP JUMPDEST JUMPDEST PUSH0 DUP3 ADD CALLDATALOAD PUSH8 0xFFFFFFFFFFFFFFFF DUP2 GT ISZERO PUSH3 0x617 JUMPI PUSH3 0x616 PUSH3 0x483 JUMP JUMPDEST JUMPDEST PUSH3 0x625 DUP5 DUP3 DUP6 ADD PUSH3 0x5AD JUMP JUMPDEST SWAP2 POP POP SWAP3 SWAP2 POP POP JUMP JUMPDEST PUSH0 PUSH20 0xFFFFFFFFFFFFFFFFFFFFFFFFFFFFFFFFFFFFFFFF DUP3 AND SWAP1 POP SWAP2 SWAP1 POP JUMP JUMPDEST PUSH0 PUSH3 0x659 DUP3 PUSH3 0x62E JUMP JUMPDEST SWAP1 POP SWAP2 SWAP1 POP JUMP JUMPDEST PUSH3 0x66B DUP2 PUSH3 0x64D JUMP JUMPDEST DUP2 EQ PUSH3 0x676 JUMPI PUSH0 DUP1 REVERT JUMPDEST POP JUMP JUMPDEST PUSH0 DUP2 CALLDATALOAD SWAP1 POP PUSH3 0x689 DUP2 PUSH3 0x660 JUMP JUMPDEST SWAP3 SWAP2 POP POP JUMP JUMPDEST PUSH0 DUP1 PUSH1 0x40 DUP4 DUP6 SUB SLT ISZERO PUSH3 0x6A8 JUMPI PUSH3 0x6A7 PUSH3 0x47F JUMP JUMPDEST JUMPDEST PUSH0 PUSH3 0x6B7 DUP6 DUP3 DUP7 ADD PUSH3 0x679 JUMP JUMPDEST SWAP3 POP POP PUSH1 0x20 DUP4 ADD CALLDATALOAD PUSH8 0xFFFFFFFFFFFFFFFF DUP2 GT ISZERO PUSH3 0x6DB JUMPI PUSH3 0x6DA PUSH3 0x483 JUMP JUMPDEST JUMPDEST PUSH3 0x6E9 DUP6 DUP3 DUP7 ADD PUSH3 0x5AD JUMP JUMPDEST SWAP2 POP POP SWAP3 POP SWAP3 SWAP1 POP JUMP JUMPDEST PUSH0 DUP2 MLOAD SWAP1 POP SWAP2 SWAP1 POP JUMP JUMPDEST PUSH0 DUP3 DUP3 MSTORE PUSH1 0x20 DUP3 ADD SWAP1 POP SWAP3 SWAP2 POP POP JUMP JUMPDEST PUSH0 JUMPDEST DUP4 DUP2 LT ISZERO PUSH3 0x72C JUMPI DUP1 DUP3 ADD MLOAD DUP2 DUP5 ADD MSTORE PUSH1 0x20 DUP2 ADD SWAP1 POP PUSH3 0x70F JUMP JUMPDEST PUSH0 DUP5 DUP5 ADD MSTORE POP POP POP POP JUMP JUMPDEST PUSH0 PUSH3 0x743 DUP3 PUSH3 0x6F3 JUMP JUMPDEST PUSH3 0x74F DUP2 DUP6 PUSH3 0x6FD JUMP JUMPDEST SWAP4 POP PUSH3 0x761 DUP2 DUP6 PUSH1 0x20 DUP7 ADD PUSH3 0x70D JUMP JUMPDEST PUSH3 0x76C DUP2 PUSH3 0x48F JUMP JUMPDEST DUP5 ADD SWAP2 POP POP SWAP3 SWAP2 POP POP JUMP JUMPDEST PUSH0 PUSH1 0x20 DUP3 ADD SWAP1 POP DUP2 DUP2 SUB PUSH0 DUP4 ADD MSTORE PUSH3 0x791 DUP2 DUP5 PUSH3 0x737 JUMP JUMPDEST SWAP1 POP SWAP3 SWAP2 POP POP JUMP JUMPDEST PUSH0 PUSH1 0x20 DUP3 DUP5 SUB SLT ISZERO PUSH3 0x7B1 JUMPI PUSH3 0x7B0 PUSH3 0x47F JUMP JUMPDEST JUMPDEST PUSH0 PUSH3 0x7C0 DUP5 DUP3 DUP6 ADD PUSH3 0x679 JUMP JUMPDEST SWAP2 POP POP SWAP3 SWAP2 POP POP JUMP JUMPDEST PUSH3 0x7D4 DUP2 PUSH3 0x64D JUMP JUMPDEST DUP3 MSTORE POP POP JUMP JUMPDEST PUSH0 PUSH1 0x40 DUP3 ADD SWAP1 POP DUP2 DUP2 SUB PUSH0 DUP4 ADD MSTORE PUSH3 0x7F4 DUP2 DUP6 PUSH3 0x737 JUMP JUMPDEST SWAP1 POP PUSH3 0x805 PUSH1 0x20 DUP4 ADD DUP5 PUSH3 0x7C9 JUMP JUMPDEST SWAP4 SWAP3 POP POP POP JUMP JUMPDEST PUSH0 PUSH3 0x822 PUSH3 0x81C DUP5 PUSH3 0x520 JUMP JUMPDEST PUSH3 0x502 JUMP JUMPDEST SWAP1 POP DUP3 DUP2 MSTORE PUSH1 0x20 DUP2 ADD DUP5 DUP5 DUP5 ADD GT ISZERO PUSH3 0x841 JUMPI PUSH3 0x840 PUSH3 0x48B JUMP JUMPDEST JUMPDEST PUSH3 0x84E DUP5 DUP3 DUP6 PUSH3 0x70D JUMP JUMPDEST POP SWAP4 SWAP3 POP POP POP JUMP JUMPDEST PUSH0 DUP3 PUSH1 0x1F DUP4 ADD SLT PUSH3 0x86D JUMPI PUSH3 0x86C PUSH3 0x487 JUMP JUMPDEST JUMPDEST DUP2 MLOAD PUSH3 0x87F DUP5 DUP3 PUSH1 0x20 DUP7 ADD PUSH3 0x80C JUMP JUMPDEST SWAP2 POP POP SWAP3 SWAP2 POP POP JUMP JUMPDEST PUSH0 PUSH1 0x20 DUP3 DUP5 SUB SLT ISZERO PUSH3 0x8A0 JUMPI PUSH3 0x89F PUSH3 0x47F JUMP JUMPDEST JUMPDEST PUSH0 DUP3 ADD MLOAD PUSH8 0xFFFFFFFFFFFFFFFF DUP2 GT ISZERO PUSH3 0x8C0 JUMPI PUSH3 0x8BF PUSH3 0x483 JUMP JUMPDEST JUMPDEST PUSH3 0x8CE DUP5 DUP3 DUP6 ADD PUSH3 0x856 JUMP JUMPDEST SWAP2 POP POP SWAP3 SWAP2 POP POP JUMP INVALID PUSH1 0x80 PUSH1 0x40 MSTORE CALLVALUE DUP1 ISZERO PUSH3 0x10 JUMPI PUSH0 DUP1 REVERT JUMPDEST POP PUSH1 0x40 MLOAD PUSH3 0xC01 CODESIZE SUB DUP1 PUSH3 0xC01 DUP4 CODECOPY DUP2 DUP2 ADD PUSH1 0x40 MSTORE DUP2 ADD SWAP1 PUSH3 0x36 SWAP2 SWAP1 PUSH3 0x1D5 JUMP JUMPDEST DUP1 DUP1 PUSH0 SWAP1 DUP2 PUSH3 0x47 SWAP2 SWAP1 PUSH3 0x45B JUMP JUMPDEST POP POP POP PUSH3 0x53F JUMP JUMPDEST PUSH0 PUSH1 0x40 MLOAD SWAP1 POP SWAP1 JUMP JUMPDEST PUSH0 DUP1 REVERT JUMPDEST PUSH0 DUP1 REVERT JUMPDEST PUSH0 DUP1 REVERT JUMPDEST PUSH0 DUP1 REVERT JUMPDEST PUSH0 PUSH1 0x1F NOT PUSH1 0x1F DUP4 ADD AND SWAP1 POP SWAP2 SWAP1 POP JUMP JUMPDEST PUSH32 0x4E487B7100000000000000000000000000000000000000000000000000000000 PUSH0 MSTORE PUSH1 0x41 PUSH1 0x4 MSTORE PUSH1 0x24 PUSH0 REVERT JUMPDEST PUSH3 0xB1 DUP3 PUSH3 0x69 JUMP JUMPDEST DUP2 ADD DUP2 DUP2 LT PUSH8 0xFFFFFFFFFFFFFFFF DUP3 GT OR ISZERO PUSH3 0xD3 JUMPI PUSH3 0xD2 PUSH3 0x79 JUMP JUMPDEST JUMPDEST DUP1 PUSH1 0x40 MSTORE POP POP POP JUMP JUMPDEST PUSH0 PUSH3 0xE7 PUSH3 0x50 JUMP JUMPDEST SWAP1 POP PUSH3 0xF5 DUP3 DUP3 PUSH3 0xA6 JUMP JUMPDEST SWAP2 SWAP1 POP JUMP JUMPDEST PUSH0 PUSH8 0xFFFFFFFFFFFFFFFF DUP3 GT ISZERO PUSH3 0x117 JUMPI PUSH3 0x116 PUSH3 0x79 JUMP JUMPDEST JUMPDEST PUSH3 0x122 DUP3 PUSH3 0x69 JUMP JUMPDEST SWAP1 POP PUSH1 0x20 DUP2 ADD SWAP1 POP SWAP2 SWAP1 POP JUMP JUMPDEST PUSH0 JUMPDEST DUP4 DUP2 LT ISZERO PUSH3 0x14E JUMPI DUP1 DUP3 ADD MLOAD DUP2 DUP5 ADD MSTORE PUSH1 0x20 DUP2 ADD SWAP1 POP PUSH3 0x131 JUMP JUMPDEST PUSH0 DUP5 DUP5 ADD MSTORE POP POP POP POP JUMP JUMPDEST PUSH0 PUSH3 0x16F PUSH3 0x169 DUP5 PUSH3 0xFA JUMP JUMPDEST PUSH3 0xDC JUMP JUMPDEST SWAP1 POP DUP3 DUP2 MSTORE PUSH1 0x20 DUP2 ADD DUP5 DUP5 DUP5 ADD GT ISZERO PUSH3 0x18E JUMPI PUSH3 0x18D PUSH3 0x65 JUMP JUMPDEST JUMPDEST PUSH3 0x19B DUP5 DUP3 DUP6 PUSH3 0x12F JUMP JUMPDEST POP SWAP4 SWAP3 POP POP POP JUMP JUMPDEST PUSH0 DUP3 PUSH1 0x1F DUP4 ADD SLT PUSH3 0x1BA JUMPI PUSH3 0x1B9 PUSH3 0x61 JUMP JUMPDEST JUMPDEST DUP2 MLOAD PUSH3 0x1CC DUP5 DUP3 PUSH1 0x20 DUP7 ADD PUSH3 0x159 JUMP JUMPDEST SWAP2 POP POP SWAP3 SWAP2 POP POP JUMP JUMPDEST PUSH0 PUSH1 0x20 DUP3 DUP5 SUB SLT ISZERO PUSH3 0x1ED JUMPI PUSH3 0x1EC PUSH3 0x59 JUMP JUMPDEST JUMPDEST PUSH0 DUP3 ADD MLOAD PUSH8 0xFFFFFFFFFFFFFFFF DUP2 GT ISZERO PUSH3 0x20D JUMPI PUSH3 0x20C PUSH3 0x5D JUMP JUMPDEST JUMPDEST PUSH3 0x21B DUP5 DUP3 DUP6 ADD PUSH3 0x1A3 JUMP JUMPDEST SWAP2 POP POP SWAP3 SWAP2 POP POP JUMP JUMPDEST PUSH0 DUP2 MLOAD SWAP1 POP SWAP2 SWAP1 POP JUMP JUMPDEST PUSH32 0x4E487B7100000000000000000000000000000000000000000000000000000000 PUSH0 MSTORE PUSH1 0x22 PUSH1 0x4 MSTORE PUSH1 0x24 PUSH0 REVERT JUMPDEST PUSH0 PUSH1 0x2 DUP3 DIV SWAP1 POP PUSH1 0x1 DUP3 AND DUP1 PUSH3 0x273 JUMPI PUSH1 0x7F DUP3 AND SWAP2 POP JUMPDEST PUSH1 0x20 DUP3 LT DUP2 SUB PUSH3 0x289 JUMPI PUSH3 0x288 PUSH3 0x22E JUMP JUMPDEST JUMPDEST POP SWAP2 SWAP1 POP JUMP JUMPDEST PUSH0 DUP2 SWAP1 POP DUP2 PUSH0 MSTORE PUSH1 0x20 PUSH0 KECCAK256 SWAP1 POP SWAP2 SWAP1 POP JUMP JUMPDEST PUSH0 PUSH1 0x20 PUSH1 0x1F DUP4 ADD DIV SWAP1 POP SWAP2 SWAP1 POP JUMP JUMPDEST PUSH0 DUP3 DUP3 SHL SWAP1 POP SWAP3 SWAP2 POP POP JUMP JUMPDEST PUSH0 PUSH1 0x8 DUP4 MUL PUSH3 0x2ED PUSH32 0xFFFFFFFFFFFFFFFFFFFFFFFFFFFFFFFFFFFFFFFFFFFFFFFFFFFFFFFFFFFFFFFF DUP3 PUSH3 0x2B0 JUMP JUMPDEST PUSH3 0x2F9 DUP7 DUP4 PUSH3 0x2B0 JUMP JUMPDEST SWAP6 POP DUP1 NOT DUP5 AND SWAP4 POP DUP1 DUP7 AND DUP5 OR SWAP3 POP POP POP SWAP4 SWAP3 POP POP POP JUMP JUMPDEST PUSH0 DUP2 SWAP1 POP SWAP2 SWAP1 POP JUMP JUMPDEST PUSH0 DUP2 SWAP1 POP SWAP2 SWAP1 POP JUMP JUMPDEST PUSH0 PUSH3 0x343 PUSH3 0x33D PUSH3 0x337 DUP5 PUSH3 0x311 JUMP JUMPDEST PUSH3 0x31A JUMP JUMPDEST PUSH3 0x311 JUMP JUMPDEST SWAP1 POP SWAP2 SWAP1 POP JUMP JUMPDEST PUSH0 DUP2 SWAP1 POP SWAP2 SWAP1 POP JUMP JUMPDEST PUSH3 0x35E DUP4 PUSH3 0x323 JUMP JUMPDEST PUSH3 0x376 PUSH3 0x36D DUP3 PUSH3 0x34A JUMP JUMPDEST DUP5 DUP5 SLOAD PUSH3 0x2BC JUMP JUMPDEST DUP3 SSTORE POP POP POP POP JUMP JUMPDEST PUSH0 SWAP1 JUMP JUMPDEST PUSH3 0x38C PUSH3 0x37E JUMP JUMPDEST PUSH3 0x399 DUP2 DUP5 DUP5 PUSH3 0x353 JUMP JUMPDEST POP POP POP JUMP JUMPDEST JUMPDEST DUP2 DUP2 LT ISZERO PUSH3 0x3C0 JUMPI PUSH3 0x3B4 PUSH0 DUP3 PUSH3 0x382 JUMP JUMPDEST PUSH1 0x1 DUP2 ADD SWAP1 POP PUSH3 0x39F JUMP JUMPDEST POP POP JUMP JUMPDEST PUSH1 0x1F DUP3 GT ISZERO PUSH3 0x40F JUMPI PUSH3 0x3D9 DUP2 PUSH3 0x28F JUMP JUMPDEST PUSH3 0x3E4 DUP5 PUSH3 0x2A1 JUMP JUMPDEST DUP2 ADD PUSH1 0x20 DUP6 LT ISZERO PUSH3 0x3F4 JUMPI DUP2 SWAP1 POP JUMPDEST PUSH3 0x40C PUSH3 0x403 DUP6 PUSH3 0x2A1 JUMP JUMPDEST DUP4 ADD DUP3 PUSH3 0x39E JUMP JUMPDEST POP POP JUMPDEST POP POP POP JUMP JUMPDEST PUSH0 DUP3 DUP3 SHR SWAP1 POP SWAP3 SWAP2 POP POP JUMP JUMPDEST PUSH0 PUSH3 0x431 PUSH0 NOT DUP5 PUSH1 0x8 MUL PUSH3 0x414 JUMP JUMPDEST NOT DUP1 DUP4 AND SWAP2 POP POP SWAP3 SWAP2 POP POP JUMP JUMPDEST PUSH0 PUSH3 0x44B DUP4 DUP4 PUSH3 0x420 JUMP JUMPDEST SWAP2 POP DUP3 PUSH1 0x2 MUL DUP3 OR SWAP1 POP SWAP3 SWAP2 POP POP JUMP JUMPDEST PUSH3 0x466 DUP3 PUSH3 0x224 JUMP JUMPDEST PUSH8 0xFFFFFFFFFFFFFFFF DUP2 GT ISZERO PUSH3 0x482 JUMPI PUSH3 0x481 PUSH3 0x79 JUMP JUMPDEST JUMPDEST PUSH3 0x48E DUP3 SLOAD PUSH3 0x25B JUMP JUMPDEST PUSH3 0x49B DUP3 DUP3 DUP6 PUSH3 0x3C4 JUMP JUMPDEST PUSH0 PUSH1 0x20 SWAP1 POP PUSH1 0x1F DUP4 GT PUSH1 0x1 DUP2 EQ PUSH3 0x4D1 JUMPI PUSH0 DUP5 ISZERO PUSH3 0x4BC JUMPI DUP3 DUP8 ADD MLOAD SWAP1 POP JUMPDEST PUSH3 0x4C8 DUP6 DUP3 PUSH3 0x43E JUMP JUMPDEST DUP7 SSTORE POP PUSH3 0x537 JUMP JUMPDEST PUSH1 0x1F NOT DUP5 AND PUSH3 0x4E1 DUP7 PUSH3 0x28F JUMP JUMPDEST PUSH0 JUMPDEST DUP3 DUP2 LT ISZERO PUSH3 0x50A JUMPI DUP5 DUP10 ADD MLOAD DUP3 SSTORE PUSH1 0x1 DUP3 ADD SWAP2 POP PUSH1 0x20 DUP6 ADD SWAP5 POP PUSH1 0x20 DUP2 ADD SWAP1 POP PUSH3 0x4E3 JUMP JUMPDEST DUP7 DUP4 LT ISZERO PUSH3 0x52A JUMPI DUP5 DUP10 ADD MLOAD PUSH3 0x526 PUSH1 0x1F DUP10 AND DUP3 PUSH3 0x420 JUMP JUMPDEST DUP4 SSTORE POP JUMPDEST PUSH1 0x1 PUSH1 0x2 DUP9 MUL ADD DUP9 SSTORE POP POP POP JUMPDEST POP POP POP POP POP POP JUMP JUMPDEST PUSH2 0x6B4 DUP1 PUSH3 0x54D PUSH0 CODECOPY PUSH0 RETURN INVALID PUSH1 0x80 PUSH1 0x40 MSTORE CALLVALUE DUP1 ISZERO PUSH2 0xF JUMPI PUSH0 DUP1 REVERT JUMPDEST POP PUSH1 0x4 CALLDATASIZE LT PUSH2 0x4A JUMPI PUSH0 CALLDATALOAD PUSH1 0xE0 SHR DUP1 PUSH4 0x133A473E EQ PUSH2 0x4E JUMPI DUP1 PUSH4 0x50D85315 EQ PUSH2 0x6C JUMPI DUP1 PUSH4 0x728D9B74 EQ PUSH2 0x8A JUMPI DUP1 PUSH4 0xD28D8852 EQ PUSH2 0xBA JUMPI JUMPDEST PUSH0 DUP1 REVERT JUMPDEST PUSH2 0x56 PUSH2 0xD8 JUMP JUMPDEST PUSH1 0x40 MLOAD PUSH2 0x63 SWAP2 SWAP1 PUSH2 0x37A JUMP JUMPDEST PUSH1 0x40 MLOAD DUP1 SWAP2 SUB SWAP1 RETURN JUMPDEST PUSH2 0x74 PUSH2 0x115 JUMP JUMPDEST PUSH1 0x40 MLOAD PUSH2 0x81 SWAP2 SWAP1 PUSH2 0x37A JUMP JUMPDEST PUSH1 0x40 MLOAD DUP1 SWAP2 SUB SWAP1 RETURN JUMPDEST PUSH2 0xA4 PUSH1 0x4 DUP1 CALLDATASIZE SUB DUP2 ADD SWAP1 PUSH2 0x9F SWAP2 SWAP1 PUSH2 0x4D7 JUMP JUMPDEST PUSH2 0x152 JUMP JUMPDEST PUSH1 0x40 MLOAD PUSH2 0xB1 SWAP2 SWAP1 PUSH2 0x37A JUMP JUMPDEST PUSH1 0x40 MLOAD DUP1 SWAP2 SUB SWAP1 RETURN JUMPDEST PUSH2 0xC2 PUSH2 0x1E4 JUMP JUMPDEST PUSH1 0x40 MLOAD PUSH2 0xCF SWAP2 SWAP1 PUSH2 0x37A JUMP JUMPDEST PUSH1 0x40 MLOAD DUP1 SWAP2 SUB SWAP1 RETURN JUMPDEST PUSH1 0x60 PUSH1 0x40 MLOAD DUP1 PUSH1 0x40 ADD PUSH1 0x40 MSTORE DUP1 PUSH1 0xB DUP2 MSTORE PUSH1 0x20 ADD PUSH32 0x5A2D7A2D7A2D7A2D7A2D7A000000000000000000000000000000000000000000 DUP2 MSTORE POP SWAP1 POP SWAP1 JUMP JUMPDEST PUSH1 0x60 PUSH1 0x40 MLOAD DUP1 PUSH1 0x40 ADD PUSH1 0x40 MSTORE DUP1 PUSH1 0x5 DUP2 MSTORE PUSH1 0x20 ADD PUSH32 0x49676F676F000000000000000000000000000000000000000000000000000000 DUP2 MSTORE POP SWAP1 POP SWAP1 JUMP JUMPDEST PUSH1 0x60 DUP2 PUSH2 0x194 DUP2 PUSH1 0x40 MLOAD DUP1 PUSH1 0x40 ADD PUSH1 0x40 MSTORE DUP1 PUSH1 0x5 DUP2 MSTORE PUSH1 0x20 ADD PUSH32 0x706C616E74000000000000000000000000000000000000000000000000000000 DUP2 MSTORE POP PUSH2 0x26F JUMP JUMPDEST PUSH2 0x1D3 JUMPI PUSH1 0x40 MLOAD PUSH32 0x8C379A000000000000000000000000000000000000000000000000000000000 DUP2 MSTORE PUSH1 0x4 ADD PUSH2 0x1CA SWAP1 PUSH2 0x568 JUMP JUMPDEST PUSH1 0x40 MLOAD DUP1 SWAP2 SUB SWAP1 REVERT JUMPDEST PUSH2 0x1DC DUP4 PUSH2 0x2C7 JUMP JUMPDEST SWAP2 POP POP SWAP2 SWAP1 POP JUMP JUMPDEST PUSH0 DUP1 SLOAD PUSH2 0x1F0 SWAP1 PUSH2 0x5B3 JUMP JUMPDEST DUP1 PUSH1 0x1F ADD PUSH1 0x20 DUP1 SWAP2 DIV MUL PUSH1 0x20 ADD PUSH1 0x40 MLOAD SWAP1 DUP2 ADD PUSH1 0x40 MSTORE DUP1 SWAP3 SWAP2 SWAP1 DUP2 DUP2 MSTORE PUSH1 0x20 ADD DUP3 DUP1 SLOAD PUSH2 0x21C SWAP1 PUSH2 0x5B3 JUMP JUMPDEST DUP1 ISZERO PUSH2 0x267 JUMPI DUP1 PUSH1 0x1F LT PUSH2 0x23E JUMPI PUSH2 0x100 DUP1 DUP4 SLOAD DIV MUL DUP4 MSTORE SWAP2 PUSH1 0x20 ADD SWAP2 PUSH2 0x267 JUMP JUMPDEST DUP3 ADD SWAP2 SWAP1 PUSH0 MSTORE PUSH1 0x20 PUSH0 KECCAK256 SWAP1 JUMPDEST DUP2 SLOAD DUP2 MSTORE SWAP1 PUSH1 0x1 ADD SWAP1 PUSH1 0x20 ADD DUP1 DUP4 GT PUSH2 0x24A JUMPI DUP3 SWAP1 SUB PUSH1 0x1F AND DUP3 ADD SWAP2 JUMPDEST POP POP POP POP POP DUP2 JUMP JUMPDEST PUSH0 DUP2 PUSH1 0x40 MLOAD PUSH1 0x20 ADD PUSH2 0x281 SWAP2 SWAP1 PUSH2 0x61D JUMP JUMPDEST PUSH1 0x40 MLOAD PUSH1 0x20 DUP2 DUP4 SUB SUB DUP2 MSTORE SWAP1 PUSH1 0x40 MSTORE DUP1 MLOAD SWAP1 PUSH1 0x20 ADD KECCAK256 DUP4 PUSH1 0x40 MLOAD PUSH1 0x20 ADD PUSH2 0x2A8 SWAP2 SWAP1 PUSH2 0x61D JUMP JUMPDEST PUSH1 0x40 MLOAD PUSH1 0x20 DUP2 DUP4 SUB SUB DUP2 MSTORE SWAP1 PUSH1 0x40 MSTORE DUP1 MLOAD SWAP1 PUSH1 0x20 ADD KECCAK256 EQ SWAP1 POP SWAP3 SWAP2 POP POP JUMP JUMPDEST PUSH1 0x60 DUP2 PUSH1 0x40 MLOAD PUSH1 0x20 ADD PUSH2 0x2DA SWAP2 SWAP1 PUSH2 0x659 JUMP JUMPDEST PUSH1 0x40 MLOAD PUSH1 0x20 DUP2 DUP4 SUB SUB DUP2 MSTORE SWAP1 PUSH1 0x40 MSTORE SWAP1 POP SWAP2 SWAP1 POP JUMP JUMPDEST PUSH0 DUP2 MLOAD SWAP1 POP SWAP2 SWAP1 POP JUMP JUMPDEST PUSH0 DUP3 DUP3 MSTORE PUSH1 0x20 DUP3 ADD SWAP1 POP SWAP3 SWAP2 POP POP JUMP JUMPDEST PUSH0 JUMPDEST DUP4 DUP2 LT ISZERO PUSH2 0x327 JUMPI DUP1 DUP3 ADD MLOAD DUP2 DUP5 ADD MSTORE PUSH1 0x20 DUP2 ADD SWAP1 POP PUSH2 0x30C JUMP JUMPDEST PUSH0 DUP5 DUP5 ADD MSTORE POP POP POP POP JUMP JUMPDEST PUSH0 PUSH1 0x1F NOT PUSH1 0x1F DUP4 ADD AND SWAP1 POP SWAP2 SWAP1 POP JUMP JUMPDEST PUSH0 PUSH2 0x34C DUP3 PUSH2 0x2F0 JUMP JUMPDEST PUSH2 0x356 DUP2 DUP6 PUSH2 0x2FA JUMP JUMPDEST SWAP4 POP PUSH2 0x366 DUP2 DUP6 PUSH1 0x20 DUP7 ADD PUSH2 0x30A JUMP JUMPDEST PUSH2 0x36F DUP2 PUSH2 0x332 JUMP JUMPDEST DUP5 ADD SWAP2 POP POP SWAP3 SWAP2 POP POP JUMP JUMPDEST PUSH0 PUSH1 0x20 DUP3 ADD SWAP1 POP DUP2 DUP2 SUB PUSH0 DUP4 ADD MSTORE PUSH2 0x392 DUP2 DUP5 PUSH2 0x342 JUMP JUMPDEST SWAP1 POP SWAP3 SWAP2 POP POP JUMP JUMPDEST PUSH0 PUSH1 0x40 MLOAD SWAP1 POP SWAP1 JUMP JUMPDEST PUSH0 DUP1 REVERT JUMPDEST PUSH0 DUP1 REVERT JUMPDEST PUSH0 DUP1 REVERT JUMPDEST PUSH0 DUP1 REVERT JUMPDEST PUSH32 0x4E487B7100000000000000000000000000000000000000000000000000000000 PUSH0 MSTORE PUSH1 0x41 PUSH1 0x4 MSTORE PUSH1 0x24 PUSH0 REVERT JUMPDEST PUSH2 0x3E9 DUP3 PUSH2 0x332 JUMP JUMPDEST DUP2 ADD DUP2 DUP2 LT PUSH8 0xFFFFFFFFFFFFFFFF DUP3 GT OR ISZERO PUSH2 0x408 JUMPI PUSH2 0x407 PUSH2 0x3B3 JUMP JUMPDEST JUMPDEST DUP1 PUSH1 0x40 MSTORE POP POP POP JUMP JUMPDEST PUSH0 PUSH2 0x41A PUSH2 0x39A JUMP JUMPDEST SWAP1 POP PUSH2 0x426 DUP3 DUP3 PUSH2 0x3E0 JUMP JUMPDEST SWAP2 SWAP1 POP JUMP JUMPDEST PUSH0 PUSH8 0xFFFFFFFFFFFFFFFF DUP3 GT ISZERO PUSH2 0x445 JUMPI PUSH2 0x444 PUSH2 0x3B3 JUMP JUMPDEST JUMPDEST PUSH2 0x44E DUP3 PUSH2 0x332 JUMP JUMPDEST SWAP1 POP PUSH1 0x20 DUP2 ADD SWAP1 POP SWAP2 SWAP1 POP JUMP JUMPDEST DUP3 DUP2 DUP4 CALLDATACOPY PUSH0 DUP4 DUP4 ADD MSTORE POP POP POP JUMP JUMPDEST PUSH0 PUSH2 0x47B PUSH2 0x476 DUP5 PUSH2 0x42B JUMP JUMPDEST PUSH2 0x411 JUMP JUMPDEST SWAP1 POP DUP3 DUP2 MSTORE PUSH1 0x20 DUP2 ADD DUP5 DUP5 DUP5 ADD GT ISZERO PUSH2 0x497 JUMPI PUSH2 0x496 PUSH2 0x3AF JUMP JUMPDEST JUMPDEST PUSH2 0x4A2 DUP5 DUP3 DUP6 PUSH2 0x45B JUMP JUMPDEST POP SWAP4 SWAP3 POP POP POP JUMP JUMPDEST PUSH0 DUP3 PUSH1 0x1F DUP4 ADD SLT PUSH2 0x4BE JUMPI PUSH2 0x4BD PUSH2 0x3AB JUMP JUMPDEST JUMPDEST DUP2 CALLDATALOAD PUSH2 0x4CE DUP5 DUP3 PUSH1 0x20 DUP7 ADD PUSH2 0x469 JUMP JUMPDEST SWAP2 POP POP SWAP3 SWAP2 POP POP JUMP JUMPDEST PUSH0 PUSH1 0x20 DUP3 DUP5 SUB SLT ISZERO PUSH2 0x4EC JUMPI PUSH2 0x4EB PUSH2 0x3A3 JUMP JUMPDEST JUMPDEST PUSH0 DUP3 ADD CALLDATALOAD PUSH8 0xFFFFFFFFFFFFFFFF DUP2 GT ISZERO PUSH2 0x509 JUMPI PUSH2 0x508 PUSH2 0x3A7 JUMP JUMPDEST JUMPDEST PUSH2 0x515 DUP5 DUP3 DUP6 ADD PUSH2 0x4AA JUMP JUMPDEST SWAP2 POP POP SWAP3 SWAP2 POP POP JUMP JUMPDEST PUSH32 0x43616E206F6E6C792065617420706C616E7420666F6F64000000000000000000 PUSH0 DUP3 ADD MSTORE POP JUMP JUMPDEST PUSH0 PUSH2 0x552 PUSH1 0x17 DUP4 PUSH2 0x2FA JUMP JUMPDEST SWAP2 POP PUSH2 0x55D DUP3 PUSH2 0x51E JUMP JUMPDEST PUSH1 0x20 DUP3 ADD SWAP1 POP SWAP2 SWAP1 POP JUMP JUMPDEST PUSH0 PUSH1 0x20 DUP3 ADD SWAP1 POP DUP2 DUP2 SUB PUSH0 DUP4 ADD MSTORE PUSH2 0x57F DUP2 PUSH2 0x546 JUMP JUMPDEST SWAP1 POP SWAP2 SWAP1 POP JUMP JUMPDEST PUSH32 0x4E487B7100000000000000000000000000000000000000000000000000000000 PUSH0 MSTORE PUSH1 0x22 PUSH1 0x4 MSTORE PUSH1 0x24 PUSH0 REVERT JUMPDEST PUSH0 PUSH1 0x2 DUP3 DIV SWAP1 POP PUSH1 0x1 DUP3 AND DUP1 PUSH2 0x5CA JUMPI PUSH1 0x7F DUP3 AND SWAP2 POP JUMPDEST PUSH1 0x20 DUP3 LT DUP2 SUB PUSH2 0x5DD JUMPI PUSH2 0x5DC PUSH2 0x586 JUMP JUMPDEST JUMPDEST POP SWAP2 SWAP1 POP JUMP JUMPDEST PUSH0 DUP2 SWAP1 POP SWAP3 SWAP2 POP POP JUMP JUMPDEST PUSH0 PUSH2 0x5F7 DUP3 PUSH2 0x2F0 JUMP JUMPDEST PUSH2 0x601 DUP2 DUP6 PUSH2 0x5E3 JUMP JUMPDEST SWAP4 POP PUSH2 0x611 DUP2 DUP6 PUSH1 0x20 DUP7 ADD PUSH2 0x30A JUMP JUMPDEST DUP1 DUP5 ADD SWAP2 POP POP SWAP3 SWAP2 POP POP JUMP JUMPDEST PUSH0 PUSH2 0x628 DUP3 DUP5 PUSH2 0x5ED JUMP JUMPDEST SWAP2 POP DUP2 SWAP1 POP SWAP3 SWAP2 POP POP JUMP JUMPDEST PUSH32 0x416E696D616C2065617473000000000000000000000000000000000000000000 DUP2 MSTORE POP JUMP JUMPDEST PUSH0 PUSH2 0x663 DUP3 PUSH2 0x633 JUMP JUMPDEST PUSH1 0xB DUP3 ADD SWAP2 POP PUSH2 0x673 DUP3 DUP5 PUSH2 0x5ED JUMP JUMPDEST SWAP2 POP DUP2 SWAP1 POP SWAP3 SWAP2 POP POP JUMP INVALID LOG2 PUSH5 0x6970667358 0x22 SLT KECCAK256 0xE9 0xCE SELFBALANCE 0xA9 0xB1 MLOAD 0x2E 0xA5 MSTORE8 0x27 0xD0 GAS TIMESTAMP 0x5E PUSH18 0xE3FA16A0AE721D8D89D31E3F5994B7F9E164 PUSH20 0x6F6C634300081700336080604052348015620000 LT JUMPI PUSH0 DUP1 REVERT JUMPDEST POP PUSH1 0x40 MLOAD PUSH3 0xC01 CODESIZE SUB DUP1 PUSH3 0xC01 DUP4 CODECOPY DUP2 DUP2 ADD PUSH1 0x40 MSTORE DUP2 ADD SWAP1 PUSH3 0x36 SWAP2 SWAP1 PUSH3 0x1D5 JUMP JUMPDEST DUP1 DUP1 PUSH0 SWAP1 DUP2 PUSH3 0x47 SWAP2 SWAP1 PUSH3 0x45B JUMP JUMPDEST POP POP POP PUSH3 0x53F JUMP JUMPDEST PUSH0 PUSH1 0x40 MLOAD SWAP1 POP SWAP1 JUMP JUMPDEST PUSH0 DUP1 REVERT JUMPDEST PUSH0 DUP1 REVERT JUMPDEST PUSH0 DUP1 REVERT JUMPDEST PUSH0 DUP1 REVERT JUMPDEST PUSH0 PUSH1 0x1F NOT PUSH1 0x1F DUP4 ADD AND SWAP1 POP SWAP2 SWAP1 POP JUMP JUMPDEST PUSH32 0x4E487B7100000000000000000000000000000000000000000000000000000000 PUSH0 MSTORE PUSH1 0x41 PUSH1 0x4 MSTORE PUSH1 0x24 PUSH0 REVERT JUMPDEST PUSH3 0xB1 DUP3 PUSH3 0x69 JUMP JUMPDEST DUP2 ADD DUP2 DUP2 LT PUSH8 0xFFFFFFFFFFFFFFFF DUP3 GT OR ISZERO PUSH3 0xD3 JUMPI PUSH3 0xD2 PUSH3 0x79 JUMP JUMPDEST JUMPDEST DUP1 PUSH1 0x40 MSTORE POP POP POP JUMP JUMPDEST PUSH0 PUSH3 0xE7 PUSH3 0x50 JUMP JUMPDEST SWAP1 POP PUSH3 0xF5 DUP3 DUP3 PUSH3 0xA6 JUMP JUMPDEST SWAP2 SWAP1 POP JUMP JUMPDEST PUSH0 PUSH8 0xFFFFFFFFFFFFFFFF DUP3 GT ISZERO PUSH3 0x117 JUMPI PUSH3 0x116 PUSH3 0x79 JUMP JUMPDEST JUMPDEST PUSH3 0x122 DUP3 PUSH3 0x69 JUMP JUMPDEST SWAP1 POP PUSH1 0x20 DUP2 ADD SWAP1 POP SWAP2 SWAP1 POP JUMP JUMPDEST PUSH0 JUMPDEST DUP4 DUP2 LT ISZERO PUSH3 0x14E JUMPI DUP1 DUP3 ADD MLOAD DUP2 DUP5 ADD MSTORE PUSH1 0x20 DUP2 ADD SWAP1 POP PUSH3 0x131 JUMP JUMPDEST PUSH0 DUP5 DUP5 ADD MSTORE POP POP POP POP JUMP JUMPDEST PUSH0 PUSH3 0x16F PUSH3 0x169 DUP5 PUSH3 0xFA JUMP JUMPDEST PUSH3 0xDC JUMP JUMPDEST SWAP1 POP DUP3 DUP2 MSTORE PUSH1 0x20 DUP2 ADD DUP5 DUP5 DUP5 ADD GT ISZERO PUSH3 0x18E JUMPI PUSH3 0x18D PUSH3 0x65 JUMP JUMPDEST JUMPDEST PUSH3 0x19B DUP5 DUP3 DUP6 PUSH3 0x12F JUMP JUMPDEST POP SWAP4 SWAP3 POP POP POP JUMP JUMPDEST PUSH0 DUP3 PUSH1 0x1F DUP4 ADD SLT PUSH3 0x1BA JUMPI PUSH3 0x1B9 PUSH3 0x61 JUMP JUMPDEST JUMPDEST DUP2 MLOAD PUSH3 0x1CC DUP5 DUP3 PUSH1 0x20 DUP7 ADD PUSH3 0x159 JUMP JUMPDEST SWAP2 POP POP SWAP3 SWAP2 POP POP JUMP JUMPDEST PUSH0 PUSH1 0x20 DUP3 DUP5 SUB SLT ISZERO PUSH3 0x1ED JUMPI PUSH3 0x1EC PUSH3 0x59 JUMP JUMPDEST JUMPDEST PUSH0 DUP3 ADD MLOAD PUSH8 0xFFFFFFFFFFFFFFFF DUP2 GT ISZERO PUSH3 0x20D JUMPI PUSH3 0x20C PUSH3 0x5D JUMP JUMPDEST JUMPDEST PUSH3 0x21B DUP5 DUP3 DUP6 ADD PUSH3 0x1A3 JUMP JUMPDEST SWAP2 POP POP SWAP3 SWAP2 POP POP JUMP JUMPDEST PUSH0 DUP2 MLOAD SWAP1 POP SWAP2 SWAP1 POP JUMP JUMPDEST PUSH32 0x4E487B7100000000000000000000000000000000000000000000000000000000 PUSH0 MSTORE PUSH1 0x22 PUSH1 0x4 MSTORE PUSH1 0x24 PUSH0 REVERT JUMPDEST PUSH0 PUSH1 0x2 DUP3 DIV SWAP1 POP PUSH1 0x1 DUP3 AND DUP1 PUSH3 0x273 JUMPI PUSH1 0x7F DUP3 AND SWAP2 POP JUMPDEST PUSH1 0x20 DUP3 LT DUP2 SUB PUSH3 0x289 JUMPI PUSH3 0x288 PUSH3 0x22E JUMP JUMPDEST JUMPDEST POP SWAP2 SWAP1 POP JUMP JUMPDEST PUSH0 DUP2 SWAP1 POP DUP2 PUSH0 MSTORE PUSH1 0x20 PUSH0 KECCAK256 SWAP1 POP SWAP2 SWAP1 POP JUMP JUMPDEST PUSH0 PUSH1 0x20 PUSH1 0x1F DUP4 ADD DIV SWAP1 POP SWAP2 SWAP1 POP JUMP JUMPDEST PUSH0 DUP3 DUP3 SHL SWAP1 POP SWAP3 SWAP2 POP POP JUMP JUMPDEST PUSH0 PUSH1 0x8 DUP4 MUL PUSH3 0x2ED PUSH32 0xFFFFFFFFFFFFFFFFFFFFFFFFFFFFFFFFFFFFFFFFFFFFFFFFFFFFFFFFFFFFFFFF DUP3 PUSH3 0x2B0 JUMP JUMPDEST PUSH3 0x2F9 DUP7 DUP4 PUSH3 0x2B0 JUMP JUMPDEST SWAP6 POP DUP1 NOT DUP5 AND SWAP4 POP DUP1 DUP7 AND DUP5 OR SWAP3 POP POP POP SWAP4 SWAP3 POP POP POP JUMP JUMPDEST PUSH0 DUP2 SWAP1 POP SWAP2 SWAP1 POP JUMP JUMPDEST PUSH0 DUP2 SWAP1 POP SWAP2 SWAP1 POP JUMP JUMPDEST PUSH0 PUSH3 0x343 PUSH3 0x33D PUSH3 0x337 DUP5 PUSH3 0x311 JUMP JUMPDEST PUSH3 0x31A JUMP JUMPDEST PUSH3 0x311 JUMP JUMPDEST SWAP1 POP SWAP2 SWAP1 POP JUMP JUMPDEST PUSH0 DUP2 SWAP1 POP SWAP2 SWAP1 POP JUMP JUMPDEST PUSH3 0x35E DUP4 PUSH3 0x323 JUMP JUMPDEST PUSH3 0x376 PUSH3 0x36D DUP3 PUSH3 0x34A JUMP JUMPDEST DUP5 DUP5 SLOAD PUSH3 0x2BC JUMP JUMPDEST DUP3 SSTORE POP POP POP POP JUMP JUMPDEST PUSH0 SWAP1 JUMP JUMPDEST PUSH3 0x38C PUSH3 0x37E JUMP JUMPDEST PUSH3 0x399 DUP2 DUP5 DUP5 PUSH3 0x353 JUMP JUMPDEST POP POP POP JUMP JUMPDEST JUMPDEST DUP2 DUP2 LT ISZERO PUSH3 0x3C0 JUMPI PUSH3 0x3B4 PUSH0 DUP3 PUSH3 0x382 JUMP JUMPDEST PUSH1 0x1 DUP2 ADD SWAP1 POP PUSH3 0x39F JUMP JUMPDEST POP POP JUMP JUMPDEST PUSH1 0x1F DUP3 GT ISZERO PUSH3 0x40F JUMPI PUSH3 0x3D9 DUP2 PUSH3 0x28F JUMP JUMPDEST PUSH3 0x3E4 DUP5 PUSH3 0x2A1 JUMP JUMPDEST DUP2 ADD PUSH1 0x20 DUP6 LT ISZERO PUSH3 0x3F4 JUMPI DUP2 SWAP1 POP JUMPDEST PUSH3 0x40C PUSH3 0x403 DUP6 PUSH3 0x2A1 JUMP JUMPDEST DUP4 ADD DUP3 PUSH3 0x39E JUMP JUMPDEST POP POP JUMPDEST POP POP POP JUMP JUMPDEST PUSH0 DUP3 DUP3 SHR SWAP1 POP SWAP3 SWAP2 POP POP JUMP JUMPDEST PUSH0 PUSH3 0x431 PUSH0 NOT DUP5 PUSH1 0x8 MUL PUSH3 0x414 JUMP JUMPDEST NOT DUP1 DUP4 AND SWAP2 POP POP SWAP3 SWAP2 POP POP JUMP JUMPDEST PUSH0 PUSH3 0x44B DUP4 DUP4 PUSH3 0x420 JUMP JUMPDEST SWAP2 POP DUP3 PUSH1 0x2 MUL DUP3 OR SWAP1 POP SWAP3 SWAP2 POP POP JUMP JUMPDEST PUSH3 0x466 DUP3 PUSH3 0x224 JUMP JUMPDEST PUSH8 0xFFFFFFFFFFFFFFFF DUP2 GT ISZERO PUSH3 0x482 JUMPI PUSH3 0x481 PUSH3 0x79 JUMP JUMPDEST JUMPDEST PUSH3 0x48E DUP3 SLOAD PUSH3 0x25B JUMP JUMPDEST PUSH3 0x49B DUP3 DUP3 DUP6 PUSH3 0x3C4 JUMP JUMPDEST PUSH0 PUSH1 0x20 SWAP1 POP PUSH1 0x1F DUP4 GT PUSH1 0x1 DUP2 EQ PUSH3 0x4D1 JUMPI PUSH0 DUP5 ISZERO PUSH3 0x4BC JUMPI DUP3 DUP8 ADD MLOAD SWAP1 POP JUMPDEST PUSH3 0x4C8 DUP6 DUP3 PUSH3 0x43E JUMP JUMPDEST DUP7 SSTORE POP PUSH3 0x537 JUMP JUMPDEST PUSH1 0x1F NOT DUP5 AND PUSH3 0x4E1 DUP7 PUSH3 0x28F JUMP JUMPDEST PUSH0 JUMPDEST DUP3 DUP2 LT ISZERO PUSH3 0x50A JUMPI DUP5 DUP10 ADD MLOAD DUP3 SSTORE PUSH1 0x1 DUP3 ADD SWAP2 POP PUSH1 0x20 DUP6 ADD SWAP5 POP PUSH1 0x20 DUP2 ADD SWAP1 POP PUSH3 0x4E3 JUMP JUMPDEST DUP7 DUP4 LT ISZERO PUSH3 0x52A JUMPI DUP5 DUP10 ADD MLOAD PUSH3 0x526 PUSH1 0x1F DUP10 AND DUP3 PUSH3 0x420 JUMP JUMPDEST DUP4 SSTORE POP JUMPDEST PUSH1 0x1 PUSH1 0x2 DUP9 MUL ADD DUP9 SSTORE POP POP POP JUMPDEST POP POP POP POP POP POP JUMP JUMPDEST PUSH2 0x6B4 DUP1 PUSH3 0x54D PUSH0 CODECOPY PUSH0 RETURN INVALID PUSH1 0x80 PUSH1 0x40 MSTORE CALLVALUE DUP1 ISZERO PUSH2 0xF JUMPI PUSH0 DUP1 REVERT JUMPDEST POP PUSH1 0x4 CALLDATASIZE LT PUSH2 0x4A JUMPI PUSH0 CALLDATALOAD PUSH1 0xE0 SHR DUP1 PUSH4 0x133A473E EQ PUSH2 0x4E JUMPI DUP1 PUSH4 0x50D85315 EQ PUSH2 0x6C JUMPI DUP1 PUSH4 0x728D9B74 EQ PUSH2 0x8A JUMPI DUP1 PUSH4 0xD28D8852 EQ PUSH2 0xBA JUMPI JUMPDEST PUSH0 DUP1 REVERT JUMPDEST PUSH2 0x56 PUSH2 0xD8 JUMP JUMPDEST PUSH1 0x40 MLOAD PUSH2 0x63 SWAP2 SWAP1 PUSH2 0x37A JUMP JUMPDEST PUSH1 0x40 MLOAD DUP1 SWAP2 SUB SWAP1 RETURN JUMPDEST PUSH2 0x74 PUSH2 0x115 JUMP JUMPDEST PUSH1 0x40 MLOAD PUSH2 0x81 SWAP2 SWAP1 PUSH2 0x37A JUMP JUMPDEST PUSH1 0x40 MLOAD DUP1 SWAP2 SUB SWAP1 RETURN JUMPDEST PUSH2 0xA4 PUSH1 0x4 DUP1 CALLDATASIZE SUB DUP2 ADD SWAP1 PUSH2 0x9F SWAP2 SWAP1 PUSH2 0x4D7 JUMP JUMPDEST PUSH2 0x152 JUMP JUMPDEST PUSH1 0x40 MLOAD PUSH2 0xB1 SWAP2 SWAP1 PUSH2 0x37A JUMP JUMPDEST PUSH1 0x40 MLOAD DUP1 SWAP2 SUB SWAP1 RETURN JUMPDEST PUSH2 0xC2 PUSH2 0x1E4 JUMP JUMPDEST PUSH1 0x40 MLOAD PUSH2 0xCF SWAP2 SWAP1 PUSH2 0x37A JUMP JUMPDEST PUSH1 0x40 MLOAD DUP1 SWAP2 SUB SWAP1 RETURN JUMPDEST PUSH1 0x60 PUSH1 0x40 MLOAD DUP1 PUSH1 0x40 ADD PUSH1 0x40 MSTORE DUP1 PUSH1 0xB DUP2 MSTORE PUSH1 0x20 ADD PUSH32 0x5A2D7A2D7A2D7A2D7A2D7A000000000000000000000000000000000000000000 DUP2 MSTORE POP SWAP1 POP SWAP1 JUMP JUMPDEST PUSH1 0x60 PUSH1 0x40 MLOAD DUP1 PUSH1 0x40 ADD PUSH1 0x40 MSTORE DUP1 PUSH1 0x6 DUP2 MSTORE PUSH1 0x20 ADD PUSH32 0x4D6F6F6F6F6F0000000000000000000000000000000000000000000000000000 DUP2 MSTORE POP SWAP1 POP SWAP1 JUMP JUMPDEST PUSH1 0x60 DUP2 PUSH2 0x194 DUP2 PUSH1 0x40 MLOAD DUP1 PUSH1 0x40 ADD PUSH1 0x40 MSTORE DUP1 PUSH1 0x5 DUP2 MSTORE PUSH1 0x20 ADD PUSH32 0x706C616E74000000000000000000000000000000000000000000000000000000 DUP2 MSTORE POP PUSH2 0x26F JUMP JUMPDEST PUSH2 0x1D3 JUMPI PUSH1 0x40 MLOAD PUSH32 0x8C379A000000000000000000000000000000000000000000000000000000000 DUP2 MSTORE PUSH1 0x4 ADD PUSH2 0x1CA SWAP1 PUSH2 0x568 JUMP JUMPDEST PUSH1 0x40 MLOAD DUP1 SWAP2 SUB SWAP1 REVERT JUMPDEST PUSH2 0x1DC DUP4 PUSH2 0x2C7 JUMP JUMPDEST SWAP2 POP POP SWAP2 SWAP1 POP JUMP JUMPDEST PUSH0 DUP1 SLOAD PUSH2 0x1F0 SWAP1 PUSH2 0x5B3 JUMP JUMPDEST DUP1 PUSH1 0x1F ADD PUSH1 0x20 DUP1 SWAP2 DIV MUL PUSH1 0x20 ADD PUSH1 0x40 MLOAD SWAP1 DUP2 ADD PUSH1 0x40 MSTORE DUP1 SWAP3 SWAP2 SWAP1 DUP2 DUP2 MSTORE PUSH1 0x20 ADD DUP3 DUP1 SLOAD PUSH2 0x21C SWAP1 PUSH2 0x5B3 JUMP JUMPDEST DUP1 ISZERO PUSH2 0x267 JUMPI DUP1 PUSH1 0x1F LT PUSH2 0x23E JUMPI PUSH2 0x100 DUP1 DUP4 SLOAD DIV MUL DUP4 MSTORE SWAP2 PUSH1 0x20 ADD SWAP2 PUSH2 0x267 JUMP JUMPDEST DUP3 ADD SWAP2 SWAP1 PUSH0 MSTORE PUSH1 0x20 PUSH0 KECCAK256 SWAP1 JUMPDEST DUP2 SLOAD DUP2 MSTORE SWAP1 PUSH1 0x1 ADD SWAP1 PUSH1 0x20 ADD DUP1 DUP4 GT PUSH2 0x24A JUMPI DUP3 SWAP1 SUB PUSH1 0x1F AND DUP3 ADD SWAP2 JUMPDEST POP POP POP POP POP DUP2 JUMP JUMPDEST PUSH0 DUP2 PUSH1 0x40 MLOAD PUSH1 0x20 ADD PUSH2 0x281 SWAP2 SWAP1 PUSH2 0x61D JUMP JUMPDEST PUSH1 0x40 MLOAD PUSH1 0x20 DUP2 DUP4 SUB SUB DUP2 MSTORE SWAP1 PUSH1 0x40 MSTORE DUP1 MLOAD SWAP1 PUSH1 0x20 ADD KECCAK256 DUP4 PUSH1 0x40 MLOAD PUSH1 0x20 ADD PUSH2 0x2A8 SWAP2 SWAP1 PUSH2 0x61D JUMP JUMPDEST PUSH1 0x40 MLOAD PUSH1 0x20 DUP2 DUP4 SUB SUB DUP2 MSTORE SWAP1 PUSH1 0x40 MSTORE DUP1 MLOAD SWAP1 PUSH1 0x20 ADD KECCAK256 EQ SWAP1 POP SWAP3 SWAP2 POP POP JUMP JUMPDEST PUSH1 0x60 DUP2 PUSH1 0x40 MLOAD PUSH1 0x20 ADD PUSH2 0x2DA SWAP2 SWAP1 PUSH2 0x659 JUMP JUMPDEST PUSH1 0x40 MLOAD PUSH1 0x20 DUP2 DUP4 SUB SUB DUP2 MSTORE SWAP1 PUSH1 0x40 MSTORE SWAP1 POP SWAP2 SWAP1 POP JUMP JUMPDEST PUSH0 DUP2 MLOAD SWAP1 POP SWAP2 SWAP1 POP JUMP JUMPDEST PUSH0 DUP3 DUP3 MSTORE PUSH1 0x20 DUP3 ADD SWAP1 POP SWAP3 SWAP2 POP POP JUMP JUMPDEST PUSH0 JUMPDEST DUP4 DUP2 LT ISZERO PUSH2 0x327 JUMPI DUP1 DUP3 ADD MLOAD DUP2 DUP5 ADD MSTORE PUSH1 0x20 DUP2 ADD SWAP1 POP PUSH2 0x30C JUMP JUMPDEST PUSH0 DUP5 DUP5 ADD MSTORE POP POP POP POP JUMP JUMPDEST PUSH0 PUSH1 0x1F NOT PUSH1 0x1F DUP4 ADD AND SWAP1 POP SWAP2 SWAP1 POP JUMP JUMPDEST PUSH0 PUSH2 0x34C DUP3 PUSH2 0x2F0 JUMP JUMPDEST PUSH2 0x356 DUP2 DUP6 PUSH2 0x2FA JUMP JUMPDEST SWAP4 POP PUSH2 0x366 DUP2 DUP6 PUSH1 0x20 DUP7 ADD PUSH2 0x30A JUMP JUMPDEST PUSH2 0x36F DUP2 PUSH2 0x332 JUMP JUMPDEST DUP5 ADD SWAP2 POP POP SWAP3 SWAP2 POP POP JUMP JUMPDEST PUSH0 PUSH1 0x20 DUP3 ADD SWAP1 POP DUP2 DUP2 SUB PUSH0 DUP4 ADD MSTORE PUSH2 0x392 DUP2 DUP5 PUSH2 0x342 JUMP JUMPDEST SWAP1 POP SWAP3 SWAP2 POP POP JUMP JUMPDEST PUSH0 PUSH1 0x40 MLOAD SWAP1 POP SWAP1 JUMP JUMPDEST PUSH0 DUP1 REVERT JUMPDEST PUSH0 DUP1 REVERT JUMPDEST PUSH0 DUP1 REVERT JUMPDEST PUSH0 DUP1 REVERT JUMPDEST PUSH32 0x4E487B7100000000000000000000000000000000000000000000000000000000 PUSH0 MSTORE PUSH1 0x41 PUSH1 0x4 MSTORE PUSH1 0x24 PUSH0 REVERT JUMPDEST PUSH2 0x3E9 DUP3 PUSH2 0x332 JUMP JUMPDEST DUP2 ADD DUP2 DUP2 LT PUSH8 0xFFFFFFFFFFFFFFFF DUP3 GT OR ISZERO PUSH2 0x408 JUMPI PUSH2 0x407 PUSH2 0x3B3 JUMP JUMPDEST JUMPDEST DUP1 PUSH1 0x40 MSTORE POP POP POP JUMP JUMPDEST PUSH0 PUSH2 0x41A PUSH2 0x39A JUMP JUMPDEST SWAP1 POP PUSH2 0x426 DUP3 DUP3 PUSH2 0x3E0 JUMP JUMPDEST SWAP2 SWAP1 POP JUMP JUMPDEST PUSH0 PUSH8 0xFFFFFFFFFFFFFFFF DUP3 GT ISZERO PUSH2 0x445 JUMPI PUSH2 0x444 PUSH2 0x3B3 JUMP JUMPDEST JUMPDEST PUSH2 0x44E DUP3 PUSH2 0x332 JUMP JUMPDEST SWAP1 POP PUSH1 0x20 DUP2 ADD SWAP1 POP SWAP2 SWAP1 POP JUMP JUMPDEST DUP3 DUP2 DUP4 CALLDATACOPY PUSH0 DUP4 DUP4 ADD MSTORE POP POP POP JUMP JUMPDEST PUSH0 PUSH2 0x47B PUSH2 0x476 DUP5 PUSH2 0x42B JUMP JUMPDEST PUSH2 0x411 JUMP JUMPDEST SWAP1 POP DUP3 DUP2 MSTORE PUSH1 0x20 DUP2 ADD DUP5 DUP5 DUP5 ADD GT ISZERO PUSH2 0x497 JUMPI PUSH2 0x496 PUSH2 0x3AF JUMP JUMPDEST JUMPDEST PUSH2 0x4A2 DUP5 DUP3 DUP6 PUSH2 0x45B JUMP JUMPDEST POP SWAP4 SWAP3 POP POP POP JUMP JUMPDEST PUSH0 DUP3 PUSH1 0x1F DUP4 ADD SLT PUSH2 0x4BE JUMPI PUSH2 0x4BD PUSH2 0x3AB JUMP JUMPDEST JUMPDEST DUP2 CALLDATALOAD PUSH2 0x4CE DUP5 DUP3 PUSH1 0x20 DUP7 ADD PUSH2 0x469 JUMP JUMPDEST SWAP2 POP POP SWAP3 SWAP2 POP POP JUMP JUMPDEST PUSH0 PUSH1 0x20 DUP3 DUP5 SUB SLT ISZERO PUSH2 0x4EC JUMPI PUSH2 0x4EB PUSH2 0x3A3 JUMP JUMPDEST JUMPDEST PUSH0 DUP3 ADD CALLDATALOAD PUSH8 0xFFFFFFFFFFFFFFFF DUP2 GT ISZERO PUSH2 0x509 JUMPI PUSH2 0x508 PUSH2 0x3A7 JUMP JUMPDEST JUMPDEST PUSH2 0x515 DUP5 DUP3 DUP6 ADD PUSH2 0x4AA JUMP JUMPDEST SWAP2 POP POP SWAP3 SWAP2 POP POP JUMP JUMPDEST PUSH32 0x43616E206F6E6C792065617420706C616E7420666F6F64000000000000000000 PUSH0 DUP3 ADD MSTORE POP JUMP JUMPDEST PUSH0 PUSH2 0x552 PUSH1 0x17 DUP4 PUSH2 0x2FA JUMP JUMPDEST SWAP2 POP PUSH2 0x55D DUP3 PUSH2 0x51E JUMP JUMPDEST PUSH1 0x20 DUP3 ADD SWAP1 POP SWAP2 SWAP1 POP JUMP JUMPDEST PUSH0 PUSH1 0x20 DUP3 ADD SWAP1 POP DUP2 DUP2 SUB PUSH0 DUP4 ADD MSTORE PUSH2 0x57F DUP2 PUSH2 0x546 JUMP JUMPDEST SWAP1 POP SWAP2 SWAP1 POP JUMP JUMPDEST PUSH32 0x4E487B7100000000000000000000000000000000000000000000000000000000 PUSH0 MSTORE PUSH1 0x22 PUSH1 0x4 MSTORE PUSH1 0x24 PUSH0 REVERT JUMPDEST PUSH0 PUSH1 0x2 DUP3 DIV SWAP1 POP PUSH1 0x1 DUP3 AND DUP1 PUSH2 0x5CA JUMPI PUSH1 0x7F DUP3 AND SWAP2 POP JUMPDEST PUSH1 0x20 DUP3 LT DUP2 SUB PUSH2 0x5DD JUMPI PUSH2 0x5DC PUSH2 0x586 JUMP JUMPDEST JUMPDEST POP SWAP2 SWAP1 POP JUMP JUMPDEST PUSH0 DUP2 SWAP1 POP SWAP3 SWAP2 POP POP JUMP JUMPDEST PUSH0 PUSH2 0x5F7 DUP3 PUSH2 0x2F0 JUMP JUMPDEST PUSH2 0x601 DUP2 DUP6 PUSH2 0x5E3 JUMP JUMPDEST SWAP4 POP PUSH2 0x611 DUP2 DUP6 PUSH1 0x20 DUP7 ADD PUSH2 0x30A JUMP JUMPDEST DUP1 DUP5 ADD SWAP2 POP POP SWAP3 SWAP2 POP POP JUMP JUMPDEST PUSH0 PUSH2 0x628 DUP3 DUP5 PUSH2 0x5ED JUMP JUMPDEST SWAP2 POP DUP2 SWAP1 POP SWAP3 SWAP2 POP POP JUMP JUMPDEST PUSH32 0x416E696D616C2065617473000000000000000000000000000000000000000000 DUP2 MSTORE POP JUMP JUMPDEST PUSH0 PUSH2 0x663 DUP3 PUSH2 0x633 JUMP JUMPDEST PUSH1 0xB DUP3 ADD SWAP2 POP PUSH2 0x673 DUP3 DUP5 PUSH2 0x5ED JUMP JUMPDEST SWAP2 POP DUP2 SWAP1 POP SWAP3 SWAP2 POP POP JUMP INVALID LOG2 PUSH5 0x6970667358 0x22 SLT KECCAK256 0xAC 0xF7 0xE4 0xC3 SAR MUL DUP13 LOG2 0xFB DUP4 PUSH30 0x98E9B7396999FA7523788B6239DA2CB1ED7AFCA0F064736F6C6343000817 STOP CALLER PUSH1 0x80 PUSH1 0x40 MSTORE CALLVALUE DUP1 ISZERO PUSH3 0x10 JUMPI PUSH0 DUP1 REVERT JUMPDEST POP PUSH1 0x40 MLOAD PUSH3 0xBB8 CODESIZE SUB DUP1 PUSH3 0xBB8 DUP4 CODECOPY DUP2 DUP2 ADD PUSH1 0x40 MSTORE DUP2 ADD SWAP1 PUSH3 0x36 SWAP2 SWAP1 PUSH3 0x1D5 JUMP JUMPDEST DUP1 DUP1 PUSH0 SWAP1 DUP2 PUSH3 0x47 SWAP2 SWAP1 PUSH3 0x45B JUMP JUMPDEST POP POP POP PUSH3 0x53F JUMP JUMPDEST PUSH0 PUSH1 0x40 MLOAD SWAP1 POP SWAP1 JUMP JUMPDEST PUSH0 DUP1 REVERT JUMPDEST PUSH0 DUP1 REVERT JUMPDEST PUSH0 DUP1 REVERT JUMPDEST PUSH0 DUP1 REVERT JUMPDEST PUSH0 PUSH1 0x1F NOT PUSH1 0x1F DUP4 ADD AND SWAP1 POP SWAP2 SWAP1 POP JUMP JUMPDEST PUSH32 0x4E487B7100000000000000000000000000000000000000000000000000000000 PUSH0 MSTORE PUSH1 0x41 PUSH1 0x4 MSTORE PUSH1 0x24 PUSH0 REVERT JUMPDEST PUSH3 0xB1 DUP3 PUSH3 0x69 JUMP JUMPDEST DUP2 ADD DUP2 DUP2 LT PUSH8 0xFFFFFFFFFFFFFFFF DUP3 GT OR ISZERO PUSH3 0xD3 JUMPI PUSH3 0xD2 PUSH3 0x79 JUMP JUMPDEST JUMPDEST DUP1 PUSH1 0x40 MSTORE POP POP POP JUMP JUMPDEST PUSH0 PUSH3 0xE7 PUSH3 0x50 JUMP JUMPDEST SWAP1 POP PUSH3 0xF5 DUP3 DUP3 PUSH3 0xA6 JUMP JUMPDEST SWAP2 SWAP1 POP JUMP JUMPDEST PUSH0 PUSH8 0xFFFFFFFFFFFFFFFF DUP3 GT ISZERO PUSH3 0x117 JUMPI PUSH3 0x116 PUSH3 0x79 JUMP JUMPDEST JUMPDEST PUSH3 0x122 DUP3 PUSH3 0x69 JUMP JUMPDEST SWAP1 POP PUSH1 0x20 DUP2 ADD SWAP1 POP SWAP2 SWAP1 POP JUMP JUMPDEST PUSH0 JUMPDEST DUP4 DUP2 LT ISZERO PUSH3 0x14E JUMPI DUP1 DUP3 ADD MLOAD DUP2 DUP5 ADD MSTORE PUSH1 0x20 DUP2 ADD SWAP1 POP PUSH3 0x131 JUMP JUMPDEST PUSH0 DUP5 DUP5 ADD MSTORE POP POP POP POP JUMP JUMPDEST PUSH0 PUSH3 0x16F PUSH3 0x169 DUP5 PUSH3 0xFA JUMP JUMPDEST PUSH3 0xDC JUMP JUMPDEST SWAP1 POP DUP3 DUP2 MSTORE PUSH1 0x20 DUP2 ADD DUP5 DUP5 DUP5 ADD GT ISZERO PUSH3 0x18E JUMPI PUSH3 0x18D PUSH3 0x65 JUMP JUMPDEST JUMPDEST PUSH3 0x19B DUP5 DUP3 DUP6 PUSH3 0x12F JUMP JUMPDEST POP SWAP4 SWAP3 POP POP POP JUMP JUMPDEST PUSH0 DUP3 PUSH1 0x1F DUP4 ADD SLT PUSH3 0x1BA JUMPI PUSH3 0x1B9 PUSH3 0x61 JUMP JUMPDEST JUMPDEST DUP2 MLOAD PUSH3 0x1CC DUP5 DUP3 PUSH1 0x20 DUP7 ADD PUSH3 0x159 JUMP JUMPDEST SWAP2 POP POP SWAP3 SWAP2 POP POP JUMP JUMPDEST PUSH0 PUSH1 0x20 DUP3 DUP5 SUB SLT ISZERO PUSH3 0x1ED JUMPI PUSH3 0x1EC PUSH3 0x59 JUMP JUMPDEST JUMPDEST PUSH0 DUP3 ADD MLOAD PUSH8 0xFFFFFFFFFFFFFFFF DUP2 GT ISZERO PUSH3 0x20D JUMPI PUSH3 0x20C PUSH3 0x5D JUMP JUMPDEST JUMPDEST PUSH3 0x21B DUP5 DUP3 DUP6 ADD PUSH3 0x1A3 JUMP JUMPDEST SWAP2 POP POP SWAP3 SWAP2 POP POP JUMP JUMPDEST PUSH0 DUP2 MLOAD SWAP1 POP SWAP2 SWAP1 POP JUMP JUMPDEST PUSH32 0x4E487B7100000000000000000000000000000000000000000000000000000000 PUSH0 MSTORE PUSH1 0x22 PUSH1 0x4 MSTORE PUSH1 0x24 PUSH0 REVERT JUMPDEST PUSH0 PUSH1 0x2 DUP3 DIV SWAP1 POP PUSH1 0x1 DUP3 AND DUP1 PUSH3 0x273 JUMPI PUSH1 0x7F DUP3 AND SWAP2 POP JUMPDEST PUSH1 0x20 DUP3 LT DUP2 SUB PUSH3 0x289 JUMPI PUSH3 0x288 PUSH3 0x22E JUMP JUMPDEST JUMPDEST POP SWAP2 SWAP1 POP JUMP JUMPDEST PUSH0 DUP2 SWAP1 POP DUP2 PUSH0 MSTORE PUSH1 0x20 PUSH0 KECCAK256 SWAP1 POP SWAP2 SWAP1 POP JUMP JUMPDEST PUSH0 PUSH1 0x20 PUSH1 0x1F DUP4 ADD DIV SWAP1 POP SWAP2 SWAP1 POP JUMP JUMPDEST PUSH0 DUP3 DUP3 SHL SWAP1 POP SWAP3 SWAP2 POP POP JUMP JUMPDEST PUSH0 PUSH1 0x8 DUP4 MUL PUSH3 0x2ED PUSH32 0xFFFFFFFFFFFFFFFFFFFFFFFFFFFFFFFFFFFFFFFFFFFFFFFFFFFFFFFFFFFFFFFF DUP3 PUSH3 0x2B0 JUMP JUMPDEST PUSH3 0x2F9 DUP7 DUP4 PUSH3 0x2B0 JUMP JUMPDEST SWAP6 POP DUP1 NOT DUP5 AND SWAP4 POP DUP1 DUP7 AND DUP5 OR SWAP3 POP POP POP SWAP4 SWAP3 POP POP POP JUMP JUMPDEST PUSH0 DUP2 SWAP1 POP SWAP2 SWAP1 POP JUMP JUMPDEST PUSH0 DUP2 SWAP1 POP SWAP2 SWAP1 POP JUMP JUMPDEST PUSH0 PUSH3 0x343 PUSH3 0x33D PUSH3 0x337 DUP5 PUSH3 0x311 JUMP JUMPDEST PUSH3 0x31A JUMP JUMPDEST PUSH3 0x311 JUMP JUMPDEST SWAP1 POP SWAP2 SWAP1 POP JUMP JUMPDEST PUSH0 DUP2 SWAP1 POP SWAP2 SWAP1 POP JUMP JUMPDEST PUSH3 0x35E DUP4 PUSH3 0x323 JUMP JUMPDEST PUSH3 0x376 PUSH3 0x36D DUP3 PUSH3 0x34A JUMP JUMPDEST DUP5 DUP5 SLOAD PUSH3 0x2BC JUMP JUMPDEST DUP3 SSTORE POP POP POP POP JUMP JUMPDEST PUSH0 SWAP1 JUMP JUMPDEST PUSH3 0x38C PUSH3 0x37E JUMP JUMPDEST PUSH3 0x399 DUP2 DUP5 DUP5 PUSH3 0x353 JUMP JUMPDEST POP POP POP JUMP JUMPDEST JUMPDEST DUP2 DUP2 LT ISZERO PUSH3 0x3C0 JUMPI PUSH3 0x3B4 PUSH0 DUP3 PUSH3 0x382 JUMP JUMPDEST PUSH1 0x1 DUP2 ADD SWAP1 POP PUSH3 0x39F JUMP JUMPDEST POP POP JUMP JUMPDEST PUSH1 0x1F DUP3 GT ISZERO PUSH3 0x40F JUMPI PUSH3 0x3D9 DUP2 PUSH3 0x28F JUMP JUMPDEST PUSH3 0x3E4 DUP5 PUSH3 0x2A1 JUMP JUMPDEST DUP2 ADD PUSH1 0x20 DUP6 LT ISZERO PUSH3 0x3F4 JUMPI DUP2 SWAP1 POP JUMPDEST PUSH3 0x40C PUSH3 0x403 DUP6 PUSH3 0x2A1 JUMP JUMPDEST DUP4 ADD DUP3 PUSH3 0x39E JUMP JUMPDEST POP POP JUMPDEST POP POP POP JUMP JUMPDEST PUSH0 DUP3 DUP3 SHR SWAP1 POP SWAP3 SWAP2 POP POP JUMP JUMPDEST PUSH0 PUSH3 0x431 PUSH0 NOT DUP5 PUSH1 0x8 MUL PUSH3 0x414 JUMP JUMPDEST NOT DUP1 DUP4 AND SWAP2 POP POP SWAP3 SWAP2 POP POP JUMP JUMPDEST PUSH0 PUSH3 0x44B DUP4 DUP4 PUSH3 0x420 JUMP JUMPDEST SWAP2 POP DUP3 PUSH1 0x2 MUL DUP3 OR SWAP1 POP SWAP3 SWAP2 POP POP JUMP JUMPDEST PUSH3 0x466 DUP3 PUSH3 0x224 JUMP JUMPDEST PUSH8 0xFFFFFFFFFFFFFFFF DUP2 GT ISZERO PUSH3 0x482 JUMPI PUSH3 0x481 PUSH3 0x79 JUMP JUMPDEST JUMPDEST PUSH3 0x48E DUP3 SLOAD PUSH3 0x25B JUMP JUMPDEST PUSH3 0x49B DUP3 DUP3 DUP6 PUSH3 0x3C4 JUMP JUMPDEST PUSH0 PUSH1 0x20 SWAP1 POP PUSH1 0x1F DUP4 GT PUSH1 0x1 DUP2 EQ PUSH3 0x4D1 JUMPI PUSH0 DUP5 ISZERO PUSH3 0x4BC JUMPI DUP3 DUP8 ADD MLOAD SWAP1 POP JUMPDEST PUSH3 0x4C8 DUP6 DUP3 PUSH3 0x43E JUMP JUMPDEST DUP7 SSTORE POP PUSH3 0x537 JUMP JUMPDEST PUSH1 0x1F NOT DUP5 AND PUSH3 0x4E1 DUP7 PUSH3 0x28F JUMP JUMPDEST PUSH0 JUMPDEST DUP3 DUP2 LT ISZERO PUSH3 0x50A JUMPI DUP5 DUP10 ADD MLOAD DUP3 SSTORE PUSH1 0x1 DUP3 ADD SWAP2 POP PUSH1 0x20 DUP6 ADD SWAP5 POP PUSH1 0x20 DUP2 ADD SWAP1 POP PUSH3 0x4E3 JUMP JUMPDEST DUP7 DUP4 LT ISZERO PUSH3 0x52A JUMPI DUP5 DUP10 ADD MLOAD PUSH3 0x526 PUSH1 0x1F DUP10 AND DUP3 PUSH3 0x420 JUMP JUMPDEST DUP4 SSTORE POP JUMPDEST PUSH1 0x1 PUSH1 0x2 DUP9 MUL ADD DUP9 SSTORE POP POP POP JUMPDEST POP POP POP POP POP POP JUMP JUMPDEST PUSH2 0x66B DUP1 PUSH3 0x54D PUSH0 CODECOPY PUSH0 RETURN INVALID PUSH1 0x80 PUSH1 0x40 MSTORE CALLVALUE DUP1 ISZERO PUSH2 0xF JUMPI PUSH0 DUP1 REVERT JUMPDEST POP PUSH1 0x4 CALLDATASIZE LT PUSH2 0x4A JUMPI PUSH0 CALLDATALOAD PUSH1 0xE0 SHR DUP1 PUSH4 0x133A473E EQ PUSH2 0x4E JUMPI DUP1 PUSH4 0x50D85315 EQ PUSH2 0x6C JUMPI DUP1 PUSH4 0x728D9B74 EQ PUSH2 0x8A JUMPI DUP1 PUSH4 0xD28D8852 EQ PUSH2 0xBA JUMPI JUMPDEST PUSH0 DUP1 REVERT JUMPDEST PUSH2 0x56 PUSH2 0xD8 JUMP JUMPDEST PUSH1 0x40 MLOAD PUSH2 0x63 SWAP2 SWAP1 PUSH2 0x37C JUMP JUMPDEST PUSH1 0x40 MLOAD DUP1 SWAP2 SUB SWAP1 RETURN JUMPDEST PUSH2 0x74 PUSH2 0x115 JUMP JUMPDEST PUSH1 0x40 MLOAD PUSH2 0x81 SWAP2 SWAP1 PUSH2 0x37C JUMP JUMPDEST PUSH1 0x40 MLOAD DUP1 SWAP2 SUB SWAP1 RETURN JUMPDEST PUSH2 0xA4 PUSH1 0x4 DUP1 CALLDATASIZE SUB DUP2 ADD SWAP1 PUSH2 0x9F SWAP2 SWAP1 PUSH2 0x4D9 JUMP JUMPDEST PUSH2 0x152 JUMP JUMPDEST PUSH1 0x40 MLOAD PUSH2 0xB1 SWAP2 SWAP1 PUSH2 0x37C JUMP JUMPDEST PUSH1 0x40 MLOAD DUP1 SWAP2 SUB SWAP1 RETURN JUMPDEST PUSH2 0xC2 PUSH2 0x20F JUMP JUMPDEST PUSH1 0x40 MLOAD PUSH2 0xCF SWAP2 SWAP1 PUSH2 0x37C JUMP JUMPDEST PUSH1 0x40 MLOAD DUP1 SWAP2 SUB SWAP1 RETURN JUMPDEST PUSH1 0x60 PUSH1 0x40 MLOAD DUP1 PUSH1 0x40 ADD PUSH1 0x40 MSTORE DUP1 PUSH1 0xB DUP2 MSTORE PUSH1 0x20 ADD PUSH32 0x5A2D7A2D7A2D7A2D7A2D7A000000000000000000000000000000000000000000 DUP2 MSTORE POP SWAP1 POP SWAP1 JUMP JUMPDEST PUSH1 0x60 PUSH1 0x40 MLOAD DUP1 PUSH1 0x40 ADD PUSH1 0x40 MSTORE DUP1 PUSH1 0x4 DUP2 MSTORE PUSH1 0x20 ADD PUSH32 0x41776F6F00000000000000000000000000000000000000000000000000000000 DUP2 MSTORE POP SWAP1 POP SWAP1 JUMP JUMPDEST PUSH1 0x60 PUSH2 0x193 DUP3 PUSH1 0x40 MLOAD DUP1 PUSH1 0x40 ADD PUSH1 0x40 MSTORE DUP1 PUSH1 0x4 DUP2 MSTORE PUSH1 0x20 ADD PUSH32 0x6D65617400000000000000000000000000000000000000000000000000000000 DUP2 MSTORE POP PUSH2 0x29A JUMP JUMPDEST PUSH2 0x1D2 JUMPI PUSH1 0x40 MLOAD PUSH32 0x8C379A000000000000000000000000000000000000000000000000000000000 DUP2 MSTORE PUSH1 0x4 ADD PUSH2 0x1C9 SWAP1 PUSH2 0x56A JUMP JUMPDEST PUSH1 0x40 MLOAD DUP1 SWAP2 SUB SWAP1 REVERT JUMPDEST PUSH1 0x40 MLOAD DUP1 PUSH1 0x40 ADD PUSH1 0x40 MSTORE DUP1 PUSH1 0xE DUP2 MSTORE PUSH1 0x20 ADD PUSH32 0x576F6C662065617473206D656174000000000000000000000000000000000000 DUP2 MSTORE POP SWAP1 POP SWAP2 SWAP1 POP JUMP JUMPDEST PUSH0 DUP1 SLOAD PUSH2 0x21B SWAP1 PUSH2 0x5B5 JUMP JUMPDEST DUP1 PUSH1 0x1F ADD PUSH1 0x20 DUP1 SWAP2 DIV MUL PUSH1 0x20 ADD PUSH1 0x40 MLOAD SWAP1 DUP2 ADD PUSH1 0x40 MSTORE DUP1 SWAP3 SWAP2 SWAP1 DUP2 DUP2 MSTORE PUSH1 0x20 ADD DUP3 DUP1 SLOAD PUSH2 0x247 SWAP1 PUSH2 0x5B5 JUMP JUMPDEST DUP1 ISZERO PUSH2 0x292 JUMPI DUP1 PUSH1 0x1F LT PUSH2 0x269 JUMPI PUSH2 0x100 DUP1 DUP4 SLOAD DIV MUL DUP4 MSTORE SWAP2 PUSH1 0x20 ADD SWAP2 PUSH2 0x292 JUMP JUMPDEST DUP3 ADD SWAP2 SWAP1 PUSH0 MSTORE PUSH1 0x20 PUSH0 KECCAK256 SWAP1 JUMPDEST DUP2 SLOAD DUP2 MSTORE SWAP1 PUSH1 0x1 ADD SWAP1 PUSH1 0x20 ADD DUP1 DUP4 GT PUSH2 0x275 JUMPI DUP3 SWAP1 SUB PUSH1 0x1F AND DUP3 ADD SWAP2 JUMPDEST POP POP POP POP POP DUP2 JUMP JUMPDEST PUSH0 DUP2 PUSH1 0x40 MLOAD PUSH1 0x20 ADD PUSH2 0x2AC SWAP2 SWAP1 PUSH2 0x61F JUMP JUMPDEST PUSH1 0x40 MLOAD PUSH1 0x20 DUP2 DUP4 SUB SUB DUP2 MSTORE SWAP1 PUSH1 0x40 MSTORE DUP1 MLOAD SWAP1 PUSH1 0x20 ADD KECCAK256 DUP4 PUSH1 0x40 MLOAD PUSH1 0x20 ADD PUSH2 0x2D3 SWAP2 SWAP1 PUSH2 0x61F JUMP JUMPDEST PUSH1 0x40 MLOAD PUSH1 0x20 DUP2 DUP4 SUB SUB DUP2 MSTORE SWAP1 PUSH1 0x40 MSTORE DUP1 MLOAD SWAP1 PUSH1 0x20 ADD KECCAK256 EQ SWAP1 POP SWAP3 SWAP2 POP POP JUMP JUMPDEST PUSH0 DUP2 MLOAD SWAP1 POP SWAP2 SWAP1 POP JUMP JUMPDEST PUSH0 DUP3 DUP3 MSTORE PUSH1 0x20 DUP3 ADD SWAP1 POP SWAP3 SWAP2 POP POP JUMP JUMPDEST PUSH0 JUMPDEST DUP4 DUP2 LT ISZERO PUSH2 0x329 JUMPI DUP1 DUP3 ADD MLOAD DUP2 DUP5 ADD MSTORE PUSH1 0x20 DUP2 ADD SWAP1 POP PUSH2 0x30E JUMP JUMPDEST PUSH0 DUP5 DUP5 ADD MSTORE POP POP POP POP JUMP JUMPDEST PUSH0 PUSH1 0x1F NOT PUSH1 0x1F DUP4 ADD AND SWAP1 POP SWAP2 SWAP1 POP JUMP JUMPDEST PUSH0 PUSH2 0x34E DUP3 PUSH2 0x2F2 JUMP JUMPDEST PUSH2 0x358 DUP2 DUP6 PUSH2 0x2FC JUMP JUMPDEST SWAP4 POP PUSH2 0x368 DUP2 DUP6 PUSH1 0x20 DUP7 ADD PUSH2 0x30C JUMP JUMPDEST PUSH2 0x371 DUP2 PUSH2 0x334 JUMP JUMPDEST DUP5 ADD SWAP2 POP POP SWAP3 SWAP2 POP POP JUMP JUMPDEST PUSH0 PUSH1 0x20 DUP3 ADD SWAP1 POP DUP2 DUP2 SUB PUSH0 DUP4 ADD MSTORE PUSH2 0x394 DUP2 DUP5 PUSH2 0x344 JUMP JUMPDEST SWAP1 POP SWAP3 SWAP2 POP POP JUMP JUMPDEST PUSH0 PUSH1 0x40 MLOAD SWAP1 POP SWAP1 JUMP JUMPDEST PUSH0 DUP1 REVERT JUMPDEST PUSH0 DUP1 REVERT JUMPDEST PUSH0 DUP1 REVERT JUMPDEST PUSH0 DUP1 REVERT JUMPDEST PUSH32 0x4E487B7100000000000000000000000000000000000000000000000000000000 PUSH0 MSTORE PUSH1 0x41 PUSH1 0x4 MSTORE PUSH1 0x24 PUSH0 REVERT JUMPDEST PUSH2 0x3EB DUP3 PUSH2 0x334 JUMP JUMPDEST DUP2 ADD DUP2 DUP2 LT PUSH8 0xFFFFFFFFFFFFFFFF DUP3 GT OR ISZERO PUSH2 0x40A JUMPI PUSH2 0x409 PUSH2 0x3B5 JUMP JUMPDEST JUMPDEST DUP1 PUSH1 0x40 MSTORE POP POP POP JUMP JUMPDEST PUSH0 PUSH2 0x41C PUSH2 0x39C JUMP JUMPDEST SWAP1 POP PUSH2 0x428 DUP3 DUP3 PUSH2 0x3E2 JUMP JUMPDEST SWAP2 SWAP1 POP JUMP JUMPDEST PUSH0 PUSH8 0xFFFFFFFFFFFFFFFF DUP3 GT ISZERO PUSH2 0x447 JUMPI PUSH2 0x446 PUSH2 0x3B5 JUMP JUMPDEST JUMPDEST PUSH2 0x450 DUP3 PUSH2 0x334 JUMP JUMPDEST SWAP1 POP PUSH1 0x20 DUP2 ADD SWAP1 POP SWAP2 SWAP1 POP JUMP JUMPDEST DUP3 DUP2 DUP4 CALLDATACOPY PUSH0 DUP4 DUP4 ADD MSTORE POP POP POP JUMP JUMPDEST PUSH0 PUSH2 0x47D PUSH2 0x478 DUP5 PUSH2 0x42D JUMP JUMPDEST PUSH2 0x413 JUMP JUMPDEST SWAP1 POP DUP3 DUP2 MSTORE PUSH1 0x20 DUP2 ADD DUP5 DUP5 DUP5 ADD GT ISZERO PUSH2 0x499 JUMPI PUSH2 0x498 PUSH2 0x3B1 JUMP JUMPDEST JUMPDEST PUSH2 0x4A4 DUP5 DUP3 DUP6 PUSH2 0x45D JUMP JUMPDEST POP SWAP4 SWAP3 POP POP POP JUMP JUMPDEST PUSH0 DUP3 PUSH1 0x1F DUP4 ADD SLT PUSH2 0x4C0 JUMPI PUSH2 0x4BF PUSH2 0x3AD JUMP JUMPDEST JUMPDEST DUP2 CALLDATALOAD PUSH2 0x4D0 DUP5 DUP3 PUSH1 0x20 DUP7 ADD PUSH2 0x46B JUMP JUMPDEST SWAP2 POP POP SWAP3 SWAP2 POP POP JUMP JUMPDEST PUSH0 PUSH1 0x20 DUP3 DUP5 SUB SLT ISZERO PUSH2 0x4EE JUMPI PUSH2 0x4ED PUSH2 0x3A5 JUMP JUMPDEST JUMPDEST PUSH0 DUP3 ADD CALLDATALOAD PUSH8 0xFFFFFFFFFFFFFFFF DUP2 GT ISZERO PUSH2 0x50B JUMPI PUSH2 0x50A PUSH2 0x3A9 JUMP JUMPDEST JUMPDEST PUSH2 0x517 DUP5 DUP3 DUP6 ADD PUSH2 0x4AC JUMP JUMPDEST SWAP2 POP POP SWAP3 SWAP2 POP POP JUMP JUMPDEST PUSH32 0x576F6C7665732063616E206F6E6C7920656174206D6561740000000000000000 PUSH0 DUP3 ADD MSTORE POP JUMP JUMPDEST PUSH0 PUSH2 0x554 PUSH1 0x18 DUP4 PUSH2 0x2FC JUMP JUMPDEST SWAP2 POP PUSH2 0x55F DUP3 PUSH2 0x520 JUMP JUMPDEST PUSH1 0x20 DUP3 ADD SWAP1 POP SWAP2 SWAP1 POP JUMP JUMPDEST PUSH0 PUSH1 0x20 DUP3 ADD SWAP1 POP DUP2 DUP2 SUB PUSH0 DUP4 ADD MSTORE PUSH2 0x581 DUP2 PUSH2 0x548 JUMP JUMPDEST SWAP1 POP SWAP2 SWAP1 POP JUMP JUMPDEST PUSH32 0x4E487B7100000000000000000000000000000000000000000000000000000000 PUSH0 MSTORE PUSH1 0x22 PUSH1 0x4 MSTORE PUSH1 0x24 PUSH0 REVERT JUMPDEST PUSH0 PUSH1 0x2 DUP3 DIV SWAP1 POP PUSH1 0x1 DUP3 AND DUP1 PUSH2 0x5CC JUMPI PUSH1 0x7F DUP3 AND SWAP2 POP JUMPDEST PUSH1 0x20 DUP3 LT DUP2 SUB PUSH2 0x5DF JUMPI PUSH2 0x5DE PUSH2 0x588 JUMP JUMPDEST JUMPDEST POP SWAP2 SWAP1 POP JUMP JUMPDEST PUSH0 DUP2 SWAP1 POP SWAP3 SWAP2 POP POP JUMP JUMPDEST PUSH0 PUSH2 0x5F9 DUP3 PUSH2 0x2F2 JUMP JUMPDEST PUSH2 0x603 DUP2 DUP6 PUSH2 0x5E5 JUMP JUMPDEST SWAP4 POP PUSH2 0x613 DUP2 DUP6 PUSH1 0x20 DUP7 ADD PUSH2 0x30C JUMP JUMPDEST DUP1 DUP5 ADD SWAP2 POP POP SWAP3 SWAP2 POP POP JUMP JUMPDEST PUSH0 PUSH2 0x62A DUP3 DUP5 PUSH2 0x5EF JUMP JUMPDEST SWAP2 POP DUP2 SWAP1 POP SWAP3 SWAP2 POP POP JUMP INVALID LOG2 PUSH5 0x6970667358 0x22 SLT KECCAK256 DUP15 0xB0 0xD8 DUP3 0xCA SWAP8 0x49 0xB1 RETURNDATASIZE 0x28 MOD CREATE2 0x25 0x25 MSTORE 0xA8 0xCA EXTCODEHASH 0xD6 SWAP9 0xD3 0xB0 0x25 DUP15 SUB 0xBA 0xDE 0xC7 0xAC 0xD4 DUP15 NUMBER PUSH5 0x736F6C6343 STOP ADDMOD OR STOP CALLER PUSH1 0x80 PUSH1 0x40 MSTORE CALLVALUE DUP1 ISZERO PUSH3 0x10 JUMPI PUSH0 DUP1 REVERT JUMPDEST POP PUSH1 0x40 MLOAD PUSH3 0xCE5 CODESIZE SUB DUP1 PUSH3 0xCE5 DUP4 CODECOPY DUP2 DUP2 ADD PUSH1 0x40 MSTORE DUP2 ADD SWAP1 PUSH3 0x36 SWAP2 SWAP1 PUSH3 0x1D5 JUMP JUMPDEST DUP1 DUP1 PUSH0 SWAP1 DUP2 PUSH3 0x47 SWAP2 SWAP1 PUSH3 0x45B JUMP JUMPDEST POP POP POP PUSH3 0x53F JUMP JUMPDEST PUSH0 PUSH1 0x40 MLOAD SWAP1 POP SWAP1 JUMP JUMPDEST PUSH0 DUP1 REVERT JUMPDEST PUSH0 DUP1 REVERT JUMPDEST PUSH0 DUP1 REVERT JUMPDEST PUSH0 DUP1 REVERT JUMPDEST PUSH0 PUSH1 0x1F NOT PUSH1 0x1F DUP4 ADD AND SWAP1 POP SWAP2 SWAP1 POP JUMP JUMPDEST PUSH32 0x4E487B7100000000000000000000000000000000000000000000000000000000 PUSH0 MSTORE PUSH1 0x41 PUSH1 0x4 MSTORE PUSH1 0x24 PUSH0 REVERT JUMPDEST PUSH3 0xB1 DUP3 PUSH3 0x69 JUMP JUMPDEST DUP2 ADD DUP2 DUP2 LT PUSH8 0xFFFFFFFFFFFFFFFF DUP3 GT OR ISZERO PUSH3 0xD3 JUMPI PUSH3 0xD2 PUSH3 0x79 JUMP JUMPDEST JUMPDEST DUP1 PUSH1 0x40 MSTORE POP POP POP JUMP JUMPDEST PUSH0 PUSH3 0xE7 PUSH3 0x50 JUMP JUMPDEST SWAP1 POP PUSH3 0xF5 DUP3 DUP3 PUSH3 0xA6 JUMP JUMPDEST SWAP2 SWAP1 POP JUMP JUMPDEST PUSH0 PUSH8 0xFFFFFFFFFFFFFFFF DUP3 GT ISZERO PUSH3 0x117 JUMPI PUSH3 0x116 PUSH3 0x79 JUMP JUMPDEST JUMPDEST PUSH3 0x122 DUP3 PUSH3 0x69 JUMP JUMPDEST SWAP1 POP PUSH1 0x20 DUP2 ADD SWAP1 POP SWAP2 SWAP1 POP JUMP JUMPDEST PUSH0 JUMPDEST DUP4 DUP2 LT ISZERO PUSH3 0x14E JUMPI DUP1 DUP3 ADD MLOAD DUP2 DUP5 ADD MSTORE PUSH1 0x20 DUP2 ADD SWAP1 POP PUSH3 0x131 JUMP JUMPDEST PUSH0 DUP5 DUP5 ADD MSTORE POP POP POP POP JUMP JUMPDEST PUSH0 PUSH3 0x16F PUSH3 0x169 DUP5 PUSH3 0xFA JUMP JUMPDEST PUSH3 0xDC JUMP JUMPDEST SWAP1 POP DUP3 DUP2 MSTORE PUSH1 0x20 DUP2 ADD DUP5 DUP5 DUP5 ADD GT ISZERO PUSH3 0x18E JUMPI PUSH3 0x18D PUSH3 0x65 JUMP JUMPDEST JUMPDEST PUSH3 0x19B DUP5 DUP3 DUP6 PUSH3 0x12F JUMP JUMPDEST POP SWAP4 SWAP3 POP POP POP JUMP JUMPDEST PUSH0 DUP3 PUSH1 0x1F DUP4 ADD SLT PUSH3 0x1BA JUMPI PUSH3 0x1B9 PUSH3 0x61 JUMP JUMPDEST JUMPDEST DUP2 MLOAD PUSH3 0x1CC DUP5 DUP3 PUSH1 0x20 DUP7 ADD PUSH3 0x159 JUMP JUMPDEST SWAP2 POP POP SWAP3 SWAP2 POP POP JUMP JUMPDEST PUSH0 PUSH1 0x20 DUP3 DUP5 SUB SLT ISZERO PUSH3 0x1ED JUMPI PUSH3 0x1EC PUSH3 0x59 JUMP JUMPDEST JUMPDEST PUSH0 DUP3 ADD MLOAD PUSH8 0xFFFFFFFFFFFFFFFF DUP2 GT ISZERO PUSH3 0x20D JUMPI PUSH3 0x20C PUSH3 0x5D JUMP JUMPDEST JUMPDEST PUSH3 0x21B DUP5 DUP3 DUP6 ADD PUSH3 0x1A3 JUMP JUMPDEST SWAP2 POP POP SWAP3 SWAP2 POP POP JUMP JUMPDEST PUSH0 DUP2 MLOAD SWAP1 POP SWAP2 SWAP1 POP JUMP JUMPDEST PUSH32 0x4E487B7100000000000000000000000000000000000000000000000000000000 PUSH0 MSTORE PUSH1 0x22 PUSH1 0x4 MSTORE PUSH1 0x24 PUSH0 REVERT JUMPDEST PUSH0 PUSH1 0x2 DUP3 DIV SWAP1 POP PUSH1 0x1 DUP3 AND DUP1 PUSH3 0x273 JUMPI PUSH1 0x7F DUP3 AND SWAP2 POP JUMPDEST PUSH1 0x20 DUP3 LT DUP2 SUB PUSH3 0x289 JUMPI PUSH3 0x288 PUSH3 0x22E JUMP JUMPDEST JUMPDEST POP SWAP2 SWAP1 POP JUMP JUMPDEST PUSH0 DUP2 SWAP1 POP DUP2 PUSH0 MSTORE PUSH1 0x20 PUSH0 KECCAK256 SWAP1 POP SWAP2 SWAP1 POP JUMP JUMPDEST PUSH0 PUSH1 0x20 PUSH1 0x1F DUP4 ADD DIV SWAP1 POP SWAP2 SWAP1 POP JUMP JUMPDEST PUSH0 DUP3 DUP3 SHL SWAP1 POP SWAP3 SWAP2 POP POP JUMP JUMPDEST PUSH0 PUSH1 0x8 DUP4 MUL PUSH3 0x2ED PUSH32 0xFFFFFFFFFFFFFFFFFFFFFFFFFFFFFFFFFFFFFFFFFFFFFFFFFFFFFFFFFFFFFFFF DUP3 PUSH3 0x2B0 JUMP JUMPDEST PUSH3 0x2F9 DUP7 DUP4 PUSH3 0x2B0 JUMP JUMPDEST SWAP6 POP DUP1 NOT DUP5 AND SWAP4 POP DUP1 DUP7 AND DUP5 OR SWAP3 POP POP POP SWAP4 SWAP3 POP POP POP JUMP JUMPDEST PUSH0 DUP2 SWAP1 POP SWAP2 SWAP1 POP JUMP JUMPDEST PUSH0 DUP2 SWAP1 POP SWAP2 SWAP1 POP JUMP JUMPDEST PUSH0 PUSH3 0x343 PUSH3 0x33D PUSH3 0x337 DUP5 PUSH3 0x311 JUMP JUMPDEST PUSH3 0x31A JUMP JUMPDEST PUSH3 0x311 JUMP JUMPDEST SWAP1 POP SWAP2 SWAP1 POP JUMP JUMPDEST PUSH0 DUP2 SWAP1 POP SWAP2 SWAP1 POP JUMP JUMPDEST PUSH3 0x35E DUP4 PUSH3 0x323 JUMP JUMPDEST PUSH3 0x376 PUSH3 0x36D DUP3 PUSH3 0x34A JUMP JUMPDEST DUP5 DUP5 SLOAD PUSH3 0x2BC JUMP JUMPDEST DUP3 SSTORE POP POP POP POP JUMP JUMPDEST PUSH0 SWAP1 JUMP JUMPDEST PUSH3 0x38C PUSH3 0x37E JUMP JUMPDEST PUSH3 0x399 DUP2 DUP5 DUP5 PUSH3 0x353 JUMP JUMPDEST POP POP POP JUMP JUMPDEST JUMPDEST DUP2 DUP2 LT ISZERO PUSH3 0x3C0 JUMPI PUSH3 0x3B4 PUSH0 DUP3 PUSH3 0x382 JUMP JUMPDEST PUSH1 0x1 DUP2 ADD SWAP1 POP PUSH3 0x39F JUMP JUMPDEST POP POP JUMP JUMPDEST PUSH1 0x1F DUP3 GT ISZERO PUSH3 0x40F JUMPI PUSH3 0x3D9 DUP2 PUSH3 0x28F JUMP JUMPDEST PUSH3 0x3E4 DUP5 PUSH3 0x2A1 JUMP JUMPDEST DUP2 ADD PUSH1 0x20 DUP6 LT ISZERO PUSH3 0x3F4 JUMPI DUP2 SWAP1 POP JUMPDEST PUSH3 0x40C PUSH3 0x403 DUP6 PUSH3 0x2A1 JUMP JUMPDEST DUP4 ADD DUP3 PUSH3 0x39E JUMP JUMPDEST POP POP JUMPDEST POP POP POP JUMP JUMPDEST PUSH0 DUP3 DUP3 SHR SWAP1 POP SWAP3 SWAP2 POP POP JUMP JUMPDEST PUSH0 PUSH3 0x431 PUSH0 NOT DUP5 PUSH1 0x8 MUL PUSH3 0x414 JUMP JUMPDEST NOT DUP1 DUP4 AND SWAP2 POP POP SWAP3 SWAP2 POP POP JUMP JUMPDEST PUSH0 PUSH3 0x44B DUP4 DUP4 PUSH3 0x420 JUMP JUMPDEST SWAP2 POP DUP3 PUSH1 0x2 MUL DUP3 OR SWAP1 POP SWAP3 SWAP2 POP POP JUMP JUMPDEST PUSH3 0x466 DUP3 PUSH3 0x224 JUMP JUMPDEST PUSH8 0xFFFFFFFFFFFFFFFF DUP2 GT ISZERO PUSH3 0x482 JUMPI PUSH3 0x481 PUSH3 0x79 JUMP JUMPDEST JUMPDEST PUSH3 0x48E DUP3 SLOAD PUSH3 0x25B JUMP JUMPDEST PUSH3 0x49B DUP3 DUP3 DUP6 PUSH3 0x3C4 JUMP JUMPDEST PUSH0 PUSH1 0x20 SWAP1 POP PUSH1 0x1F DUP4 GT PUSH1 0x1 DUP2 EQ PUSH3 0x4D1 JUMPI PUSH0 DUP5 ISZERO PUSH3 0x4BC JUMPI DUP3 DUP8 ADD MLOAD SWAP1 POP JUMPDEST PUSH3 0x4C8 DUP6 DUP3 PUSH3 0x43E JUMP JUMPDEST DUP7 SSTORE POP PUSH3 0x537 JUMP JUMPDEST PUSH1 0x1F NOT DUP5 AND PUSH3 0x4E1 DUP7 PUSH3 0x28F JUMP JUMPDEST PUSH0 JUMPDEST DUP3 DUP2 LT ISZERO PUSH3 0x50A JUMPI DUP5 DUP10 ADD MLOAD DUP3 SSTORE PUSH1 0x1 DUP3 ADD SWAP2 POP PUSH1 0x20 DUP6 ADD SWAP5 POP PUSH1 0x20 DUP2 ADD SWAP1 POP PUSH3 0x4E3 JUMP JUMPDEST DUP7 DUP4 LT ISZERO PUSH3 0x52A JUMPI DUP5 DUP10 ADD MLOAD PUSH3 0x526 PUSH1 0x1F DUP10 AND DUP3 PUSH3 0x420 JUMP JUMPDEST DUP4 SSTORE POP JUMPDEST PUSH1 0x1 PUSH1 0x2 DUP9 MUL ADD DUP9 SSTORE POP POP POP JUMPDEST POP POP POP POP POP POP JUMP JUMPDEST PUSH2 0x798 DUP1 PUSH3 0x54D PUSH0 CODECOPY PUSH0 RETURN INVALID PUSH1 0x80 PUSH1 0x40 MSTORE CALLVALUE DUP1 ISZERO PUSH2 0xF JUMPI PUSH0 DUP1 REVERT JUMPDEST POP PUSH1 0x4 CALLDATASIZE LT PUSH2 0x4A JUMPI PUSH0 CALLDATALOAD PUSH1 0xE0 SHR DUP1 PUSH4 0x133A473E EQ PUSH2 0x4E JUMPI DUP1 PUSH4 0x50D85315 EQ PUSH2 0x6C JUMPI DUP1 PUSH4 0x728D9B74 EQ PUSH2 0x8A JUMPI DUP1 PUSH4 0xD28D8852 EQ PUSH2 0xBA JUMPI JUMPDEST PUSH0 DUP1 REVERT JUMPDEST PUSH2 0x56 PUSH2 0xD8 JUMP JUMPDEST PUSH1 0x40 MLOAD PUSH2 0x63 SWAP2 SWAP1 PUSH2 0x441 JUMP JUMPDEST PUSH1 0x40 MLOAD DUP1 SWAP2 SUB SWAP1 RETURN JUMPDEST PUSH2 0x74 PUSH2 0x115 JUMP JUMPDEST PUSH1 0x40 MLOAD PUSH2 0x81 SWAP2 SWAP1 PUSH2 0x441 JUMP JUMPDEST PUSH1 0x40 MLOAD DUP1 SWAP2 SUB SWAP1 RETURN JUMPDEST PUSH2 0xA4 PUSH1 0x4 DUP1 CALLDATASIZE SUB DUP2 ADD SWAP1 PUSH2 0x9F SWAP2 SWAP1 PUSH2 0x59E JUMP JUMPDEST PUSH2 0x152 JUMP JUMPDEST PUSH1 0x40 MLOAD PUSH2 0xB1 SWAP2 SWAP1 PUSH2 0x441 JUMP JUMPDEST PUSH1 0x40 MLOAD DUP1 SWAP2 SUB SWAP1 RETURN JUMPDEST PUSH2 0xC2 PUSH2 0x2D4 JUMP JUMPDEST PUSH1 0x40 MLOAD PUSH2 0xCF SWAP2 SWAP1 PUSH2 0x441 JUMP JUMPDEST PUSH1 0x40 MLOAD DUP1 SWAP2 SUB SWAP1 RETURN JUMPDEST PUSH1 0x60 PUSH1 0x40 MLOAD DUP1 PUSH1 0x40 ADD PUSH1 0x40 MSTORE DUP1 PUSH1 0xB DUP2 MSTORE PUSH1 0x20 ADD PUSH32 0x5A2D7A2D7A2D7A2D7A2D7A000000000000000000000000000000000000000000 DUP2 MSTORE POP SWAP1 POP SWAP1 JUMP JUMPDEST PUSH1 0x60 PUSH1 0x40 MLOAD DUP1 PUSH1 0x40 ADD PUSH1 0x40 MSTORE DUP1 PUSH1 0x4 DUP2 MSTORE PUSH1 0x20 ADD PUSH32 0x576F6F6600000000000000000000000000000000000000000000000000000000 DUP2 MSTORE POP SWAP1 POP SWAP1 JUMP JUMPDEST PUSH1 0x60 PUSH2 0x193 DUP3 PUSH1 0x40 MLOAD DUP1 PUSH1 0x40 ADD PUSH1 0x40 MSTORE DUP1 PUSH1 0x4 DUP2 MSTORE PUSH1 0x20 ADD PUSH32 0x6D65617400000000000000000000000000000000000000000000000000000000 DUP2 MSTORE POP PUSH2 0x35F JUMP JUMPDEST DUP1 PUSH2 0x1D9 JUMPI POP PUSH2 0x1D8 DUP3 PUSH1 0x40 MLOAD DUP1 PUSH1 0x40 ADD PUSH1 0x40 MSTORE DUP1 PUSH1 0x5 DUP2 MSTORE PUSH1 0x20 ADD PUSH32 0x706C616E74000000000000000000000000000000000000000000000000000000 DUP2 MSTORE POP PUSH2 0x35F JUMP JUMPDEST JUMPDEST PUSH2 0x218 JUMPI PUSH1 0x40 MLOAD PUSH32 0x8C379A000000000000000000000000000000000000000000000000000000000 DUP2 MSTORE PUSH1 0x4 ADD PUSH2 0x20F SWAP1 PUSH2 0x62F JUMP JUMPDEST PUSH1 0x40 MLOAD DUP1 SWAP2 SUB SWAP1 REVERT JUMPDEST PUSH2 0x257 DUP3 PUSH1 0x40 MLOAD DUP1 PUSH1 0x40 ADD PUSH1 0x40 MSTORE DUP1 PUSH1 0x9 DUP2 MSTORE PUSH1 0x20 ADD PUSH32 0x63686F636F6C6174650000000000000000000000000000000000000000000000 DUP2 MSTORE POP PUSH2 0x35F JUMP JUMPDEST ISZERO PUSH2 0x297 JUMPI PUSH1 0x40 MLOAD PUSH32 0x8C379A000000000000000000000000000000000000000000000000000000000 DUP2 MSTORE PUSH1 0x4 ADD PUSH2 0x28E SWAP1 PUSH2 0x697 JUMP JUMPDEST PUSH1 0x40 MLOAD DUP1 SWAP2 SUB SWAP1 REVERT JUMPDEST PUSH1 0x40 MLOAD DUP1 PUSH1 0x40 ADD PUSH1 0x40 MSTORE DUP1 PUSH1 0x9 DUP2 MSTORE PUSH1 0x20 ADD PUSH32 0x446F672065617473200000000000000000000000000000000000000000000000 DUP2 MSTORE POP SWAP1 POP SWAP2 SWAP1 POP JUMP JUMPDEST PUSH0 DUP1 SLOAD PUSH2 0x2E0 SWAP1 PUSH2 0x6E2 JUMP JUMPDEST DUP1 PUSH1 0x1F ADD PUSH1 0x20 DUP1 SWAP2 DIV MUL PUSH1 0x20 ADD PUSH1 0x40 MLOAD SWAP1 DUP2 ADD PUSH1 0x40 MSTORE DUP1 SWAP3 SWAP2 SWAP1 DUP2 DUP2 MSTORE PUSH1 0x20 ADD DUP3 DUP1 SLOAD PUSH2 0x30C SWAP1 PUSH2 0x6E2 JUMP JUMPDEST DUP1 ISZERO PUSH2 0x357 JUMPI DUP1 PUSH1 0x1F LT PUSH2 0x32E JUMPI PUSH2 0x100 DUP1 DUP4 SLOAD DIV MUL DUP4 MSTORE SWAP2 PUSH1 0x20 ADD SWAP2 PUSH2 0x357 JUMP JUMPDEST DUP3 ADD SWAP2 SWAP1 PUSH0 MSTORE PUSH1 0x20 PUSH0 KECCAK256 SWAP1 JUMPDEST DUP2 SLOAD DUP2 MSTORE SWAP1 PUSH1 0x1 ADD SWAP1 PUSH1 0x20 ADD DUP1 DUP4 GT PUSH2 0x33A JUMPI DUP3 SWAP1 SUB PUSH1 0x1F AND DUP3 ADD SWAP2 JUMPDEST POP POP POP POP POP DUP2 JUMP JUMPDEST PUSH0 DUP2 PUSH1 0x40 MLOAD PUSH1 0x20 ADD PUSH2 0x371 SWAP2 SWAP1 PUSH2 0x74C JUMP JUMPDEST PUSH1 0x40 MLOAD PUSH1 0x20 DUP2 DUP4 SUB SUB DUP2 MSTORE SWAP1 PUSH1 0x40 MSTORE DUP1 MLOAD SWAP1 PUSH1 0x20 ADD KECCAK256 DUP4 PUSH1 0x40 MLOAD PUSH1 0x20 ADD PUSH2 0x398 SWAP2 SWAP1 PUSH2 0x74C JUMP JUMPDEST PUSH1 0x40 MLOAD PUSH1 0x20 DUP2 DUP4 SUB SUB DUP2 MSTORE SWAP1 PUSH1 0x40 MSTORE DUP1 MLOAD SWAP1 PUSH1 0x20 ADD KECCAK256 EQ SWAP1 POP SWAP3 SWAP2 POP POP JUMP JUMPDEST PUSH0 DUP2 MLOAD SWAP1 POP SWAP2 SWAP1 POP JUMP JUMPDEST PUSH0 DUP3 DUP3 MSTORE PUSH1 0x20 DUP3 ADD SWAP1 POP SWAP3 SWAP2 POP POP JUMP JUMPDEST PUSH0 JUMPDEST DUP4 DUP2 LT ISZERO PUSH2 0x3EE JUMPI DUP1 DUP3 ADD MLOAD DUP2 DUP5 ADD MSTORE PUSH1 0x20 DUP2 ADD SWAP1 POP PUSH2 0x3D3 JUMP JUMPDEST PUSH0 DUP5 DUP5 ADD MSTORE POP POP POP POP JUMP JUMPDEST PUSH0 PUSH1 0x1F NOT PUSH1 0x1F DUP4 ADD AND SWAP1 POP SWAP2 SWAP1 POP JUMP JUMPDEST PUSH0 PUSH2 0x413 DUP3 PUSH2 0x3B7 JUMP JUMPDEST PUSH2 0x41D DUP2 DUP6 PUSH2 0x3C1 JUMP JUMPDEST SWAP4 POP PUSH2 0x42D DUP2 DUP6 PUSH1 0x20 DUP7 ADD PUSH2 0x3D1 JUMP JUMPDEST PUSH2 0x436 DUP2 PUSH2 0x3F9 JUMP JUMPDEST DUP5 ADD SWAP2 POP POP SWAP3 SWAP2 POP POP JUMP JUMPDEST PUSH0 PUSH1 0x20 DUP3 ADD SWAP1 POP DUP2 DUP2 SUB PUSH0 DUP4 ADD MSTORE PUSH2 0x459 DUP2 DUP5 PUSH2 0x409 JUMP JUMPDEST SWAP1 POP SWAP3 SWAP2 POP POP JUMP JUMPDEST PUSH0 PUSH1 0x40 MLOAD SWAP1 POP SWAP1 JUMP JUMPDEST PUSH0 DUP1 REVERT JUMPDEST PUSH0 DUP1 REVERT JUMPDEST PUSH0 DUP1 REVERT JUMPDEST PUSH0 DUP1 REVERT JUMPDEST PUSH32 0x4E487B7100000000000000000000000000000000000000000000000000000000 PUSH0 MSTORE PUSH1 0x41 PUSH1 0x4 MSTORE PUSH1 0x24 PUSH0 REVERT JUMPDEST PUSH2 0x4B0 DUP3 PUSH2 0x3F9 JUMP JUMPDEST DUP2 ADD DUP2 DUP2 LT PUSH8 0xFFFFFFFFFFFFFFFF DUP3 GT OR ISZERO PUSH2 0x4CF JUMPI PUSH2 0x4CE PUSH2 0x47A JUMP JUMPDEST JUMPDEST DUP1 PUSH1 0x40 MSTORE POP POP POP JUMP JUMPDEST PUSH0 PUSH2 0x4E1 PUSH2 0x461 JUMP JUMPDEST SWAP1 POP PUSH2 0x4ED DUP3 DUP3 PUSH2 0x4A7 JUMP JUMPDEST SWAP2 SWAP1 POP JUMP JUMPDEST PUSH0 PUSH8 0xFFFFFFFFFFFFFFFF DUP3 GT ISZERO PUSH2 0x50C JUMPI PUSH2 0x50B PUSH2 0x47A JUMP JUMPDEST JUMPDEST PUSH2 0x515 DUP3 PUSH2 0x3F9 JUMP JUMPDEST SWAP1 POP PUSH1 0x20 DUP2 ADD SWAP1 POP SWAP2 SWAP1 POP JUMP JUMPDEST DUP3 DUP2 DUP4 CALLDATACOPY PUSH0 DUP4 DUP4 ADD MSTORE POP POP POP JUMP JUMPDEST PUSH0 PUSH2 0x542 PUSH2 0x53D DUP5 PUSH2 0x4F2 JUMP JUMPDEST PUSH2 0x4D8 JUMP JUMPDEST SWAP1 POP DUP3 DUP2 MSTORE PUSH1 0x20 DUP2 ADD DUP5 DUP5 DUP5 ADD GT ISZERO PUSH2 0x55E JUMPI PUSH2 0x55D PUSH2 0x476 JUMP JUMPDEST JUMPDEST PUSH2 0x569 DUP5 DUP3 DUP6 PUSH2 0x522 JUMP JUMPDEST POP SWAP4 SWAP3 POP POP POP JUMP JUMPDEST PUSH0 DUP3 PUSH1 0x1F DUP4 ADD SLT PUSH2 0x585 JUMPI PUSH2 0x584 PUSH2 0x472 JUMP JUMPDEST JUMPDEST DUP2 CALLDATALOAD PUSH2 0x595 DUP5 DUP3 PUSH1 0x20 DUP7 ADD PUSH2 0x530 JUMP JUMPDEST SWAP2 POP POP SWAP3 SWAP2 POP POP JUMP JUMPDEST PUSH0 PUSH1 0x20 DUP3 DUP5 SUB SLT ISZERO PUSH2 0x5B3 JUMPI PUSH2 0x5B2 PUSH2 0x46A JUMP JUMPDEST JUMPDEST PUSH0 DUP3 ADD CALLDATALOAD PUSH8 0xFFFFFFFFFFFFFFFF DUP2 GT ISZERO PUSH2 0x5D0 JUMPI PUSH2 0x5CF PUSH2 0x46E JUMP JUMPDEST JUMPDEST PUSH2 0x5DC DUP5 DUP3 DUP6 ADD PUSH2 0x571 JUMP JUMPDEST SWAP2 POP POP SWAP3 SWAP2 POP POP JUMP JUMPDEST PUSH32 0x446F67732063616E206F6E6C7920656174206D656174206F7220706C616E7473 PUSH0 DUP3 ADD MSTORE POP JUMP JUMPDEST PUSH0 PUSH2 0x619 PUSH1 0x20 DUP4 PUSH2 0x3C1 JUMP JUMPDEST SWAP2 POP PUSH2 0x624 DUP3 PUSH2 0x5E5 JUMP JUMPDEST PUSH1 0x20 DUP3 ADD SWAP1 POP SWAP2 SWAP1 POP JUMP JUMPDEST PUSH0 PUSH1 0x20 DUP3 ADD SWAP1 POP DUP2 DUP2 SUB PUSH0 DUP4 ADD MSTORE PUSH2 0x646 DUP2 PUSH2 0x60D JUMP JUMPDEST SWAP1 POP SWAP2 SWAP1 POP JUMP JUMPDEST PUSH32 0x43686F636F6C617465206973206861726D66756C20666F7220646F6773000000 PUSH0 DUP3 ADD MSTORE POP JUMP JUMPDEST PUSH0 PUSH2 0x681 PUSH1 0x1D DUP4 PUSH2 0x3C1 JUMP JUMPDEST SWAP2 POP PUSH2 0x68C DUP3 PUSH2 0x64D JUMP JUMPDEST PUSH1 0x20 DUP3 ADD SWAP1 POP SWAP2 SWAP1 POP JUMP JUMPDEST PUSH0 PUSH1 0x20 DUP3 ADD SWAP1 POP DUP2 DUP2 SUB PUSH0 DUP4 ADD MSTORE PUSH2 0x6AE DUP2 PUSH2 0x675 JUMP JUMPDEST SWAP1 POP SWAP2 SWAP1 POP JUMP JUMPDEST PUSH32 0x4E487B7100000000000000000000000000000000000000000000000000000000 PUSH0 MSTORE PUSH1 0x22 PUSH1 0x4 MSTORE PUSH1 0x24 PUSH0 REVERT JUMPDEST PUSH0 PUSH1 0x2 DUP3 DIV SWAP1 POP PUSH1 0x1 DUP3 AND DUP1 PUSH2 0x6F9 JUMPI PUSH1 0x7F DUP3 AND SWAP2 POP JUMPDEST PUSH1 0x20 DUP3 LT DUP2 SUB PUSH2 0x70C JUMPI PUSH2 0x70B PUSH2 0x6B5 JUMP JUMPDEST JUMPDEST POP SWAP2 SWAP1 POP JUMP JUMPDEST PUSH0 DUP2 SWAP1 POP SWAP3 SWAP2 POP POP JUMP JUMPDEST PUSH0 PUSH2 0x726 DUP3 PUSH2 0x3B7 JUMP JUMPDEST PUSH2 0x730 DUP2 DUP6 PUSH2 0x712 JUMP JUMPDEST SWAP4 POP PUSH2 0x740 DUP2 DUP6 PUSH1 0x20 DUP7 ADD PUSH2 0x3D1 JUMP JUMPDEST DUP1 DUP5 ADD SWAP2 POP POP SWAP3 SWAP2 POP POP JUMP JUMPDEST PUSH0 PUSH2 0x757 DUP3 DUP5 PUSH2 0x71C JUMP JUMPDEST SWAP2 POP DUP2 SWAP1 POP SWAP3 SWAP2 POP POP JUMP INVALID LOG2 PUSH5 0x6970667358 0x22 SLT KECCAK256 PUSH17 0xF0E68E8CCDF86EAF79F59EEDE522DA4290 RETURNDATACOPY DUP7 0xC5 0xB2 MULMOD 0x4F 0x2B 0xE2 SGT SELFDESTRUCT PUSH23 0xA6030664736F6C63430008170033A26469706673582212 KECCAK256 PUSH28 0x1C7ECB49FB1B0435F0E4CDA60B33BC5318664E197E1E6662AEC11C84 0xE5 INVALID DUP4 PUSH5 0x736F6C6343 STOP ADDMOD OR STOP CALLER "
		},
		"gasEstimates": {
			"creation": {
				"codeDepositCost": "2952800",
				"executionCost": "3237",
				"totalCost": "2956037"
			},
			"external": {
				"addCow(string)": "infinite",
				"addDog(string)": "infinite",
				"addHorse(string)": "infinite",
				"addWolf(string)": "infinite",
				"call(address)": "infinite",
				"feed(address,string)": "infinite"
			}
		},
		"methodIdentifiers": {
			"addCow(string)": "2901f073",
			"addDog(string)": "b9b3832b",
			"addHorse(string)": "05aa6e50",
			"addWolf(string)": "2a70c1be",
			"call(address)": "f55332ab",
			"feed(address,string)": "337612db"
		}
	},
	"abi": [
		{
			"anonymous": false,
			"inputs": [
				{
					"indexed": false,
					"internalType": "string",
					"name": "name",
					"type": "string"
				},
				{
					"indexed": false,
					"internalType": "address",
					"name": "animal",
					"type": "address"
				}
			],
			"name": "AddedNewAnimal",
			"type": "event"
		},
		{
			"inputs": [
				{
					"internalType": "string",
					"name": "name",
					"type": "string"
				}
			],
			"name": "addCow",
			"outputs": [],
			"stateMutability": "nonpayable",
			"type": "function"
		},
		{
			"inputs": [
				{
					"internalType": "string",
					"name": "name",
					"type": "string"
				}
			],
			"name": "addDog",
			"outputs": [],
			"stateMutability": "nonpayable",
			"type": "function"
		},
		{
			"inputs": [
				{
					"internalType": "string",
					"name": "name",
					"type": "string"
				}
			],
			"name": "addHorse",
			"outputs": [],
			"stateMutability": "nonpayable",
			"type": "function"
		},
		{
			"inputs": [
				{
					"internalType": "string",
					"name": "name",
					"type": "string"
				}
			],
			"name": "addWolf",
			"outputs": [],
			"stateMutability": "nonpayable",
			"type": "function"
		},
		{
			"inputs": [
				{
					"internalType": "address",
					"name": "animal",
					"type": "address"
				}
			],
			"name": "call",
			"outputs": [
				{
					"internalType": "string",
					"name": "",
					"type": "string"
				}
			],
			"stateMutability": "pure",
			"type": "function"
		},
		{
			"inputs": [
				{
					"internalType": "address",
					"name": "animal",
					"type": "address"
				},
				{
					"internalType": "string",
					"name": "food",
					"type": "string"
				}
			],
			"name": "feed",
			"outputs": [
				{
					"internalType": "string",
					"name": "",
					"type": "string"
				}
			],
			"stateMutability": "pure",
			"type": "function"
		}
	]
}